:020000040800F2
:100000000080012069130008651100086B110008C9
:1000100071110008771100087D1100080000000030
:100020000000000000000000000000008311000834
:1000300091110008000000009F110008AD11000898
:10004000B9130008B9130008B9130008B913000860
:10005000B9130008B9130008B9130008B913000850
:10006000B9130008B9130008B9130008B913000840
:10007000B9130008B9130008B9130008B913000830
:10008000B9130008B9130008B9130008B913000820
:10009000B9130008B9130008B9130008B913000810
:1000A000B9130008B9130008B9130008B913000800
:1000B000B9130008B9130008B9130008B9130008F0
:1000C000B9130008B9130008B9130008B9130008E0
:1000D000B9130008B9130008B9130008B9130008D0
:1000E000B9130008B9130008B9130008B9130008C0
:1000F000B9130008B9130008B9130008B9130008B0
:10010000B9130008B9130008B9130008B91300089F
:10011000B9130008B9130008B9130008B91300088F
:10012000B9130008B9130008B9130008B91300087F
:10013000B9130008B9130008B9130008B91300086F
:10014000B9130008B9130008B9130008B91300085F
:10015000B9130008B9130008B9130008B91300084F
:10016000B9130008B9130008B9130008B91300083F
:10017000B9130008B9130008B91300080000000003
:08018000B9130008B9130008CF
:1001900010B5054C237833B9044B13B10448AFF3C1
:1001A00000800123237010BDE40100200000000046
:1001B000D065000808B5034B1BB103490348AFF3F2
:1001C000008008BD00000000E8010020D0650008A4
:1001D00081F0004102E000BF83F0004330B54FEAF8
:1001E00041044FEA430594EA050F08BF90EA020F65
:1001F0001FBF54EA000C55EA020C7FEA645C7FEAF8
:10020000655C00F0E2804FEA5454D4EB5555B8BF1A
:100210006D420CDD2C4480EA020281EA030382EA8B
:10022000000083EA010180EA020281EA0303362D1D
:1002300088BF30BD11F0004F4FEA01314FF4801CF0
:100240004CEA113102D0404261EB410113F0004F02
:100250004FEA03334CEA133302D0524263EB4303B9
:1002600094EA050F00F0A780A4F10104D5F1200E57
:100270000DDB02FA0EFC22FA05F2801841F10001B2
:1002800003FA0EF2801843FA05F359410EE0A5F186
:1002900020050EF1200E012A03FA0EFC28BF4CF0B7
:1002A000020C43FA05F3C01851EBE37101F000456D
:1002B00007D54FF0000EDCF1000C7EEB00006EEB7A
:1002C0000101B1F5801F1BD3B1F5001F0CD3490804
:1002D0005FEA30004FEA3C0C04F101044FEA44525B
:1002E00012F5800F80F09A80BCF1004F08BF5FEAE2
:1002F000500C50F1000041EB045141EA050130BDC2
:100300005FEA4C0C404141EB0101013C28BFB1F5D3
:10031000801FE9D291F0000F04BF01460020B1FA1E
:1003200081F308BF2033A3F10B03B3F120020CDAF1
:100330000C3208DD02F1140CC2F10C0201FA0CF0CF
:1003400021FA02F10CE002F11402D8BFC2F1200C34
:1003500001FA02F120FA0CFCDCBF41EA0C019040EA
:10036000E41AA2BF01EB0451294330BD6FEA040433
:100370001F3C1CDA0C340EDC04F11404C4F120021E
:1003800020FA04F001FA02F340EA030021FA04F330
:1003900045EA030130BDC4F10C04C4F1200220FA87
:1003A00002F001FA04F340EA0300294630BD21FAC5
:1003B00004F0294630BD94F0000F83F4801306BF8B
:1003C00081F480110134013D4EE77FEA645C18BF7F
:1003D0007FEA655C29D094EA050F08BF90EA020F16
:1003E00005D054EA000C04BF1946104630BD91EA0E
:1003F000030F1EBF0021002030BD5FEA545C05D111
:100400004000494128BF41F0004130BD14F580044F
:100410003CBF01F5801130BD01F0004545F0FE41C3
:1004200041F470014FF0000030BD7FEA645C1ABFF8
:10043000194610467FEA655C1CBF0B46024650EA2F
:10044000013406BF52EA033591EA030F41F400215B
:1004500030BD00BF90F0000F04BF0021704730B5E1
:100460004FF4806404F132044FF000054FF00001B6
:1004700050E700BF90F0000F04BF0021704730B577
:100480004FF4806404F1320410F0004548BF40424C
:100490004FF000013EE700BF42004FEAE2014FEAA1
:1004A00031014FEA02701FBF12F07F4393F07F4F7C
:1004B00081F06051704732F07F4208BF704793F07F
:1004C0007F4F04BF41F40021704730B54FF4607492
:1004D00001F0004521F000411CE700BF50EA010295
:1004E00008BF704730B54FF000050AE050EA01023E
:1004F00008BF704730B511F0004502D5404261EBAE
:1005000041014FF4806404F132045FEA915C3FF4EE
:10051000D8AE4FF003025FEADC0C18BF03325FEA8B
:10052000DC0C18BF033202EBDC02C2F1200300FA3C
:1005300003FC20FA02F001FA03FE40EA0E0021FA61
:1005400002F11444BDE600BF70B54FF0FF0C4CF44F
:10055000E06C1CEA11541DBF1CEA135594EA0C0F01
:1005600095EA0C0F00F0DEF82C4481EA030621EA3C
:100570004C5123EA4C5350EA013518BF52EA033577
:1005800041F4801143F4801338D0A0FB02CE4FF029
:100590000005E1FB02E506F00042E0FB03E54FF059
:1005A0000006E1FB03569CF0000F18BF4EF0010E51
:1005B000A4F1FF04B6F5007F64F5407404D25FEA4D
:1005C0004E0E6D4146EB060642EAC62141EA555100
:1005D0004FEAC52040EA5E504FEACE2EB4F1FD0C42
:1005E00088BFBCF5E06F1ED8BEF1004F08BF5FEAC0
:1005F000500E50F1000041EB045170BD06F0004672
:1006000046EA010140EA020081EA0301B4EB5C041E
:10061000C2BFD4EB0C0541EA045170BD41F4801116
:100620004FF0000E013C00F3AB8014F1360FDEBF3B
:10063000002001F0004170BDC4F10004203C35DA17
:100640000C341BDC04F11404C4F1200500FA05F39A
:1006500020FA04F001FA05F240EA020001F000423B
:1006600021F0004110EBD37021FA04F642EB0601B1
:100670005EEA430E08BF20EAD37070BDC4F10C04DB
:10068000C4F1200500FA04F320FA05F001FA04F29F
:1006900040EA020001F0004110EBD37041F100018B
:1006A0005EEA430E08BF20EAD37070BDC4F1200596
:1006B00000FA05F24EEA020E20FA04F301FA05F2FE
:1006C00043EA020321FA04F001F0004121FA04F2A6
:1006D00020EA020000EBD3705EEA430E08BF20EA76
:1006E000D37070BD94F0000F0FD101F000464000B0
:1006F00041EB010111F4801F08BF013CF7D041EA32
:10070000060195F0000F18BF704703F00046520035
:1007100043EB030313F4801F08BF013DF7D043EA06
:100720000603704794EA0C0F0CEA135518BF95EABC
:100730000C0F0CD050EA410618BF52EA4306D1D143
:1007400081EA030101F000414FF0000070BD50EA62
:10075000410606BF1046194652EA430619D094EAEC
:100760000C0F02D150EA013613D195EA0C0F05D1D6
:1007700052EA03361CBF104619460AD181EA03012A
:1007800001F0004141F0FE4141F470014FF00000E2
:1007900070BD41F0FE4141F4780170BD70B54FF07D
:1007A000FF0C4CF4E06C1CEA11541DBF1CEA1355FD
:1007B00094EA0C0F95EA0C0F00F0A7F8A4EB0504DF
:1007C00081EA030E52EA03354FEA013100F08880D6
:1007D0004FEA03334FF0805545EA131343EA12639F
:1007E0004FEA022245EA111545EA10654FEA002654
:1007F0000EF000419D4208BF964244F1FD0404F50D
:10080000407402D25B084FEA3202B61A65EB030568
:100810005B084FEA32024FF480104FF4002CB6EB25
:10082000020E75EB030E22BFB61A754640EA0C00A5
:100830005B084FEA3202B6EB020E75EB030E22BFE5
:10084000B61A754640EA5C005B084FEA3202B6EB26
:10085000020E75EB030E22BFB61A754640EA9C00E5
:100860005B084FEA3202B6EB020E75EB030E22BFB5
:10087000B61A754640EADC0055EA060E18D04FEA73
:10088000051545EA16754FEA06164FEAC30343EA13
:1008900052734FEAC2025FEA1C1CC0D111F4801FE0
:1008A0000BD141EA00014FF000004FF0004CB6E7D9
:1008B00011F4801F04BF01430020B4F1FD0C88BF78
:1008C000BCF5E06F3FF6AFAEB5EB030C04BFB6EB83
:1008D000020C5FEA500C50F1000041EB045170BD76
:1008E0000EF0004E4EEA113114EB5C04C2BFD4EBA3
:1008F0000C0541EA045170BD41F480114FF0000E27
:10090000013C90E645EA060E8DE60CEA135594EAA2
:100910000C0F08BF95EA0C0F3FF43BAF94EA0C0FA5
:100920000AD150EA01347FF434AF95EA0C0F7FF41A
:1009300025AF104619462CE795EA0C0F06D152EA6E
:1009400003353FF4FDAE1046194622E750EA410652
:1009500018BF52EA43067FF4C5AE50EA41047FF463
:100960000DAF52EA43057FF4EBAE12E74FF0FF3CC8
:1009700006E000BF4FF0010C02E000BF4FF0010C99
:100980004DF804CD4FEA410C7FEA6C5C4FEA430C12
:1009900018BF7FEA6C5C1BD001B050EA410C0CBF61
:1009A00052EA430C91EA030F02BF90EA020F0020C3
:1009B000704710F1000F91EA030F58BF994208BF2A
:1009C00090422CBFD8176FEAE37040F001007047E7
:1009D0004FEA410C7FEA6C5C02D150EA013C07D13E
:1009E0004FEA430C7FEA6C5CD6D152EA033CD3D089
:1009F0005DF8040B704700BF8446104662468C4683
:100A00001946634600E000BF01B5FFF7B7FF0028B5
:100A100048BF10F1000F01BD4DF808EDFFF7F4FFDE
:100A20000CBF012000205DF808FB00BF4DF808ED69
:100A3000FFF7EAFF34BF012000205DF808FB00BF8C
:100A40004DF808EDFFF7E0FF94BF012000205DF8AE
:100A500008FB00BF4DF808EDFFF7CEFF94BF012063
:100A600000205DF808FB00BF4DF808EDFFF7C4FF5C
:100A700034BF012000205DF808FB00BF4FEA4102AF
:100A800012F5001215D211D56FF47873B3EB6252E0
:100A900012D94FEAC12343F0004343EA505311F007
:100AA000004F23FA02F018BF404270474FF0000099
:100AB000704750EA013005D111F0004008BF6FF0D7
:100AC000004070474FF00000704700BF000000007A
:100AD00001F0FF01102A2BDB10F0070F08D010F8EF
:100AE000013B013A8B422DD010F0070F42B3F6D1F3
:100AF000F0B441EA012141EA014122F007047FF00C
:100B000000070023F0E80256083C85EA010586EA62
:100B1000010685FA47F5A3FA87F586FA47F6A5FA9E
:100B200087F68EB9EED1F0BC01F0FF0102F00702AA
:100B300032B110F8013B013A83EA010313B1F8D155
:100B40000020704701387047002D06BF3546033836
:100B5000073815F0010F07D1013015F4807F02BF6F
:100B6000013015F4C03F0130F0BC0138704700BFC0
:100B7000034613F8012B002AFBD1181A01387047DD
:100B80004FEA410C7FEA6C5C02D150EA013C0AD189
:100B90004FEA430C7FEA6C5C02D152EA033C02D17B
:100BA0004FF0000070474FF00100704780B588B0EB
:100BB00000AF07F10C0300221A605A609A60DA60F5
:100BC0001A611E4BDB6C1D4A43F00403D3641B4BBC
:100BD000DB6C03F00403BB60BB68184BDB6C174A8B
:100BE00043F00203D364154BDB6C03F002037B601C
:100BF0007B68124BDB6C114A43F00103D3640F4B4B
:100C0000DB6C03F001033B603B68002241F604010A
:100C10000B4800F063FE41F60403FB6001233B61D7
:100C200000237B610023BB6107F10C0319460448D4
:100C300000F0AAFC00BF2037BD4680BD0010024076
:100C40000004004880B582B000AF0346FB7100226B
:100C50004FF400610C4800F041FE00224FF4805137
:100C6000094800F03BFEF91D4FF0FF330122074811
:100C700001F01BFD01224FF48051034800F02EFECD
:100C800000BF0837BD4680BD0004004800A2002018
:100C900080B582B000AF0346FB7101224FF40061C2
:100CA0000C4800F01BFE00224FF48051094800F070
:100CB00015FEF91D4FF0FF330122074801F0F5FC46
:100CC00001224FF48051034800F008FE00BF0837AE
:100CD000BD4680BD0004004800A2002080B582B05F
:100CE00000AF0346FB80FB8803F48073002B05D024
:100CF000FB88DBB21846FFF7A5FF04E0FB88DBB2F8
:100D00001846FFF7C5FF00BF0837BD4680BD00008D
:100D100080B582B000AF00220421174800F0DEFD4C
:100D2000642002F009F801220421134800F0D6FDE6
:100D3000642002F001F800237B6009E00F4A7B6821
:100D400032F813301846FFF7C9FF7B6801337B6028
:100D50007B684B2BF2D9C82001F0EEFF1120FFF782
:100D600071FF782001F0E8FF2920FFF76BFF00BF3B
:100D70000837BD4680BD00BF00040048B4660008C7
:100D800080B582B000AF0346FB80FB881B0A9BB294
:100D9000DBB21846FFF77CFFFB88DBB21846FFF793
:100DA00077FF00BF0837BD4680BD80B584B000AF77
:100DB000F860B9607A603B602A20FFF743FFFB6868
:100DC0009BB201339BB21846FFF7DAFFFB689AB279
:100DD0007B689BB213449BB21846FFF7D1FF2B20D0
:100DE000FFF730FFBB689BB202339BB21846FFF798
:100DF000C7FFBB689AB23B689BB213449BB20133F6
:100E00009BB21846FFF7BCFF00BF1037BD4680BD40
:100E100080B485B000AFF860B9601346FB80BA6853
:100E200013469B0013445B011A46FB6813440549B3
:100E3000FA8821F8132000BF1437BD465DF8047B03
:100E4000704700BF0002002080B500AF8023A022C1
:100E500000210020FFF7A9FF2C20FFF7F3FE01225D
:100E60004FF400610C4800F039FD00224FF480512E
:100E7000094800F033FD4FF0FF334FF4204207499B
:100E8000074801F012FC01224FF48051024800F0A3
:100E900025FD00BF80BD00BF000400480002002007
:100EA00000A2002080B5A4B002AF01F0D1FE00F096
:100EB0003DF8FFF77BFE00F091F8FFF729FF4FF0B8
:100EC0007E53C7F88430D7F88400FFF7E5FA02466E
:100ED0000B46381DCDE90023104A202102F070FD99
:100EE0000F4B00934FF6FF7314220F210D4802F0B1
:100EF0004BF90B4B00934FF6FF731E220F210A484C
:100F000002F042F9381D064B00934FF6FF7328227A
:100F10000F2102F039F9FFF797FFFEE7E8650008B7
:100F20004C670008406600086866000880B596B007
:100F300000AF07F1140344220021184602F004FC1C
:100F40003B4600221A605A609A60DA601A614FF4D8
:100F5000007000F0E9FC0346002B01D000F038F8E7
:100F600010237B610123FB6200233B6360237B63CF
:100F70000223FB6301233B6401237B642823BB64BE
:100F80000723FB6402233B6502237B6507F11403FF
:100F9000184600F01FFD0346002B01D000F018F8A2
:100FA0000F233B6003237B600023BB600023FB60B7
:100FB00000233B613B460421184601F0E7F8034655
:100FC000002B01D000F004F800BF5837BD4680BDAB
:100FD00080B400AF72B600BFFEE7000080B500AF7E
:100FE0001B4B1C4A1A601A4B4FF482725A60184B02
:100FF00000229A60164B4FF4E062DA60144B002234
:101000001A61134B00225A61114B4FF400729A611E
:101010000F4B1022DA610E4B00221A620C4B002299
:101020005A620B4B00229A62094B0722DA62084B84
:1010300000221A63064B00225A63054801F092FA17
:101040000346002B01D0FFF7C3FF00BF80BD00BFE8
:1010500000A200200038004080B58AB000AF786060
:1010600007F1140300221A605A609A60DA601A616C
:101070007B681B68254A934244D1254B9B6D244ACB
:1010800043F480439365224B9B6D03F480433B61A3
:101090003B691F4BDB6C1E4A43F00403D3641C4BBB
:1010A000DB6C03F00403FB60FB68194BDB6C184A34
:1010B00043F00203D364164BDB6C03F00203BB6006
:1010C000BB6808237B610223BB610023FB61032310
:1010D0003B6205237B6207F1140319460D4800F0BB
:1010E00053FA4FF480637B610223BB610023FB61F1
:1010F00003233B6205237B6207F11403194606486C
:1011000000F042FA00BF2837BD4680BD00380040DD
:1011100000100240000800480004004880B483B07A
:1011200000AF0F4B1B6E0E4A43F0010313660C4BCE
:101130001B6E03F001037B607B68094B9B6D084AC3
:1011400043F080539365064B9B6D03F080533B60E7
:101150003B6800BF0C37BD465DF8047B704700BF9D
:101160000010024080B400AFFEE780B400AFFEE79D
:1011700080B400AFFEE780B400AFFEE780B400AFFC
:10118000FEE780B400AF00BFBD465DF8047B70474A
:1011900080B400AF00BFBD465DF8047B704780B4EB
:1011A00000AF00BFBD465DF8047B704780B500AF5F
:1011B00001F0A2FD00BF80BD80B400AF012318463E
:1011C000BD465DF8047B704780B582B000AF7860A3
:1011D000396002F061F8034616221A604FF0FF33BF
:1011E00018460837BD4680BD80B582B000AF786034
:1011F0004FF0FF317868FFF7E7FFFEE780B586B074
:1012000000AFF860B9607A6000237B610AE0AFF359
:1012100000800146BB685A1CBA60CAB21A707B696A
:1012200001337B617A697B689A42F0DB7B68184600
:101230001837BD4680BD80B586B000AFF860B96094
:101240007A6000237B6109E0BB685A1CBA601B7896
:101250001846AFF300807B6901337B617A697B6854
:101260009A42F1DB7B6818461837BD4680BD80B4D2
:1012700083B000AF78604FF0FF3318460C37BD469F
:101280005DF8047B704780B483B000AF786039604C
:101290003B684FF400525A60002318460C37BD4695
:1012A0005DF8047B704780B483B000AF78600123A1
:1012B00018460C37BD465DF8047B704780B485B096
:1012C00000AFF860B9607A60002318461437BD4655
:1012D0005DF8047B7047000080B586B000AF786091
:1012E000144A154BD31A7B617B693B61134B1B6816
:1012F000002B02D1114B124A1A60104B1A687B68FE
:1013000013443A699A4207D201F0C6FF03460C2201
:101310001A604FF0FF3309E0084B1B68FB60074B76
:101320001A687B681344054A1360FB68184618372F
:10133000BD4680BD008001200004000064A20020A2
:1013400080A2002080B400AF064BD3F88830054A55
:1013500043F47003C2F8883000BFBD465DF8047BDB
:10136000704700BF00ED00E0DFF834D0FFF7EAFF80
:101370000C480D490D4A002302E0D458C4500433F0
:10138000C4188C42F9D30A4A0A4C002301E01360C6
:101390000432A242FBD302F03DF9FFF783FDFEE7E2
:1013A0000080012000000020E4010020C49C00080F
:1013B000E40100207CA20020FEE7000080B485B09C
:1013C00000AF78607B6803F00703FB600C4BDB68C1
:1013D000BB60BA684FF6FF031340BB60FB681A029C
:1013E000BB68134343F0BF6343F40033BB60044A5C
:1013F000BB68D36000BF1437BD465DF8047B7047FF
:1014000000ED00E080B400AF044BDB681B0A03F082
:1014100007031846BD465DF8047B704700ED00E009
:1014200080B483B000AF03463960FB7197F9073091
:10143000002B0ADB3B68DAB20C4997F9073012013E
:10144000D2B20B4483F800230AE03B68DAB20849C1
:10145000FB7903F00F03043B1201D2B20B441A765E
:1014600000BF0C37BD465DF8047B704700E100E02B
:1014700000ED00E080B489B000AFF860B9607A6038
:10148000FB6803F00703FB61FB69C3F10703042B4F
:1014900028BF0423BB61FB690433062B02D9FB6917
:1014A000033B00E000237B614FF0FF32BB6902FA8F
:1014B00003F3DA43BB681A407B699A404FF0FF316F
:1014C0007B6901FA03F3D9437B680B401343184649
:1014D0002437BD465DF8047B7047000080B582B0BC
:1014E00000AF78607B68013BB3F1807F01D30123BB
:1014F0000FE00A4A7B68013B53600F214FF0FF3039
:10150000FFF78EFF054B00229A60044B07221A60FA
:10151000002318460837BD4680BD00BF10E000E03C
:1015200080B582B000AF78607868FFF747FF00BFF2
:101530000837BD4680BD80B586B000AF0346B960B0
:101540007A60FB7300237B61FFF75CFF78617A6848
:10155000B9687869FFF78EFF024697F90F30114698
:101560001846FFF75DFF00BF1837BD4680BD80B548
:1015700082B000AF78607868FFF7B0FF0346184686
:101580000837BD4680BD000080B487B000AF7860EA
:10159000396000237B617FE13B681A6801217B6928
:1015A00001FA03F31340FB60FB68002B00F071812C
:1015B0003B685B6803F00303012B05D03B685B6865
:1015C00003F00303022B30D17B689B683B617B698E
:1015D0005B00032202FA03F3DB433A6913403B61E9
:1015E0003B68DA687B695B0002FA03F33A691343EC
:1015F0003B617B683A699A607B685B683B6101226A
:101600007B6902FA03F3DB433A6913403B613B68B1
:101610005B681B0903F001027B6902FA03F33A6974
:1016200013433B617B683A695A603B685B6803F02F
:101630000303032B18D17B68DB6A3B6101227B69C2
:1016400002FA03F3DB433A6913403B613B685B6892
:10165000DB0803F001027B6902FA03F33A691343E2
:101660003B617B683A69DA623B685B6803F00303BD
:10167000032B17D07B68DB683B617B695B0003222F
:1016800002FA03F3DB433A6913403B613B689A6813
:101690007B695B0002FA03F33A6913433B617B68A1
:1016A0003A69DA603B685B6803F00303022B23D1DD
:1016B0007B69DA087B68083253F822303B617B692A
:1016C00003F007039B000F2202FA03F3DB433A699E
:1016D00013403B613B681A697B6903F007039B0079
:1016E00002FA03F33A6913433B617B69DA087B68CA
:1016F0000832396943F822107B681B683B617B69BB
:101700005B00032202FA03F3DB433A6913403B61B7
:101710003B685B6803F003027B695B0002FA03F33A
:101720003A6913433B617B683A691A603B685B68BE
:1017300003F44033002B00F0AC805F4B1B6E5E4A1D
:1017400043F0010313665C4B1B6E03F00103BB60A7
:10175000BB685A4A7B699B08023352F823303B61CD
:101760007B6903F003039B000F2202FA03F3DB43C0
:101770003A6913403B617B68B3F1904F25D07B6899
:101780004F4A93421FD07B684E4A934219D07B68E0
:101790004D4A934213D07B684C4A93420DD07B68EC
:1017A0004B4A934207D07B684A4A934201D10623B1
:1017B0000CE007230AE0052308E0042306E00323E6
:1017C00004E0022302E0012300E000237A6902F032
:1017D0000302920093403A6913433B6137497B69A6
:1017E0009B0802333A6941F823203B4B9B683B61DD
:1017F000FB68DB433A6913403B613B685B6803F479
:101800008013002B03D03A69FB6813433B61324AD3
:101810003B699360304BDB683B61FB68DB433A69B3
:1018200013403B613B685B6803F40013002B03D05B
:101830003A69FB6813433B61274A3B69D360264BF7
:101840005B683B61FB68DB433A6913403B613B6883
:101850005B6803F40033002B03D03A69FB68134341
:101860003B611D4A3B6953601B4B1B683B61FB6836
:10187000DB433A6913403B613B685B6803F48033A8
:10188000002B03D03A69FB6813433B61124A3B6962
:1018900013607B6901337B613B681A687B6922FABC
:1018A00003F3002B7FF478AE00BF00BF1C37BD46AA
:1018B0005DF8047B704700BF00100240000001404B
:1018C0000004004800080048000C004800100048D0
:1018D00000140048001800480004014080B483B0A0
:1018E00000AF78600B467B8013467B707B78002BC3
:1018F00003D07A887B689A6102E07A887B689A6272
:1019000000BF0C37BD465DF8047B704780B400AF64
:10191000044B1B6803F4C0631846BD465DF8047BA6
:10192000704700BF0070004080B485B000AF7860A1
:101930007B68B3F5007F30D1234B1B6803F4C06391
:10194000B3F5007F38D0204B1B6823F4C0631E4AD8
:1019500043F4007313601D4B1B68322202FB03F338
:101960001B4AA2FB03239B0C0133FB6002E0FB68D4
:10197000013BFB60144B5B6903F48063B3F5806F3C
:1019800002D1FB68002BF2D10F4B5B6903F480633B
:10199000B3F5806F10D103230FE00B4B1B6803F4EA
:1019A000C063B3F5806F07D0074B1B6823F4C06397
:1019B000054A43F480631360002318461437BD467C
:1019C0005DF8047B704700BF0070004000000020FD
:1019D00083DE1B4380B588B000AF78607B68002B46
:1019E00001D10123CAE3974B9B6803F00C03BB6151
:1019F000944BDB6803F003037B617B681B6803F097
:101A00001003002B00F0E480BB69002B07D0BB69FA
:101A10000C2B40F08B807B69012B40F08780894B39
:101A20001B6803F00203002B05D07B689B69002B29
:101A300001D10123A2E37B681A6A824B1B6803F081
:101A40000803002B04D07F4B1B6803F0F00305E074
:101A50007C4BD3F894301B0903F0F003934223D25C
:101A60007B681B6A184600F01DFD0346002B01D061
:101A7000012383E3734B1B68724A43F0080313602E
:101A8000704B1B6823F0F0027B681B6A6D4913439F
:101A90000B606C4B5B6823F47F427B68DB691B0245
:101AA000684913434B6025E0664B1B68654A43F069
:101AB00008031360634B1B6823F0F0027B681B6A0A
:101AC000604913430B605F4B5B6823F47F427B6884
:101AD000DB691B025B4913434B60BB69002B09D1D7
:101AE0007B681B6A184600F0DDFC0346002B01D022
:101AF000012343E300F04AFC0246524B9B681B095A
:101B000003F00F035049CB5C03F01F0322FA03F3E9
:101B10004E4A13604E4B1B68184601F0B1F803465D
:101B2000FB73FB7B002B52D0FB7B27E37B689B691D
:101B3000002B32D0434B1B68424A43F00103136031
:101B400001F0EEF8386108E001F0EAF802463B697E
:101B5000D31A022B01D9032310E33A4B1B6803F07D
:101B60000203002BF0D0374B1B68364A43F00803C2
:101B70001360344B1B6823F0F0027B681B6A314909
:101B800013430B602F4B5B6823F47F427B68DB6958
:101B90001B022C4913434B601AE02A4B1B68294A4D
:101BA00023F00103136001F0BBF8386108E001F095
:101BB000B7F802463B69D31A022B01D90323DDE2B1
:101BC000204B1B6803F00203002BF0D100E000BFA4
:101BD0007B681B6803F00103002B74D0BB69082BE2
:101BE00005D0BB690C2B0ED17B69032B0BD1154B98
:101BF0001B6803F40033002B64D07B685B68002B08
:101C000060D10123BAE27B685B68B3F5803F06D1FF
:101C10000C4B1B680B4A43F48033136026E07B684F
:101C20005B68B3F5A02F15D1064B1B68054A43F43A
:101C300080231360034B1B68024A43F48033136014
:101C400014E000BF001002400497000800000020CC
:101C500004000020A04B1B689F4A23F480331360CC
:101C60009D4B1B689C4A23F4802313607B685B6850
:101C7000002B13D001F054F8386108E001F050F85F
:101C800002463B69D31A642B01D9032376E2924BB7
:101C90001B6803F40033002BF0D014E001F040F88F
:101CA000386108E001F03CF802463B69D31A642B26
:101CB00001D9032362E2884B1B6803F40033002B35
:101CC000F0D100E000BF7B681B6803F00203002B2B
:101CD00060D0BB69042B05D0BB690C2B19D17B6983
:101CE000022B16D17C4B1B6803F48063002B05D0BC
:101CF0007B68DB68002B01D101233FE2764B5B68F8
:101D000023F0F8527B681B691B06734913434B6031
:101D100040E07B68DB68002B23D06F4B1B686E4A6A
:101D200043F48073136000F0FBFF386108E000F0BB
:101D3000F7FF02463B69D31A022B01D903231DE2A8
:101D4000654B1B6803F48063002BF0D0624B5B682B
:101D500023F0F8527B681B691B065F4913434B60F5
:101D600018E05D4B1B685C4A23F48073136000F03D
:101D7000D7FF386108E000F0D3FF02463B69D31A71
:101D8000022B01D90323F9E1534B1B6803F4806351
:101D9000002BF0D17B681B6803F00803002B3CD0BC
:101DA0007B685B69002B1CD04B4BD3F894304A4ABC
:101DB00043F00103C2F8943000F0B2FF386108E04C
:101DC00000F0AEFF02463B69D31A022B01D9032370
:101DD000D4E1414BD3F8943003F00203002BEFD051
:101DE0001BE03D4BD3F894303B4A23F00103C2F88B
:101DF000943000F095FF386108E000F091FF024652
:101E00003B69D31A022B01D90323B7E1324BD3F834
:101E1000943003F00203002BEFD17B681B6803F0C2
:101E20000403002B00F0A6800023FB772A4B9B6D58
:101E300003F08053002B0DD1274B9B6D264A43F0B6
:101E400080539365244B9B6D03F08053BB60BB684C
:101E50000123FB77214B1B6803F48073002B18D1FF
:101E60001E4B1B681D4A43F48073136000F058FF3B
:101E7000386108E000F054FF02463B69D31A022B98
:101E800001D903237AE1154B1B6803F48073002BFF
:101E9000F0D07B689B68012B08D10F4BD3F89030B2
:101EA0000D4A43F00103C2F8903029E07B689B683B
:101EB000052B15D1084BD3F89030074A43F00403A3
:101EC000C2F89030044BD3F89030034A43F001033A
:101ED000C2F8903014E000BF0010024000700040D3
:101EE0009C4BD3F890309B4A23F00103C2F890300A
:101EF000984BD3F89030974A23F00403C2F89030FF
:101F00007B689B68002B16D000F00AFF38610AE05E
:101F100000F006FF02463B69D31A41F28832934231
:101F200001D903232AE18B4BD3F8903003F002034D
:101F3000002BEDD015E000F0F3FE38610AE000F070
:101F4000EFFE02463B69D31A41F28832934201D92F
:101F5000032313E17F4BD3F8903003F00203002BEF
:101F6000EDD1FB7F012B05D17A4B9B6D794A23F094
:101F7000805393657B689B6A002B00F0FE807B6832
:101F80009B6A022B40F0D080724BDB687B617B69DF
:101F900003F003027B68DB6A9A4230D17B6903F06D
:101FA00070027B681B6B013B1B019A4227D17B6946
:101FB00003F4FE427B685B6B1B029A421FD17B6974
:101FC00003F400337A68926B072A14BF01220022BF
:101FD000D2B2934213D17B6903F4C0027B68DB6BFE
:101FE0005B08013B5B059A4209D17B6903F0C06243
:101FF0007B681B6C5B08013B5B069A426ED0BB6939
:102000000C2B69D0534B1B6803F08063002B05D168
:10201000504B1B6803F08053002B01D00123ADE02F
:102020004C4B1B684B4A23F08073136000F078FE22
:10203000386108E000F074FE02463B69D31A022BB7
:1020400001D903239AE0434B1B6803F00073002B74
:10205000F0D1404BDA68404B13407A68D16A7A6815
:10206000126B013A120111437A68526B120211434A
:102070007A68D26B5208013A520511437A68126CA1
:102080005208013A520611437A68926B12095204BF
:102090000A4330491343CB602E4B1B682D4A43F053
:1020A000807313602B4BDB682A4A43F08073D36044
:1020B00000F036FE386108E000F032FE02463B696F
:1020C000D31A022B01D9032358E0224B1B6803F0DB
:1020D0000073002BF0D050E001234FE01D4B1B6834
:1020E00003F00073002B48D11A4B1B68194A43F0C8
:1020F00080731360174BDB68164A43F08073D3601C
:1021000000F00EFE386108E000F00AFE02463B696E
:10211000D31A022B01D9032330E00E4B1B6803F0C6
:102120000073002BF0D028E0BB690C2B23D0094BA7
:102130001B68084A23F08073136000F0F1FD3861DA
:102140000CE000F0EDFD02463B69D31A022B05D9E5
:10215000032313E0001002408C809DF9094B1B689B
:1021600003F00073002BECD1064BDA680549064BEF
:102170001340CB6001E0012300E000231846203724
:10218000BD4680BD00100240FCFFEEFE80B584B06D
:1021900000AF786039607B68002B01D10123E7E054
:1021A000754B1B6803F007033A689A4210D9724BCB
:1021B0001B6823F0070270493B6813430B606E4BAA
:1021C0001B6803F007033A689A4201D00123CFE06D
:1021D0007B681B6803F00203002B10D07B689A68B1
:1021E000664B9B6803F0F0039A4208D9634B9B68E7
:1021F00023F0F0027B689B68604913438B607B6827
:102200001B6803F00103002B4CD07B685B68032B39
:1022100007D15A4B1B6803F00073002B21D1012317
:10222000A6E07B685B68022B07D1544B1B6803F464
:102230000033002B15D101239AE07B685B68002BEB
:1022400007D14E4B1B6803F00203002B09D1012379
:102250008EE04A4B1B6803F48063002B01D10123FD
:1022600086E0464B9B6823F003027B685B6843492A
:1022700013438B6000F054FDF8600AE000F050FD5D
:102280000246FB68D31A41F28832934201D90323F4
:102290006EE03A4B9B6803F00C027B685B689B0026
:1022A0009A42EBD17B681B6803F00203002B10D02D
:1022B0007B689A68314B9B6803F0F0039A4208D21E
:1022C0002E4B9B6823F0F0027B689B682B491343DD
:1022D0008B60294B1B6803F007033A689A4210D2BF
:1022E000254B1B6823F0070223493B6813430B600F
:1022F000214B1B6803F007033A689A4201D001237F
:1023000036E07B681B6803F00403002B08D01B4BEE
:102310009B6823F4E0627B68DB68184913438B6099
:102320007B681B6803F00803002B09D0134B9B68E4
:1023300023F460527B681B69DB00104913438B60F8
:1023400000F024F802460D4B9B681B0903F00F03B5
:102350000B49CB5C03F01F0322FA03F3094A136015
:10236000094B1B68184600F08BFC0346FB72FB7A96
:1023700018461037BD4680BD0020024000100240C4
:1023800004970008000000200400002080B489B0F9
:1023900000AF0023FB610023BB613E4B9B6803F051
:1023A0000C033B613B4BDB6803F00303FB603B69C1
:1023B000002B05D03B690C2B21D1FB68012B1ED1D2
:1023C000344B1B6803F00803002B07D1314BD3F8C3
:1023D00094301B0A03F00F03FB6105E02D4B1B68D3
:1023E0001B0903F00F03FB612B4AFB6952F82330F2
:1023F000FB613B69002B0DD1FB69BB610AE03B69C6
:10240000042B02D1254BBB6104E03B69082B01D1B1
:10241000234BBB613B690C2B34D11E4BDB6803F0B3
:102420000303BB60BB68022B03D0BB68032B03D044
:1024300005E01A4B7B6105E0194B7B6102E0FB690B
:102440007B6100BF134BDB681B0903F007030133FB
:102450007B60104BDB681B0A03F07F037A6903FB88
:1024600002F27B68B2FBF3F37B610A4BDB685B0E25
:1024700003F0030301335B003B607A693B68B2FB06
:10248000F3F3BB61BB6918462437BD465DF8047B96
:10249000704700BF00100240149700080024F400A9
:1024A00000127A0080B586B000AF786000233B61EF
:1024B0002A4B9B6D03F08053002B03D0FFF726FAC5
:1024C000786114E0254B9B6D244A43F0805393655B
:1024D000224B9B6D03F08053FB60FB68FFF716FAFD
:1024E00078611E4B9B6D1D4A23F0805393657B6979
:1024F000B3F5007F0BD17B68802B19D97B68A02BAB
:1025000002D902233B6113E001233B6110E07B68A9
:10251000802B02D903233B610AE07B68802B02D128
:1025200002233B6104E07B68702B01D101233B61F6
:102530000B4B1B6823F0070209493B6913430B60EF
:10254000074B1B6803F007033A699A4201D0012345
:1025500000E0002318461837BD4680BD0010024039
:102560000020024080B584B000AF78607B68002B0B
:1025700001D1012395E07B685B6A002B08D17B6861
:102580005B68B3F5827F09D07B680022DA6105E0E1
:102590007B6800221A617B6800225A617B680022F6
:1025A0009A627B6893F85D30DBB2002B06D17B68C2
:1025B000002283F85C207868FEF74EFD7B680222DB
:1025C00083F85D207B681B681A687B681B6822F0B3
:1025D00040021A607B68DB68B3F5E06F02D9002324
:1025E000FB6002E04FF48053FB607B68DB68B3F56F
:1025F000706F07D07B68DB68B3F5E06F02D07B6853
:1026000000229A627B685B6803F482727B689B6835
:1026100003F404431A437B681B6903F002031A4363
:102620007B685B6903F001031A437B689B6903F4D1
:1026300000731A437B68DB6903F038031A437B6835
:102640001B6A03F0800342EA03017B689B6A03F480
:1026500000527B681B680A431A607B689B691B0CED
:1026600003F004027B685B6A03F010031A437B6883
:102670005B6B03F008031A437B68DB6803F4706349
:1026800042EA0301FB6803F480527B681B680A433B
:102690005A607B6800221A667B68012283F85D20FD
:1026A000002318461037BD4680BD80B588B000AF06
:1026B000F860B9603B601346FB800023FB77FB6842
:1026C00093F85C30012B01D1022358E1FB68012211
:1026D00083F85C2000F024FBB861FB88FB82FB6878
:1026E00093F85D30DBB2012B02D00223FB773DE192
:1026F000BB68002B02D0FB88002B02D10123FB77A3
:1027000034E1FB68032283F85D20FB6800221A662F
:10271000FB68BA689A63FB68FA889A87FB68FA884C
:10272000DA87FB6800221A64FB680022A3F84420C1
:10273000FB680022A3F84620FB6800221A65FB68AC
:102740000022DA64FB689B68B3F5004F0FD1FB6889
:102750001B681A68FB681B6822F040021A60FB685D
:102760001B681A68FB681B6842F480421A60FB68A9
:102770001B681B6803F04003402B07D0FB681B68F5
:102780001A68FB681B6842F040021A60FB68DB684D
:10279000B3F5E06F4BD9FB685B68002B02D0FB8A76
:1027A000012B3ED1FB689B6B1A88FB681B68DA60C3
:1027B000FB689B6B9A1CFB689A63FB68DB8F9BB280
:1027C000013B9AB2FB68DA872BE0FB681B689B68C9
:1027D00003F00203022B12D1FB689B6B1A88FB6883
:1027E0001B68DA60FB689B6B9A1CFB689A63FB684A
:1027F000DB8F9BB2013B9AB2FB68DA8711E000F0F5
:102800008FFA0246BB69D31A3A689A4203D83B68EA
:10281000B3F1FF3F02D13B68002B02D10323FB77CA
:10282000A4E0FB68DB8F9BB2002BCED17CE0FB6881
:102830005B68002B02D0FB8A012B70D1FB68DB8F19
:102840009BB2012B12D9FB689B6B1A88FB681B6833
:10285000DA60FB689B6B9A1CFB689A63FB68DB8FF2
:102860009BB2023B9AB2FB68DA8758E0FB689A6B2E
:10287000FB681B680C3312781A70FB689B6B5A1C40
:10288000FB689A63FB68DB8F9BB2013B9AB2FB68E3
:10289000DA8744E0FB681B689B6803F00203022BA5
:1028A0002BD1FB68DB8F9BB2012B12D9FB689B6B92
:1028B0001A88FB681B68DA60FB689B6B9A1CFB68D4
:1028C0009A63FB68DB8F9BB2023B9AB2FB68DA87A4
:1028D00025E0FB689A6BFB681B680C3312781A7052
:1028E000FB689B6B5A1CFB689A63FB68DB8F9BB28F
:1028F000013B9AB2FB68DA8711E000F011FA024658
:10290000BB69D31A3A689A4203D83B68B3F1FF3FD8
:1029100002D13B68002B02D10323FB7726E0FB6842
:10292000DB8F9BB2002BB5D1BA693968F86800F02B
:1029300049F90346002B02D0FB6820221A66FB6887
:102940009B68002B0AD100233B61FB681B68DB6896
:102950003B61FB681B689B683B613B69FB681B6EC6
:10296000002B02D00123FB7700E000BFFB680122AF
:1029700083F85D20FB68002283F85C20FB7F18460B
:102980002037BD4680BD000080B588B000AFF8603C
:10299000B9603B601346FB7100F0C2F90246BB6AA6
:1029A0009B1A3A681344FB6100F0BAF9B861394BDD
:1029B0001B685B011B0DFA6902FB03F37B6154E0AA
:1029C0003B68B3F1FF3F50D000F0AAF90246BB6963
:1029D000D31AFA699A4202D9FB69002B3DD1FB68F0
:1029E0001B685A68FB681B6822F0E0025A60FB68AB
:1029F0005B68B3F5827F11D1FB689B68B3F5004F2C
:102A000004D0FB689B68B3F5806F07D1FB681B6837
:102A10001A68FB681B6822F040021A60FB689B6A18
:102A2000B3F5005F0FD1FB681B681A68FB681B6871
:102A300022F400521A60FB681B681A68FB681B6866
:102A400042F400521A60FB68012283F85D20FB68A3
:102A5000002283F85C20032317E07B69002B01D15F
:102A60000023FB617B69013B7B61FB681B689A6803
:102A7000BB681340BA689A420CBF01230023DBB243
:102A80001A46FB799A429BD1002318462037BD464F
:102A900080BD00BF0000002080B58AB000AFF860A4
:102AA000B9607A603B600023FB7500F039F902469B
:102AB0003B6B9B1A3A6813447B6200F031F9386231
:102AC000FB681B680C33FB613D4B1A6813469B0087
:102AD0001344DA00D31A1B0D7A6A02FB03F3BB61BD
:102AE00060E0BB68B3F5C06F07D17B68002B04D1F1
:102AF000FB691B78DBB2FB75FB7D3B68B3F1FF3FE5
:102B000050D000F00DF902463B6AD31A7A6A9A4215
:102B100002D97B6A002B3DD1FB681B685A68FB68B1
:102B20001B6822F0E0025A60FB685B68B3F5827FA5
:102B300011D1FB689B68B3F5004F04D0FB689B681C
:102B4000B3F5806F07D1FB681B681A68FB681B68C8
:102B500022F040021A60FB689B6AB3F5005F0FD158
:102B6000FB681B681A68FB681B6822F400521A6035
:102B7000FB681B681A68FB681B6842F400521A6005
:102B8000FB68012283F85D20FB68002283F85C204B
:102B9000032310E0BB69002B01D100237B62BB69DA
:102BA000013BBB61FB681B689A68BB6813407A688D
:102BB0009A4296D1002318462837BD4680BD00BFF3
:102BC0000000002080B586B002AFF860B9607A607E
:102BD0007B680093BB6800224FF4C051F868FFF790
:102BE0005BFF0346002B07D0FB681B6E43F02002FF
:102BF000FB681A66032327E07B680093BB6800220A
:102C00008021F868FFF7C0FE0346002B07D0FB6861
:102C10001B6E43F02002FB681A66032314E07B68F6
:102C20000093BB6800224FF4C061F868FFF734FFDF
:102C30000346002B07D0FB681B6E43F02002FB68A5
:102C40001A66032300E0002318461037BD4680BDF6
:102C500080B582B000AF0023FB710320FEF760FC5B
:102C60000F2000F00DF80346002B02D00123FB716A
:102C700001E0FEF753FAFB7918460837BD4680BDE0
:102C800080B584B000AF78600023FB73174B1B78CE
:102C9000002B23D0164B1A68144B1B7819464FF49F
:102CA0007A73B3FBF1F3B2FBF3F31846FEF75FFC64
:102CB0000346002B0FD17B680F2B09D800227968BF
:102CC0004FF0FF30FEF737FC0A4A7B68136007E0DD
:102CD0000123FB7304E00123FB7301E00123FB7379
:102CE000FB7B18461037BD4680BD00BF08000020A2
:102CF000000000200400002080B400AF064B1B78C9
:102D00001A46064B1B681344044A136000BFBD46B5
:102D10005DF8047B704700BF0800002068A2002017
:102D200080B400AF034B1B681846BD465DF8047BBA
:102D3000704700BF68A2002080B584B000AF786003
:102D4000FFF7EEFFB8607B68FB60FB68B3F1FF3F05
:102D500005D00A4B1B781A46FB681344FB6000BF82
:102D6000FFF7DEFF0246BB68D31AFA689A42F7D82B
:102D700000BF00BF1037BD4680BD00BF0800002067
:102D800080B483B000AF786039607B681A887B6854
:102D90009B79DB08DBB29BB212FB03F39AB27B6830
:102DA0009A807B689B881A467B685B8802FB03F3EA
:102DB0001A467B689A607B683A68DA6000BF0C3715
:102DC000BD465DF8047B704780B582B000AF786087
:102DD000396078683B6806330822194600F0A6FC83
:102DE0003B689A7B7B685A723B68DA7B7B689A7295
:102DF0003B681A7C7B68DA72002318460837BD46A8
:102E000080BD80B58EB000AFF860B9607A6007F120
:102E1000140379681846FFF7D7FF034687F82B306D
:102E200097F82B30002B02D097F82B3077E07A7F81
:102E3000FB681A70BA7FFB685A707B7F0733002BE0
:102E400000DA0733DB10DAB2FB68DA70FB68DA7895
:102E5000BB7F12FB03F3DAB2FB689A70FB7F002B97
:102E60000FD1BB68FF2B59D8FB689B781A46BB680B
:102E700002FB03F311337A681A44FB685A6000239B
:102E80004DE07B681233FB6200237B637B68113368
:102E90001B783B633DE0FB6A1B781A46FB6A0133F3
:102EA0001B781B0213447B62FB6A02331B781A46B1
:102EB000FB6A03331B781B0213443B62BA687B6ACC
:102EC0009A421CD3BA683B6A9A4218D8BA687B6A9D
:102ED000D31A7A6B13447B637B6811331B789B0096
:102EE0001A46FB689B7819467B6B01FB03F313447E
:102EF00012337A681A44FB685A6000230FE03A6A7A
:102F00007B6AD21A7B6B134401337B63FB6A043305
:102F1000FB623B6B5A1E3A63002BBCD1012318465F
:102F20003837BD4680BD000080B582B000AF034693
:102F3000FB800B46BB8013467B80B7F90630124AF4
:102F4000128893421ADBB7F904300F4A5288934231
:102F500014DBB7F906300C4A9288934210DCB7F9BB
:102F60000430094AD28893420ADCB7F90630B7F92F
:102F700004107A881846FDF74BFF02E000BF00E01E
:102F800000BF0837BD4680BD0C00002090B5ADF5F0
:102F9000815D85B000AF07F1300444F8240C0C4685
:102FA0001046194607F13003224623F8262C07F174
:102FB0003003024623F8282C07F130030A4623F891
:102FC0002A2C07F13003194607F1100307F5825246
:102FD000126851F8241C1846FFF713FF034607F543
:102FE000815202F10902137007F5815303F10903BD
:102FF0001B78002B01D00023C0E007F1300313F849
:10300000203C9AB207F1300323F8182C07F1300363
:1030100013F81F3C9AB207F1300323F8162C07F17E
:103020003003102203F8122C07F13002083A07F19E
:103030003003183B11461846FFF7A2FE07F1300394
:1030400053F80C3C07F5815202F10C021360002387
:1030500007F5815202F10B02137071E0002307F5AE
:10306000815202F10A02137047E007F1300353F86E
:103070001C3C1B785AB207F5815303F10A031B78F5
:1030800003F00703802141FA03F35BB213405BB204
:1030900007F5815202F10802137007F5815303F11D
:1030A00008031B78002B10D007F5815303F10C03A4
:1030B0001B689A1C07F5815101F10C010A6007F1A8
:1030C000300232F82A2C1A800CE007F5815303F104
:1030D0000C031B689A1C07F5815101F10C010A6071
:1030E00000221A8007F5815303F10A031B7801338C
:1030F00007F5815202F10A02137007F1300313F849
:10310000203C07F5815202F10A0212789A42ACD3B0
:1031100007F1300353F81C3C07F1300212F81D2C64
:10312000134407F1300242F81C3C07F5815303F1C8
:103130000B031B78013307F5815202F10B02137068
:1031400007F1300313F81F3C07F5815202F10B021F
:1031500012789A4282D307F13003183B07F130020C
:1031600032F9281C07F1300232F9260C1A4600F019
:103170005AF807F1300333F8183CDBB2184607F56C
:1031800081571437BD4690BD80B58CB002AFF86052
:10319000084611461A4603467B810B463B8113467F
:1031A000FB807B89FB8407F11403396B1846FFF71A
:1031B0000BFE034687F8253097F82530002B01D009
:1031C00000232CE0FB681A1DFA601B683B623B6A17
:1031D0000D2B02D03B6A0A2B08D100237B81BB7FD9
:1031E0009AB23B8913449BB23B8110E0F888B7F94F
:1031F0000820B7F90A103B6B00930346386AFFF7C3
:10320000C5FE03469AB27B8913449BB27B81FB685F
:103210001B68002BD6D17A89FB8CD31A9BB2184637
:103220002837BD4680BD80B586B000AF03463A6002
:10323000FB800B46BB803B68DB687B6100237B82A5
:1032400020E000233B8215E07B699A1C7A611B8891
:10325000FB81FA883B8A13449BB218B2BA887B8AF6
:1032600013449BB21BB2FA891946FFF75DFE3B8AF5
:1032700001333B823B681B883A8A9A42E4D37B8ABB
:1032800001337B823B685B887A8A9A42D9D300BF3C
:1032900000BF1837BD4680BD014B1868704700BF9E
:1032A000140000208A892DE9F041054610070C46DC
:1032B00058D44B68002B05DC0B6C002B02DC002083
:1032C000BDE8F081E66A002EF9D0002312F48052A6
:1032D0002F682B6032D0606DA3895A0705D56368CB
:1032E000C01A636B0BB1236CC01A00230246E66A56
:1032F000216A2846B047431CA38906D129681D29A5
:103300002CD82A4ACA40D60728D500226260D904A0
:103310002269226004D5421C01D12B6803B9606583
:10332000616B2F600029CAD004F14403994202D096
:10333000284600F011FA00206063C1E7216A0123EA
:103340002846B047411CC7D12B68002BC4D01D2B89
:1033500001D0162B01D12F60B1E7A38943F04003C0
:10336000A381ADE70F69002FA9D093070E6808BFAE
:103370004B690F6018BF0023A6EB07088B60B8F1FC
:10338000000F9CDD216AA66A43463A462846B047AC
:10339000002806DCA38943F04003A3814FF0FF30EF
:1033A0008EE70744A8EB0008E9E700BF01004020D2
:1033B00038B50B6905460C4613B90025284638BDBB
:1033C00018B183690BB900F087F8144B9C421BD1EC
:1033D0006C68B4F90C30002BEFD0626ED00704D4C7
:1033E000990502D4A06D00F03AF928462146FFF76E
:1033F00059FF636EDA070546E0D4A3899B05DDD447
:10340000A06D00F02DF9D9E7054B9C4201D1AC68C5
:10341000DFE7044B9C4208BFEC68DAE764970008DA
:103420008497000844970008002310B50446C0E9BB
:103430000033C0E90433836081814366C2818361C4
:10344000194608225C3000F07FF9054B6362054B9A
:10345000A362054BE362054B2462236310BD00BFEA
:10346000393900085B39000893390008B73900087A
:10347000014900F0AFB800BFB133000870B5682251
:103480004D1E55430E4605F1740100F0D1F9044676
:1034900040B10021C0E900160C30A06005F16802BF
:1034A00000F052F9204670BD014800F0D8B800BFC6
:1034B0006DA20020014800F0D3B800BF6DA200202B
:1034C000014800F0CCB800BF6EA20020014800F017
:1034D000C7B800BF6EA2002010B50446FFF7F0FF8A
:1034E000A3691BB1BDE81040FFF7F0BFC4E9123378
:1034F0002365134B134A1B68A262A34204BF012336
:10350000A361204600F020F86060204600F01CF81F
:10351000A060204600F018F80022E06004216068F6
:10352000FFF782FFA06801220921FFF77DFFE06815
:1035300002221221FFF778FF0123A361D2E700BF27
:10354000A497000871340008F8B50746FFF7ACFFF0
:103550001E4B1E68B36913B93046FFF7BDFF4836EE
:10356000D6E90134013B03D533680BB33668F7E77E
:10357000B4F90C50D5B9164BE36004F158006566F8
:1035800000F06CF8FFF796FFC4E90155C4E9045553
:103590002560A5610822294604F15C0000F0D4F8FA
:1035A000C4E90D55C4E912552046F8BD6834D9E781
:1035B00004213846FFF762FF044630600028D5D169
:1035C000FFF778FF0C233B60EEE700BFA4970008ED
:1035D0000100FFFF2DE9F8430646884600F1480444
:1035E0000027D4E90195B9F1010905D52468002C1B
:1035F000F7D13846BDE8F883AB89012B07D9B5F977
:103600000E30013303D029463046C04707436835A2
:10361000E9E7000070B50D4D0D4C641BA4100026A9
:10362000A64209D10B4D0C4C02F0D2FF641BA41032
:103630000026A64205D170BD55F8043B98470136D7
:10364000EEE755F8043B98470136F2E7BC9C0008CA
:10365000BC9C0008BC9C0008C09C000870477047D8
:10366000704770B50E46B1F90E10002996B0144699
:103670001D4608DAB6F90C3000222A601A0610D46A
:103680004FF480630EE06A4600F0F0F90028F1DBA9
:10369000019A02F47042A2F500535A425A412A603C
:1036A000EEE740230020236016B070BD8B8973B510
:1036B0009D0706460C4607D504F1470323602361A6
:1036C0000123636102B070BD01AB6A46FFF7C9FF19
:1036D00000990546304600F0ABF848B9B4F90C3013
:1036E0009A05EFD423F0030343F00203A381E3E739
:1036F0000D4BB362A389206043F08003A381009B3C
:103700006361019B20615BB1B4F90E10304600F09B
:10371000BFF928B1A38923F0030343F00103A38178
:10372000A0890543A581CDE7713400080A44914280
:1037300000F1FF3300D1704710B511F8014B03F8C9
:10374000014F9142F9D110BD02440346934200D18A
:10375000704703F8011BF9E737B5002944D051F849
:10376000043C0190002BA1F10404B8BFE41800F060
:10377000B1F91E4A0198136833B96360146003B04D
:10378000BDE8304000F0ACB9A34208D92568611902
:103790008B4201BF19685B6849192160EDE71A4641
:1037A0005B680BB1A342FAD911685518A5420BD139
:1037B000246821445418A3421160E0D11C685B685E
:1037C000536021441160DAE702D90C230360D6E785
:1037D000256861198B4204BF19685B68636004BF88
:1037E000491921605460CAE703B030BD70A20020BF
:1037F00070B50E4E0C463168054611B900F08CF8D4
:1038000030602146284600F087F8431C0AD0C41CCB
:1038100024F00304A04207D0211A284600F07CF8C7
:10382000013001D14FF0FF34204670BD74A200205A
:103830002DE9F041CD1C25F0030508350C2D38BFCE
:103840000C25002D074601DBA94205D90C233B605E
:1038500000263046BDE8F0812E4E00F03BF933687B
:103860001C4634BB29463846FFF7C2FF431C0446BA
:103870004DD134682646002E40D123683146384663
:1038800004EB030800F048F880453AD1216803357D
:103890006D1A25F0030508350C2D38BF0C25294677
:1038A0003846FFF7A5FF01302BD023682B44236057
:1038B0000EE02268521B1ED40B2A16D96119A342AE
:1038C000256018BF5960636808BF316062514B6062
:1038D000384604F10B0600F003F926F00706231D15
:1038E000F21AB6D09B1BA350B3E76268A3420CBF89
:1038F00032605A60ECE723466468B2E73446766883
:10390000B9E70C233B60384600F0EAF8A1E72560F0
:10391000DEE700BF70A2002038B5064D0023044644
:1039200008462B60FDF7D8FC431C02D12B6803B17D
:10393000236038BD78A2002010B50C46B1F90E10F6
:1039400000F0D4F80028ABBF636DA3891B1823F4E3
:103950008053ACBF6365A38110BD2DE9F0411F46C4
:103960008B89DB0505460C46164605D5B1F90E10C8
:103970000223002200F09CF8A389B4F90E1023F46E
:103980008053A38132463B462846BDE8F04100F013
:103990004BB810B50C46B1F90E1000F089F8431C75
:1039A000A38915BF606523F4805343F48053A3813A
:1039B00018BFA38110BDB1F90E1000F047B8000088
:1039C0000CB430B5174BB1F1005F1D689DB00C46CB
:1039D00008D38B232B604FF0FF301DB0BDE8304083
:1039E00002B070474FF40273ADF8143002900690A5
:1039F000B1B14B1E9B00049307934FF6FF73ADF8D4
:103A00001630209A21AB02A92846019300F0F0F865
:103A1000002CDED0029B0022A0421A60DDD3D8E742
:103A20000B46E8E71400002038B5074D0446084669
:103A3000114600222A601A46FDF7FDFB431C02D105
:103A40002B6803B1236038BD78A2002038B5064D3D
:103A50000023044608462B60FDF709FC431C02D1F5
:103A60002B6803B1236038BD78A2002038B5074D1C
:103A700000230446084611462B60FDF704FC431C56
:103A800002D12B6803B1236038BD00BF78A20020AB
:103A900038B5064D0023044608462B60FDF703FCAD
:103AA000431C02D12B6803B1236038BD78A20020EB
:103AB00038B5074D04460846114600222A601A46CA
:103AC000FDF7FCFB431C02D12B6803B1236038BD1A
:103AD00078A200200148FFF7C2BD00BF6CA2002001
:103AE0000148FFF7BDBD00BF6CA2002038B5074DEF
:103AF00004460846114600222A601A46FDF77EFB5E
:103B0000431C02D12B6803B1236038BD78A200208A
:103B10002DE9F04F85B0002B1D461446BCBF03F1C4
:103B200000431446109A0E9EDDF844A0DDF84CB018
:103B3000B6BF1D4600232D231360129B23F02008DF
:103B4000B8F1460F05D0B8F1450F00D1013602217A
:103B500000E0032103AB019302AB009345EC104B53
:103B60005346324600F0ACFEB8F1470F074612D17B
:103B70000F9BDB070FD4039BDB1BCBF8003000232C
:103B8000DBF800209A4202DD159A93422ADB149852
:103B900005B0BDE8F08FB8F1460F07EB060910D16C
:103BA0003B78302B0AD10022002320462946FCF71F
:103BB00033FF18B9C6F10106CAF80060DAF8003020
:103BC00099440022002320462946FCF725FF08B12E
:103BD000CDF80C903022039B4B45CCD2591C03915D
:103BE0001A70F8E71499FA5C41F823200133C7E70B
:103BF0002DE9F04F2DED048BD3B01D4600238946EF
:103C0000199383460B9201F049FC03681B781693C5
:103C1000B9F80C301E061AD5D9F81030BBB94021BE
:103C20005846FFF705FEC9F80000C9F8100058B95A
:103C30000C23CBF800304FF0FF330D930D9853B0A9
:103C4000BDEC048BBDE8F08F4023C9F814309FED24
:103C50008E7B00230F9311930D93B0EE478AF0EE05
:103C6000678A0B9B1C4653F8042B0AB1252AF9D10D
:103C70000B9BA3420DD0E61A0B9A33464946584691
:103C800001F0C4FF013000F0E9800D9B03EBA603B7
:103C90000D932368002B00F0E1800021221D159177
:103CA0000E464FF0FF340C910F460A20134653F88E
:103CB000042B09920B93099B392B4CD81F2B4FD9FE
:103CC000099B203B192B4AD8DFE803F06B49497068
:103CD000494949494949736C497A7D49989B9B9B5D
:103CE0009B9B9B9B9B9B332B39D8DFE813F0E50014
:103CF0003800E50038003800380038009C003800F3
:103D000038003800380038003800380038003800F3
:103D1000380038001E0338003800380038003800FA
:103D200038003800380038003800A500D300E5001E
:103D3000E500E5009F00D30038003800A2003800FD
:103D400084029502B302A2003800C20238001203B6
:103D5000380038004200099B453B332BC3D911B1D1
:103D6000099B002B7AD0099B2A93002015900A9575
:103D700081E001B11596464B0F932A46F80652F89A
:103D8000043B0A9202D4790648BF9BB2FA0706D5D3
:103D90002BB130221A92099A1B9247F00207022295
:103DA00042E20EB9099E01210B9A7FE747F0010715
:103DB000FAE755F8043B0C93002BF5DA5B420C93C1
:103DC00047F00407F0E70B9A52F8043B09932A2BBB
:103DD00012D155F8044B0B9244EAE474E4E700FB7B
:103DE000043452F8043B0993099B303B092BF6D964
:103DF00044EAE4740B925EE70024F5E747F080079D
:103E0000D2E700230C930C9A099B00FB0233303B52
:103E10000C930B9B53F8042B0B93A2F13003092B4B
:103E20000992F0D947E747F00807BDE747F0400798
:103E3000BAE747F01007B7E701B115962B46FD0624
:103E400053F8040B0A9312D400F064FC441C0ED106
:103E5000B9F80C3043F04003A9F80C30B9F80C3035
:103E600013F0400F0D9B18BF4FF0FF33E5E62A908B
:103E700000202B90159080460124064605460DF142
:103E8000A80A04E1AFF30080000000000000000079
:103E90002C98000801B115962A46F90652F8043B01
:103EA0000A9202D47A0648BF1BB2002B02DA2D22F6
:103EB0005B4215920122B9E101B11596073525F053
:103EC0000703B3EC027B0A93B0EE478AF0EE678AF1
:103ED00018EE903A23F0004309EE903AB0EE479A7C
:103EE000A64B51EC190B4FF0FF32FCF749FEF0B92D
:103EF000A24B51EC190B4FF0FF32FCF7A1FDB0B90A
:103F000051EC180B00220023FCF790FD08B12D2383
:103F100015939B4B9B48099A27F08007472A94BF2B
:103F20009A4682464FF0000803244646D4E353ECF9
:103F3000182B51EC180BFCF723FE40B118EE903A09
:103F4000002BBCBF2D2315938F48904BE3E7631CD8
:103F500000F00F81099B23F02003472B02D1002C96
:103F600008BF012447F480730E932823079319ABED
:103F70000593099B04930E9B0DF1A80818AE17AD8D
:103F8000CDE90043CDF8188053EC182B0396029529
:103F90005846FFF7BDFD4045824640F0EC80199938
:103FA000282940F3E88089005846FFF741FC804605
:103FB00000283FF44DAF199B0295CDE9060319ABDC
:103FC0000593099BCDE903630E9B5846CDE9004359
:103FD00053EC182BFFF79CFD8246099B189D23F09C
:103FE0002003472B40F0D680EE1C199B02DBAC422D
:103FF00080F2EC80099B023B09936B1E002B099A0F
:104000001893B8BFC5F101031C92B4BF2D222B2217
:10401000092B1D9240F3D1802AA80A25024693FB62
:10402000F5F405FB1431303142F8041C19466329BC
:10403000A0F104002346F1DC303340F8043CA2F147
:1040400008011EA82AAB9942C0F0B2800DF1B3045A
:10405000A41A24F003040B3A934238BF00241EAB89
:104060001C441CA8241AA3101193199B012B03EBC9
:10407000A40402DC17F0010501D001340025179ECD
:10408000002E00F07E812D230E9F15930026A64260
:104090003346B8BF23460E93159B13B10E9B0133D5
:1040A0000E9317F0020312931EBF0E9B02330E9362
:1040B00017F08403139300F06681159B43B104232A
:1040C00015AA4946584601F0A1FD013000F06E8165
:1040D000129B43B108231AAA4946584601F096FD9F
:1040E000013000F06381139B802B13D10C9B0E9A3F
:1040F0009B1A002B10930DDD109B254A102B00F30B
:104100006A81234A9B004946584601F07FFD0130F1
:1041100000F04C81361B002E0CDD102E1C4A00F3E3
:1041200065811B4AB3004946584601F06FFD0130D6
:1041300000F03C81F90500F16281A3005246494636
:10414000584601F063FD013000F030817A0700F13C
:104150008182DDE90C230E998A42ACBF9B185B1863
:104160000D93B8F1000F55D041465846FFF7F4FAC9
:1041700050E00624F6E64FF000082EE7FFFFEF7F41
:10418000A8970008B8970008D8970008C8970008B3
:10419000B8980008099B662B7FF42FAF07F0010346
:1041A000002D43EA04030EDDFBB101342C4466E725
:1041B00051F8044B40F8044B45E7302213441E925B
:1041C0001F9320AC4DE793B1023458E7AB4205DCB6
:1041D000FC070ED56C1C6723099350E7002DD4BF54
:1041E000C5F1020401241C44F5E72C4647E70124ED
:1041F00045E72C46EFE701B115962B1DF8060A930B
:1042000003D52B680D9A1A6004E07906F9D52B685E
:104210000D9A1A800A9D24E52A4617F0100152F8DB
:10422000043B0A9211D0002200211591661C00F077
:104230002E8227F08001002B40F02D82002C00F010
:104240009880012A40F02A8275E017F04002EBD0F6
:104250009BB2E8E72A46782152F8043B0A923022C2
:10426000CDE91A219E4A0F9247F0020702220991D6
:10427000DAE72B46002653F804AB0A9317F0100533
:1042800015962DD1621C14D022462946504626464A
:10429000FCF71EFC08B1A0EB0A06272E0ED9711CF4
:1042A00089005846FFF7C4FA00283FF4D1AD804694
:1042B00007E05046FCF75CFC0646EEE74FF00008CE
:1042C0002AA834460023B34204D1002640F82360D4
:1042D0008246DCE61AF8032040F823200133F2E797
:1042E000631C11D022463146504600F004FA804645
:1042F00000283FF41AAEA0EB0A084FEAA80844458C
:10430000A8BF4446B04610E6504600F0EBF904461C
:10431000F8E72A46FE0652F8043B0A9201D501222C
:1043200082E77D0648BF9BB2F9E701B115966D4B58
:1043300022E5092B04D8303351930DF5A27AC3E15D
:104340000DF5A47A0A25B3FBF5F005FB10323032E7
:104350004AF8042D1A46092A0346F4D8B4E103F0BA
:104360000F020F981B0950F822204AF8042DF6D1AD
:10437000AAE11AB9F80701D53023DDE70DF5A47AD3
:10438000A2E10E9F83E60C9B0E9A9B1A002B1093C2
:104390007FF793AE109B102B11DC534A9B004946CC
:1043A000584601F033FC01307FF487AEB8F1000FBE
:1043B0003FF454AD41465846FFF7CEF94EE54A4A20
:1043C00040234946584601F021FC0130EED0109BB5
:1043D000103B1093DEE740234946584601F016FC97
:1043E0000130E3D0109B103B109385E640234946F3
:1043F000584601F00BFC0130D8D0103E8DE6099BE9
:10440000652B40F2E58051EC180B00220023FCF7ED
:1044100003FB58B3354A04234946584601F0F6FBDE
:104420000130C3D0DDE918239A4202DBFB077FF598
:104430008DAE042316AA4946584601F0E7FB013029
:10444000B4D0199C013C002C7FF780AE284D102C75
:1044500002DCA300264A72E640232A464946584613
:1044600001F0D4FB0130A1D0103CF0E7189B002BE9
:1044700040DC1E4A04234946584601F0C7FB013080
:1044800094D0DDE91832134307F0010213433FF4DF
:104490005DAE042316AA4946584601F0B7FB013029
:1044A00084D0189C002C0CDA114D6442102C0BDCCB
:1044B0000F4AA3004946584601F0A8FB01303FF4DB
:1044C00075AF199B9B0039E640232A46494658465A
:1044D00001F09CFB01303FF469AF103CE6E700BF00
:1044E0002C980008E8970008789800087098000851
:1044F000B8980008199C44F31D04AC42A8BF2C4690
:10450000002C20DC002CACBF2E1B2E46002E0BDD19
:10451000724C102E20DC714AB3004946584601F017
:1045200075FB01303FF442AFDDE918239A424FEAB0
:1045300085051CDA042316AA4946584601F066FB95
:10454000013016D132E7A30052464946584601F0E1
:104550005DFB0130D6D129E7402322464946584623
:1045600001F054FB01303FF421AF103ED1E7FE07CC
:10457000E0D4199BC5EB8304A210189C1C1B944229
:10458000A8BF1446002C09DDA3000AEB050249462A
:10459000584601F03BFB01303FF408AFDDE9183528
:1045A000002CA5EB0305A8BF2D1B002D7FF7CEAD7A
:1045B0004A4C102D01DCAB004CE740232246494613
:1045C000584601F023FB01303FF4F0AE103DF0E718
:1045D000199B012B52464FF004034946584601DC13
:1045E000FC071BD501F012FB01303FF4DFAE0423C2
:1045F00016AA4946584601F009FB01303FF4D6AEF1
:10460000199C51EC180B00220023013CFCF704FA22
:1046100068B9A3000AF104024946584601F0F6FAC7
:1046200001303FF4C3AE119B1CAA9B0087E5002C10
:10463000F9DD2A4D102C02DC284AA300ECE74023C8
:104640002A464946584601F0E1FA01303FF4AEAE41
:10465000103CEFE70C9B0E9A9C1A002C7FF779AD6B
:10466000102C09DC1E4AA3004946584601F0CEFA38
:1046700001307FF46EAD99E6194A40234946584609
:1046800001F0C4FA01303FF491AE103CE8E739463E
:10469000002B3FF4D6AD012A3FF44BAE022A0DF5B4
:1046A000A47A3FF45CAE03F007023032DB085046D8
:1046B0004AF8042DF7D1CD0706D5302A04D030238F
:1046C0004AF8043CA0F1080A52AB2646A3EB0A04C0
:1046D000A4100F464FF000084546D8E4B8980008EB
:1046E0007898000802461346043219680029FAD166
:1046F000181A8010704730B500249442034602D146
:104700000023184630BD1D688D4200F10400F8D02A
:104710000134F2E7F0B5431C87B003D14FF0FF300E
:1047200007B0F0BD1C4D8DF80B0004AE082200212F
:104730003046FFF709F82F68BC6DFCB9502000F037
:10474000B1FE0246B86520B9144B1548182101F096
:1047500059FC2B689B6DC3E90044C3E90244C3E9DB
:104760000444C3E90A44C3E90C44C3E90E44C3E961
:104770001044C3E912449C611C775C62094B0096AB
:10478000D3F8E440286801230DF10B0203A9A047E8
:104790000128C3D80398C3E714000020F898000844
:1047A0000F990008780000202DE9F74F03690C6984
:1047B000A3420746C0F28180013C01F1140800F1D8
:1047C000140505EB8403019358F8243055F8242090
:1047D00001339A424FEA840B08EB8409B2FBF3F6EB
:1047E00031D34FF0000E4046AC46F24650F8042B51
:1047F00093B206FB03E34FEA134E9BB2AAEB03030B
:10480000DCF800A0120C13FA8AF306FB02E2009314
:10481000009B4FEA124E92B2C2EB1A4202EB2342C5
:10482000BDF80030814543EA02434CF8043B4FEAAF
:10483000224ADBD255F80B302BB9019B043B9D4239
:104840001A462ED33C61384601F0C8F8002824DB14
:10485000013628464FF0000C58F8042BD0F800E041
:1048600093B2ACEB0303120C13FA8EF3C2EB1E42AD
:1048700002EB23429BB243EA0243C14540F8043BAA
:104880004FEA224CE8D255F8242005EB840322B9E4
:10489000043B9D421A460AD33C61304603B0BDE852
:1048A000F08F1268043B002ACCD1013CC7E71268A4
:1048B000043B002AF0D1013CEBE70020EEE70000CA
:1048C0002DE9F04F2DED048B57EC106B93B0456A3A
:1048D000DDF88080069110EE10AA044609920C9330
:1048E000BB4675B9102000F0DDFD0246606220B9BC
:1048F000A74BEA21A74801F085FBC0E901550560F7
:10490000C560636A196851B15A684A6001239340CF
:104910008B60204600F020FE636A00221A603B1E76
:10492000AABF002323F0004BC8F800309A4BBCBF4D
:104930000122C8F8002033EA0B031BD10C9A42F283
:104940000F731360CBF31303334300F09285219B65
:1049500063B9924B22E0924B01930833219A136082
:10496000019813B0BDEC048BBDE8F08F8B4B019325
:104970000333F3E70022002350465946FCF74CF876
:104980004BEC19AB804658B10C9A01231360219B64
:10499000002B00F06B8583481860431E0193DFE70E
:1049A0004BEC10AB10AA11A9204601F0BDF8CBF3D7
:1049B0000A5508EE100A002D00F0848019EE903A96
:1049C000C3F3130343F07F57564647F44017A5F24D
:1049D000FF35CDF83880744B002230463946FBF75E
:1049E000FBFB65A3D3E90023FBF7AEFD64A3D3E98A
:1049F0000023FBF7F3FB064628460F46FBF73AFD7C
:104A000061A3D3E90023FBF79FFD02460B46304626
:104A10003946FBF7E3FB06460F46FCF72FF800226A
:104A20000090002330463946FCF700F850B100985A
:104A3000FBF720FD32463B46FBF7EEFF10B9009B2B
:104A4000013B0093009B162B5AD8009A574B03EB5F
:104A5000C203D3E9002351EC190BFBF7E7FF002851
:104A600050D0009B013B009300230B93109B5D1BD8
:104A70006B1E059345BFC5F101030493002300237A
:104A80004CBF05930493009B002B3DDB059B009AD4
:104A90000A921344059300230793069B092B00F207
:104AA0008980052BC4BF043B0693069BA3F1020338
:104AB000CCBF00250125032B00F28780DFE803F03F
:104AC0002D3A3859DDE910531D4405F23243202BAD
:104AD000C1BFC3F1400305F212400BFA03F326FAFB
:104AE00000F0DABFC3F1200306FA03F01843FBF726
:104AF000B1FC01230646A1F1F877013D0E936AE768
:104B00000123B2E70B90B1E7049B009A9B1A049330
:104B10005342079300230A93BFE700230893099B9E
:104B2000002B55DC0123CDE902331A4609920CE033
:104B30000123F3E70023099A0893009B134402938F
:104B40000133012B0393B8BF0123606A0022426046
:104B5000042202F114069E4241683DD9204600F02D
:104B6000BBFC019000283BD1114B02464FF4D5719C
:104B7000C0E60123DFE700BF61436F63A787D23F31
:104B8000B3C8608B288AC63FFB799F501344D33F3C
:104B9000F89800087A9900080000F07F74990008DE
:104BA0006B990008799900080000F83F789A00088E
:104BB000D599000801250023069308954FF0FF338F
:104BC000CDE9023300221223B0E701230893F5E771
:104BD000099BCDE90233B8E7013141605200B8E7E3
:104BE000636A019A1A60039B0E2B00F29D80002DD0
:104BF00000F09A80009B002B32DDB74A03F00F03D0
:104C000002EBC303D3E90089009BD8054FEA2317C1
:104C100016D5B24B51EC190BD3E90823FBF7BEFDB7
:104C200007F00F0782468B460325AC4E57B9424624
:104C30004B4650465946FBF7B1FD82468B4628E06D
:104C40000225F2E7F90708D540464946D6E9002390
:104C5000FBF77AFC0135804689467F100836E5E788
:104C600000F09B80009B9D4F5E429B4B06F00F0225
:104C700003EBC203D3E9002351EC190BFBF764FCEF
:104C8000361182468B4600230225002E7AD1002B56
:104C9000D3D10B9B002B00F08280914B0022504619
:104CA0005946FBF7C3FE002879D0039B002B76D032
:104CB000029B002B36DD009B504659465F1E0022AA
:104CC000884BFBF741FC029E82468B460135284605
:104CD000FBF7D0FB52465B46FBF736FC824B0022CB
:104CE000FBF77CFAD046D9468246A1F1507B002ED4
:104CF00058D17E4B002240464946FBF76DFA52469A
:104D00005B4680468946FBF7AFFE002840F095825F
:104D100052460BF1004340464946FBF787FE002808
:104D200040F089825BEC19AB119B002BC0F24881EB
:104D3000009A0E2A00F34481674B03EBC203D3E9C8
:104D40000089099B002B80F2D580039B002B00F388
:104D5000D18040F06F82654B002240464946FBF708
:104D6000F3FB52465B46FBF775FE039E3746002871
:104D700040F04582019D312305F8013B009B013342
:104D8000009340E2F20705D5D7E90023FBF7DCFBEF
:104D9000013501237610083777E7022579E7009F70
:104DA000039E94E701994C4B31440D91089903EB14
:104DB000C60353E90223002943D04D490020FBF7E5
:104DC000EDFC52465B46FBF707FA019D82468B4697
:104DD00049464046FBF752FE0646FBF74BFB0246B0
:104DE0000B4640464946FBF7F7F9303605F8016BAC
:104DF00052465B4680468946FBF718FE002863D181
:104E000042464B4636490020FBF7E6F952465B46E0
:104E1000FBF70CFE002840F0B5800D9B9D4281D031
:104E2000304B002250465946FBF78EFB2D4B8246F5
:104E30008B46404649460022FBF786FB8046894662
:104E4000C6E750465946FBF77FFB0D9B019D0F932C
:104E500082468B4649464046FBF710FE0646FBF766
:104E600009FB303602460B4640464946FBF7B4F98B
:104E700005F8016B0D9B9D42804689464FF000026C
:104E800024D11B4B50465946FBF7A8F902460B4666
:104E900040464946FBF7E8FD002873D152465B4681
:104EA00013490020FBF798F902460B464046494655
:104EB000FBF7BCFD00283FF435AF0F9D6B1E0F9331
:104EC00015F8013C302BF8D0009749E0054BFBF773
:104ED0003BFB80468946BDE7789A0008509A000857
:104EE0000000F03F0000244000001C40000014407F
:104EF0000000E03F019D56465F4642464B46304625
:104F00003946FBF74BFCFBF7B9FD8246FBF7B2FADB
:104F100042464B46FBF718FB02460B4630463946E5
:104F20000AF13006FBF758F905F8016B019E039F63
:104F3000AE1BB74202460B4635D1FBF74FF942464E
:104F40004B4606460F46FBF78FFDD0B942464B460F
:104F500030463946FBF760FD10B11AF0010F10D151
:104F6000204618EE101A00F0F7FA002300982B7074
:104F70000C9B01301860219B002B3FF4F1AC1D60AD
:104F8000EEE4009F2B461D4613F8012D392A06D169
:104F9000019A9A42F7D10199302201370A701A78A2
:104FA00001321A7090E7A64B0022FBF7CDFA0022DF
:104FB000002306460F46FBF72FFD00289DD0CFE7C4
:104FC000089A002A00F0D780069A012A00F3BA80D6
:104FD0000E9A002A00F0B28003F23343079E049D2C
:104FE000049A1A440492059A01211A442046059213
:104FF00000F06AFB0746002D0CDD059B002B09DD48
:10500000AB42049AA8BF2B46D21A0492059AED1A15
:10501000D31A0593079B1BB3089B002B00F0AF80AE
:10502000002E13DD39463246204600F00DFC18EE06
:10503000102A01460746204600F05CFB18EE101AC5
:105040008046204600F088FA08EE108A079B9A1BDB
:1050500006D018EE101A204600F0F6FB08EE100AF3
:105060000121204600F030FB0A9B002B064640F34E
:1050700088801A460146204600F0E6FB069B012B7D
:10508000064640F381804FF00008336906EB830346
:10509000186900F0C9FAC0F12000059B184410F00F
:1050A0001F0000F09280C0F12003042B40F38A809F
:1050B000C0F11C00049B03440493059B0344054476
:1050C0000593049B002B07DD18EE101A1A462046A4
:1050D00000F014FC08EE100A059B002B05DD31469C
:1050E0001A46204600F00AFC06460B9B002B6ED0A9
:1050F00018EE100A314600F071FC002867DA009BB8
:10510000013B18EE101A00930A220023204600F0FB
:1051100045FA089B08EE100A002B00F0B18100232D
:1051200039460A22204600F039FA029B002B074636
:1051300000F38E80069B022B51DC89E0109BC3F1AB
:1051400036034BE7039B5E1E079BB342BFBF079B23
:105150000796F21A0A9BB6BF9B189E1B0A93039BE5
:10516000B8BF0026002BB7BFDDE90323DDE9033517
:105170009D1A002334E7079E049D089F3BE7079A8A
:1051800067E7069B012B18DCBAF1000F15D1CBF3B2
:10519000130393B92BF000431B0D1B0583B1049B34
:1051A00001330493059B013305934FF001080A9BDB
:1051B000002B7FF46AAF01206FE74FF00008F6E79D
:1051C0009846F4E73FF47DAF18461C3072E7039B26
:1051D000002B37DC069B022B34DD039B0293029BE2
:1051E0006BB931460522204600F0D8F90146064643
:1051F00018EE100A00F0F2FB00283FF7BBAD099B48
:10520000019DDB4300934FF000083146204600F03B
:10521000A3F9002F3FF4A4AEB8F1000F05D0B845B4
:1052200003D04146204600F097F93946204600F069
:1052300093F995E600263746E1E70097374699E56A
:1052400000002440089B002B00F0CA80039B0293BF
:10525000002D05DD39462A46204600F04FFB074663
:10526000B8F1000F5BD07968204600F035F90546AB
:1052700028B9874B024640F2EA21FFF73BBB3A6967
:105280000232920007F10C010C30FEF74FFA0122B6
:105290002946204600F032FB019B03F10109DDE9BC
:1052A0000123134405930AF00103B846049307460B
:1052B000314618EE100AFFF777FA4146029000F1E6
:1052C000300A18EE100A00F089FB3A460390314686
:1052D000204600F09FFBC26809F1FF3B054602BB78
:1052E000014618EE100A00F079FB024629462046D6
:1052F000079200F031F9DDE9063243EA0201049B2E
:105300000B434D460FD1BAF1390F2AD0039B002B26
:1053100002DD029B03F1310A8BF800A075E73846E5
:10532000BAE70122E2E7039B002B04DB06990B435B
:1053300004990B4322D1002AEEDD18EE101A012247
:10534000204600F0DBFA314608EE100A00F046FB7A
:10535000002803DCE0D11AF0010FDDD0BAF1390FDB
:10536000D7D139238BF800302B461D46013B15F869
:10537000012C392A71D001321A7046E7002A07DD64
:10538000BAF1390FEDD00AF101038BF800303CE798
:10539000059B09F801AC994547D018EE101A002377
:1053A0000A22204600F0FAF8B84508EE100A4FF03D
:1053B00000034FF00A024146204606D100F0EEF805
:1053C0008046074609F1010972E700F0E7F839461F
:1053D000804600230A22204600F0E0F80746F1E765
:1053E000039B0293019D18EE100A3146FFF7DCF98A
:1053F00000F1300A019B05F801ABEA1A029B9342C7
:1054000009DD18EE101A00230A22204600F0C6F823
:1054100008EE100AE7E7029B002BC8BF1D46019B60
:10542000D8BF01251D444FF0000818EE101A0122C4
:10543000204600F063FA314608EE100A00F0CEFA7A
:10544000002891DC02D11AF0010F8DD12B461D46A8
:1054500013F8012D302AFAD0D7E6019A9A4284D166
:10546000009B0133009331231370CEE6094BFFF705
:1054700095BA219B002B7FF46EAA074BFFF78EBADB
:10548000029B002BAEDC069B022B3FF7A8AEA9E7E0
:10549000D5990008789900086B9900080048704772
:1054A00068010020024B01461868FEF7C1B900BF31
:1054B0001400002082B001B901A942B14BB11378A8
:1054C0000B601278101E18BF012002B07047104602
:1054D000FBE76FF00100F8E770B5466A04460D4639
:1054E00076B91020FFF7DEFF0246606220B9184B44
:1054F0001848662100F086FDC0E901660660C660B6
:10550000666AF36883B1636ADB6853F82500B8B94B
:10551000012101FA05F6721D9200204600F060FBA1
:1055200060B1C0E901560EE021220421204600F0BE
:1055300057FB636AF060DB68002BE4D1002070BD8C
:10554000026843F825200023C0E90333F7E700BFD2
:10555000F8980008F099000870B5466A05460C46B0
:1055600076B91020FFF79EFF0246686220B9094B0A
:1055700009488A2100F046FDC0E901660660C66060
:105580003CB16B6A6268DB6853F82210216043F813
:10559000224070BDF8980008F09900082DE9F0410C
:1055A0000D6907460C461E4601F1140C0020DCF87C
:1055B000003099B202FB01611E0C0B0C02FB06339A
:1055C00089B2013001EB034185424CF8041B4FEADC
:1055D0001346ECDC0EB3A368AB4219DC61683846B5
:1055E0000131FFF779FF804628B902460C4B0D4880
:1055F000B52100F007FD2269023204F10C0192008E
:105600000C30FEF793F821463846FFF7A5FF4446D5
:1056100004EB850301355E6125612046BDE8F0811C
:10562000D5990008F0990008030C1B04D3B90004B5
:10563000102310F07F4F04BF0002083310F0704FAA
:1056400004BF0001043310F0404F04BF8000023358
:10565000002805DB10F0804F03F1010308BF202371
:10566000184670470023E4E7036813F00702014679
:105670000BD0DA0723D4980749BF5B089B080120A9
:105680000B605CBF0B600220704798B2A8B91B0C7E
:105690001020DAB20AB908301B0A1A0704BF1B0926
:1056A00004309A0704BF9B080230DA0703D45B0872
:1056B00000F1010005D00B6070471046E9E70020BB
:1056C000704720207047000010B50C460121FFF7FD
:1056D00003FF024628B9054B05484FF4A07100F0BE
:1056E00091FC01234461036110BD00BFD5990008FE
:1056F000F09900082DE9F04F91460A69D9F8103069
:105700009A42B8BF0B460C46BCBF4C469946276927
:10571000D9F810A0A368616807EB0A06B34285B008
:10572000B8BF0131FFF7D8FE30B90246444B4548B7
:1057300040F25D1100F066FC00F1140505EB8608EF
:105740002B460022434521D304F1140303EB8707C2
:1057500009F1140303EB8A0202923A1B153A22F074
:105760000302043204F115018F4238BF0422019272
:10577000029A03939A420CD8002E03DD58F8043D98
:10578000002B5AD0066105B0BDE8F08F43F8042B1A
:10579000D8E7B3F800A0BAF1000F24D004F1140E3A
:1057A000A9464FF0000C5EF8042BD9F800101FFA40
:1057B00082FB89B20AFB0B114FEA124BD9F8002089
:1057C00061444FEA124C0AFB0BC202EB114289B250
:1057D00041EA0241774549F8041B4FEA124CE2D8EE
:1057E000019A45F802C0039AB2F802900433B9F165
:1057F000000F20D0296804F1140CAE464FF0000AC7
:10580000BCF800B0BEF8022009FB0B22924489B21A
:1058100041EA0A414EF8041B5CF8042BBEF8001064
:10582000120C09FB021101EB1A4167454FEA114ABC
:10583000E6D8019AA95004359AE7013E9CE700BFDB
:10584000D5990008F09900082DE9F843154612F0A3
:10585000030206460F4607D0254C013A002354F8B0
:105860002220FFF79BFE0746AD103DD0746A7CB93D
:105870001020FFF717FE0246706228B91D4B1E4824
:105880004FF4D77100F0BEFBC0E901440460C4606E
:10589000D6F82480D8F808404CB940F2712130463F
:1058A000FFF712FF0023C8F80800044603604FF01A
:1058B0000009EB070AD5394622463046FFF71AFFA2
:1058C000394680463046FFF747FE47466D100BD0FD
:1058D000206838B9224621463046FFF70BFF20608A
:1058E000C0F800900446E4E73846BDE8F88300BFFE
:1058F000409B0008F8980008F09900082DE9F0474F
:105900000C464968236903EB6218A3680746914671
:105910004FEA621A08F10106B3420BDB3846FFF783
:10592000DBFD054648B902462A4B2B4840F2D91107
:1059300000F068FB01315B00EEE7002300F1140189
:1059400000F110021846534537DB20692AEAEA7A4B
:1059500004F1140319F01F0901EB8A0103EB800025
:105960002FD0C9F1200E8A464FF0000C1A6802FAB7
:1059700009F242EA0C024AF8042B53F8042B98422D
:1059800022FA0EFCF2D8031B153B23F00303043369
:1059900004F11502904238BF042341F803C0BCF162
:1059A000000F01D008F10206013E38462E61214663
:1059B000FFF7D2FD2846BDE8F08742F8040F013317
:1059C000C1E7043953F8042B41F8042F9842F9D861
:1059D000EAE700BFD5990008F099000830B50269E0
:1059E0000C69121B0ED100F11403143103EB840077
:1059F00001EB840150F8045D51F8044DA54203D039
:105A000005D30122104630BD8342F3D3FAE74FF0AD
:105A1000FF32F7E72DE9F84F0C46064611462046BF
:105A20009046FFF7DBFF051E10D129463046FFF7F1
:105A300053FD30B93A4B024640F23221394800F06A
:105A4000E1FA0123C0E90435BDE8F88FA4BF43465D
:105A5000A0463046D8F80410A6BF1C4600250125F4
:105A6000FFF73AFD20B92E4B02464FF41071E5E7DF
:105A7000D8F810702669C56004F1140908F11405FE
:105A800000F1140E05EB870C09EB860608F11002F5
:105A9000F246002159F8043B52F804BF1FFA83F87C
:105AA00011FA8BF11B0CA1EB0808C3EB1B4303EBB2
:105AB00028431FFA88F819144E4548EA03434AF868
:105AC000043BE7D8331B153B23F0030304331534A1
:105AD000A64238BF04231D4473449E462E466645A5
