:020000040800F2
:100000000080012091080008190800081F08000856
:10001000250800082B08000831080008000000002F
:100020000000000000000000000000003708000889
:100030004508000800000000530800086108000897
:10004000E1080008E1080008E1080008E1080008EC
:10005000E1080008E1080008E1080008E1080008DC
:10006000E1080008E1080008E1080008E1080008CC
:10007000E1080008E1080008E1080008E1080008BC
:10008000E1080008E1080008E1080008E1080008AC
:10009000E1080008E1080008E1080008E10800089C
:1000A000E1080008E1080008E1080008E10800088C
:1000B000E1080008E1080008E1080008E10800087C
:1000C000E1080008E1080008E1080008E10800086C
:1000D000E1080008E1080008E1080008E10800085C
:1000E000E1080008E1080008E1080008E10800084C
:1000F000E1080008E1080008E1080008E10800083C
:10010000E1080008E1080008E1080008E10800082B
:10011000E1080008E1080008E1080008E10800081B
:10012000E1080008E1080008E1080008E10800080B
:10013000E1080008E1080008E1080008E1080008FB
:10014000E1080008E1080008E1080008E1080008EB
:10015000E1080008E1080008E1080008E1080008DB
:10016000E1080008E1080008E1080008E1080008CB
:10017000E1080008E1080008E108000800000000AC
:08018000E1080008E108000895
:1001880010B5054C237833B9044B13B10448AFF3C9
:1001980000800123237010BD0C0000200000000027
:1001A8000023000808B5034B1BB103490348AFF30C
:1001B800008008BD00000000100000200023000897
:1001C80080B588B000AF07F10C0300221A605A60AE
:1001D8009A60DA601A611E4BDB6C1D4A43F0040317
:1001E800D3641B4BDB6C03F00403BB60BB68184B88
:1001F800DB6C174A43F00203D364154BDB6C03F046
:1002080002037B607B68124BDB6C114A43F00103ED
:10021800D3640F4BDB6C03F001033B603B680022A7
:1002280041F604010B4800F0E9FD41F60403FB60C8
:1002380001233B6100237B610023BB6107F10C03B1
:100248001946044800F030FC00BF2037BD4680BD89
:10025800001002400004004880B582B000AF034699
:10026800FB7100224FF400610C4800F0C7FD00222A
:100278004FF48051094800F0C1FDF91D4FF0FF33DC
:100288000122074801F0A1FC01224FF480510348E4
:1002980000F0B4FD00BF0837BD4680BD000400482B
:1002A8002800002080B582B000AF0346FB71012210
:1002B8004FF400610C4800F0A1FD00224FF480517A
:1002C800094800F09BFDF91D4FF0FF330122074854
:1002D80001F07BFC01224FF48051034800F08EFDB1
:1002E80000BF0837BD4680BD000400482800002034
:1002F80080B582B000AF0346FB80FB8803F48073AF
:10030800002B05D0FB88DBB21846FFF7A5FF04E0F9
:10031800FB88DBB21846FFF7C5FF00BF0837BD46AC
:1003280080BD000080B582B000AF002204211748CC
:1003380000F064FD642001F08FFF012204211348BE
:1003480000F05CFD642001F087FF00237B6009E07A
:100358000F4A7B6832F813301846FFF7C9FF7B68ED
:1003680001337B607B684B2BF2D9C82001F074FF06
:100378001120FFF771FF782001F06EFF2920FFF7A9
:100388006BFF00BF0837BD4680BD00BF00040048B2
:100398001823000880B582B000AF0346FB80FB88B5
:1003A8001B0A9BB2DBB21846FFF77CFFFB88DBB267
:1003B8001846FFF777FF00BF0837BD4680BD80B5F8
:1003C80084B000AFF860B9607A603B602A20FFF71C
:1003D80043FFFB689BB201339BB21846FFF7DAFF75
:1003E800FB689AB27B689BB213449BB21846FFF72E
:1003F800D1FF2B20FFF730FFBB689BB202339BB2C3
:100408001846FFF7C7FFBB689AB23B689BB2134414
:100418009BB201339BB21846FFF7BCFF00BF1037F1
:10042800BD4680BD80B586B000AFF860B9607A601F
:100438003B603B687A68B968F868FFF7C0FF2C2012
:10044800FFF70AFF00237B6106E03B8C1846FFF7A5
:10045800A1FF7B6901337B617B683A6802FB03F388
:100468007A699A42F1DB00BF00BF1837BD4680BDEC
:1004780080B586B002AFF860B9601346FB80FB8890
:10048800009301230122B968F868FFF7CBFF00BF8A
:100498001037BD4680BD80B586B000AFF860B96042
:1004A8007A603B603B687A68B968F868FFF787FF4D
:1004B8002C20FFF7D1FE00237B6109E07B693A6AB3
:1004C80013441B781846FFF7EDFE7B6901337B6107
:1004D8007B683A6802FB03F35B007A699A42EDDBBA
:1004E80000BF00BF1837BD4680BD000080B584B08E
:1004F80002AF01F03DFE00F06FF8FFF761FE00F07B
:10050800C3F8FFF70FFF4FF4784300931023A0229E
:1005180000210020FFF786FF4FF4FC6300931023AF
:10052800A02210210020FFF77DFF1F230093102336
:10053800A02220210020FFF775FF4FF6E0730093FB
:100548001023A02230210020FFF76CFF4FF61F0375
:1005580000931023A02240210020FFF763FF40F200
:10056800FF7300931023A02250210020FFF75AFFA9
:100578004FF6FF7300931023A02260210020FFF79D
:1005880051FF002300931023A02270210020FFF7C1
:1005980049FF00237B6011E04FF47842796878685E
:1005A800FFF766FF7B68C3F17F034FF478427968F1
:1005B8001846FFF75DFF7B6801337B607B687F2B04
:1005C800EADD044B00935A23642214212320FFF709
:1005D80062FFFEE7B023000880B596B000AF07F1D0
:1005E800140344220021184601F07EFE3B460022F7
:1005F8001A605A609A60DA601A614FF4007000F06D
:1006080023FC0346002B01D000F038F810237B614F
:100618000123FB6200233B6360237B630223FB63AC
:1006280001233B6401237B642823BB640723FB6409
:1006380002233B6502237B6507F11403184600F08B
:1006480059FC0346002B01D000F018F80F233B603B
:1006580003237B600023BB600023FB6000233B6116
:100668003B460421184601F021F80346002B01D02F
:1006780000F004F800BF5837BD4680BD80B400AF15
:1006880072B600BFFEE7000080B500AF1B4B1C4AE6
:100698001A601A4B4FF482725A60184B00229A6003
:1006A800164B4FF4E062DA60144B00221A61134BC8
:1006B80000225A61114B4FF400729A610F4B1022BD
:1006C800DA610E4B00221A620C4B00225A620B4B65
:1006D80000229A62094B0722DA62084B00221A6349
:1006E800064B00225A63054801F0CCF90346002B5B
:1006F80001D0FFF7C3FF00BF80BD00BF2800002066
:100708000038004080B58AB000AF786007F1140364
:1007180000221A605A609A60DA601A617B681B6866
:10072800254A934244D1254B9B6D244A43F4804388
:100738009365224B9B6D03F480433B613B691F4BE0
:10074800DB6C1E4A43F00403D3641C4BDB6C03F0E0
:100758000403FB60FB68194BDB6C184A43F0020387
:10076800D364164BDB6C03F00203BB60BB68082341
:100778007B610223BB610023FB6103233B620523EA
:100788007B6207F1140319460D4800F08DF94FF408
:1007980080637B610223BB610023FB6103233B620F
:1007A80005237B6207F114031946064800F07CF91B
:1007B80000BF2837BD4680BD003800400010024009
:1007C800000800480004004880B483B000AF0F4B15
:1007D8001B6E0E4A43F0010313660C4B1B6E03F0AD
:1007E80001037B607B68094B9B6D084A43F080538B
:1007F8009365064B9B6D03F080533B603B6800BFDD
:100808000C37BD465DF8047B704700BF00100240FE
:1008180080B400AFFEE780B400AFFEE780B400AF5D
:10082800FEE780B400AFFEE780B400AFFEE780B417
:1008380000AF00BFBD465DF8047B704780B400AFD1
:1008480000BFBD465DF8047B704780B400AF00BFB1
:10085800BD465DF8047B704780B500AF01F0DCFC55
:1008680000BF80BD80B400AF064BD3F88830054A7E
:1008780043F47003C2F8883000BFBD465DF8047BBE
:10088800704700BF00ED00E0DFF834D0FFF7EAFF63
:100898000C480D490D4A002302E0D458C4500433D3
:1008A800C4188C42F9D30A4A0A4C002301E01360A9
:1008B8000432A242FBD301F0F3FCFFF717FEFEE778
:1008C80000800120000000200C000020486A000879
:1008D8000C00002090000020FEE7000080B485B0E6
:1008E80000AF78607B6803F00703FB600C4BDB68A4
:1008F800BB60BA684FF6FF031340BB60FB681A027F
:10090800BB68134343F0BF6343F40033BB60044A3E
:10091800BB68D36000BF1437BD465DF8047B7047E1
:1009280000ED00E080B400AF044BDB681B0A03F065
:1009380007031846BD465DF8047B704700ED00E0EC
:1009480080B483B000AF03463960FB7197F9073074
:10095800002B0ADB3B68DAB20C4997F90730120121
:10096800D2B20B4483F800230AE03B68DAB20849A4
:10097800FB7903F00F03043B1201D2B20B441A7641
:1009880000BF0C37BD465DF8047B704700E100E00E
:1009980000ED00E080B489B000AFF860B9607A601B
:1009A800FB6803F00703FB61FB69C3F10703042B32
:1009B80028BF0423BB61FB690433062B02D9FB69FA
:1009C800033B00E000237B614FF0FF32BB6902FA72
:1009D80003F3DA43BB681A407B699A404FF0FF3152
:1009E8007B6901FA03F3D9437B680B40134318462C
:1009F8002437BD465DF8047B7047000080B582B09F
:100A080000AF78607B68013BB3F1807F01D301239D
:100A18000FE00A4A7B68013B53600F214FF0FF301B
:100A2800FFF78EFF054B00229A60044B07221A60DD
:100A3800002318460837BD4680BD00BF10E000E01F
:100A480080B582B000AF78607868FFF747FF00BFD5
:100A58000837BD4680BD80B586B000AF0346B96093
:100A68007A60FB7300237B61FFF75CFF78617A682B
:100A7800B9687869FFF78EFF024697F90F3011467B
:100A88001846FFF75DFF00BF1837BD4680BD80B52B
:100A980082B000AF78607868FFF7B0FF0346184669
:100AA8000837BD4680BD000080B487B000AF7860CD
:100AB800396000237B617FE13B681A6801217B690B
:100AC80001FA03F31340FB60FB68002B00F071810F
:100AD8003B685B6803F00303012B05D03B685B6848
:100AE80003F00303022B30D17B689B683B617B6971
:100AF8005B00032202FA03F3DB433A6913403B61CC
:100B08003B68DA687B695B0002FA03F33A691343CE
:100B18003B617B683A699A607B685B683B6101224C
:100B28007B6902FA03F3DB433A6913403B613B6894
:100B38005B681B0903F001027B6902FA03F33A6957
:100B480013433B617B683A695A603B685B6803F012
:100B58000303032B18D17B68DB6A3B6101227B69A5
:100B680002FA03F3DB433A6913403B613B685B6875
:100B7800DB0803F001027B6902FA03F33A691343C5
:100B88003B617B683A69DA623B685B6803F00303A0
:100B9800032B17D07B68DB683B617B695B00032212
:100BA80002FA03F3DB433A6913403B613B689A68F6
:100BB8007B695B0002FA03F33A6913433B617B6884
:100BC8003A69DA603B685B6803F00303022B23D1C0
:100BD8007B69DA087B68083253F822303B617B690D
:100BE80003F007039B000F2202FA03F3DB433A6981
:100BF80013403B613B681A697B6903F007039B005C
:100C080002FA03F33A6913433B617B69DA087B68AC
:100C18000832396943F822107B681B683B617B699D
:100C28005B00032202FA03F3DB433A6913403B619A
:100C38003B685B6803F003027B695B0002FA03F31D
:100C48003A6913433B617B683A691A603B685B68A1
:100C580003F44033002B00F0AC805F4B1B6E5E4A00
:100C680043F0010313665C4B1B6E03F00103BB608A
:100C7800BB685A4A7B699B08023352F823303B61B0
:100C88007B6903F003039B000F2202FA03F3DB43A3
:100C98003A6913403B617B68B3F1904F25D07B687C
:100CA8004F4A93421FD07B684E4A934219D07B68C3
:100CB8004D4A934213D07B684C4A93420DD07B68CF
:100CC8004B4A934207D07B684A4A934201D1062394
:100CD8000CE007230AE0052308E0042306E00323C9
:100CE80004E0022302E0012300E000237A6902F015
:100CF8000302920093403A6913433B6137497B6989
:100D08009B0802333A6941F823203B4B9B683B61BF
:100D1800FB68DB433A6913403B613B685B6803F45B
:100D28008013002B03D03A69FB6813433B61324AB6
:100D38003B699360304BDB683B61FB68DB433A6996
:100D480013403B613B685B6803F40013002B03D03E
:100D58003A69FB6813433B61274A3B69D360264BDA
:100D68005B683B61FB68DB433A6913403B613B6866
:100D78005B6803F40033002B03D03A69FB68134324
:100D88003B611D4A3B6953601B4B1B683B61FB6819
:100D9800DB433A6913403B613B685B6803F480338B
:100DA800002B03D03A69FB6813433B61124A3B6945
:100DB80013607B6901337B613B681A687B6922FA9F
:100DC80003F3002B7FF478AE00BF00BF1C37BD468D
:100DD8005DF8047B704700BF00100240000001402E
:100DE8000004004800080048000C004800100048B3
:100DF80000140048001800480004014080B483B083
:100E080000AF78600B467B8013467B707B78002BA5
:100E180003D07A887B689A6102E07A887B689A6254
:100E280000BF0C37BD465DF8047B704780B400AF47
:100E3800044B1B6803F4C0631846BD465DF8047B89
:100E4800704700BF0070004080B485B000AF786084
:100E58007B68B3F5007F30D1234B1B6803F4C06374
:100E6800B3F5007F38D0204B1B6823F4C0631E4ABB
:100E780043F4007313601D4B1B68322202FB03F31B
:100E88001B4AA2FB03239B0C0133FB6002E0FB68B7
:100E9800013BFB60144B5B6903F48063B3F5806F1F
:100EA80002D1FB68002BF2D10F4B5B6903F480631E
:100EB800B3F5806F10D103230FE00B4B1B6803F4CD
:100EC800C063B3F5806F07D0074B1B6823F4C0637A
:100ED800054A43F480631360002318461437BD465F
:100EE8005DF8047B704700BF0070004000000020E0
:100EF80083DE1B4380B588B000AF78607B68002B29
:100F080001D10123CAE3974B9B6803F00C03BB6133
:100F1800944BDB6803F003037B617B681B6803F079
:100F28001003002B00F0E480BB69002B07D0BB69DD
:100F38000C2B40F08B807B69012B40F08780894B1C
:100F48001B6803F00203002B05D07B689B69002B0C
:100F580001D10123A2E37B681A6A824B1B6803F064
:100F68000803002B04D07F4B1B6803F0F00305E057
:100F78007C4BD3F894301B0903F0F003934223D23F
:100F88007B681B6A184600F01DFD0346002B01D044
:100F9800012383E3734B1B68724A43F00803136011
:100FA800704B1B6823F0F0027B681B6A6D49134382
:100FB8000B606C4B5B6823F47F427B68DB691B0228
:100FC800684913434B6025E0664B1B68654A43F04C
:100FD80008031360634B1B6823F0F0027B681B6AED
:100FE800604913430B605F4B5B6823F47F427B6867
:100FF800DB691B025B4913434B60BB69002B09D1BA
:101008007B681B6A184600F0DDFC0346002B01D004
:10101800012343E300F04AFC0246524B9B681B093C
:1010280003F00F035049CB5C03F01F0322FA03F3CC
:101038004E4A13604E4B1B68184601F0B1F8034640
:10104800FB73FB7B002B52D0FB7B27E37B689B6900
:10105800002B32D0434B1B68424A43F00103136014
:1010680001F0EEF8386108E001F0EAF802463B6961
:10107800D31A022B01D9032310E33A4B1B6803F060
:101088000203002BF0D0374B1B68364A43F00803A5
:101098001360344B1B6823F0F0027B681B6A3149EC
:1010A80013430B602F4B5B6823F47F427B68DB693B
:1010B8001B022C4913434B601AE02A4B1B68294A30
:1010C80023F00103136001F0BBF8386108E001F078
:1010D800B7F802463B69D31A022B01D90323DDE294
:1010E800204B1B6803F00203002BF0D100E000BF87
:1010F8007B681B6803F00103002B74D0BB69082BC5
:1011080005D0BB690C2B0ED17B69032B0BD1154B7A
:101118001B6803F40033002B64D07B685B68002BEA
:1011280060D10123BAE27B685B68B3F5803F06D1E2
:101138000C4B1B680B4A43F48033136026E07B6832
:101148005B68B3F5A02F15D1064B1B68054A43F41D
:1011580080231360034B1B68024A43F480331360F7
:1011680014E000BF00100240006A000800000020E0
:1011780004000020A04B1B689F4A23F480331360AF
:101188009D4B1B689C4A23F4802313607B685B6833
:10119800002B13D001F054F8386108E001F050F842
:1011A80002463B69D31A642B01D9032376E2924B9A
:1011B8001B6803F40033002BF0D014E001F040F872
:1011C800386108E001F03CF802463B69D31A642B09
:1011D80001D9032362E2884B1B6803F40033002B18
:1011E800F0D100E000BF7B681B6803F00203002B0E
:1011F80060D0BB69042B05D0BB690C2B19D17B6966
:10120800022B16D17C4B1B6803F48063002B05D09E
:101218007B68DB68002B01D101233FE2764B5B68DA
:1012280023F0F8527B681B691B06734913434B6014
:1012380040E07B68DB68002B23D06F4B1B686E4A4D
:1012480043F48073136000F0FBFF386108E000F09E
:10125800F7FF02463B69D31A022B01D903231DE28B
:10126800654B1B6803F48063002BF0D0624B5B680E
:1012780023F0F8527B681B691B065F4913434B60D8
:1012880018E05D4B1B685C4A23F48073136000F020
:10129800D7FF386108E000F0D3FF02463B69D31A54
:1012A800022B01D90323F9E1534B1B6803F4806334
:1012B800002BF0D17B681B6803F00803002B3CD09F
:1012C8007B685B69002B1CD04B4BD3F894304A4A9F
:1012D80043F00103C2F8943000F0B2FF386108E02F
:1012E80000F0AEFF02463B69D31A022B01D9032353
:1012F800D4E1414BD3F8943003F00203002BEFD034
:101308001BE03D4BD3F894303B4A23F00103C2F86D
:10131800943000F095FF386108E000F091FF024634
:101328003B69D31A022B01D90323B7E1324BD3F817
:10133800943003F00203002BEFD17B681B6803F0A5
:101348000403002B00F0A6800023FB772A4B9B6D3B
:1013580003F08053002B0DD1274B9B6D264A43F099
:1013680080539365244B9B6D03F08053BB60BB682F
:101378000123FB77214B1B6803F48073002B18D1E2
:101388001E4B1B681D4A43F48073136000F058FF1E
:10139800386108E000F054FF02463B69D31A022B7B
:1013A80001D903237AE1154B1B6803F48073002BE2
:1013B800F0D07B689B68012B08D10F4BD3F8903095
:1013C8000D4A43F00103C2F8903029E07B689B681E
:1013D800052B15D1084BD3F89030074A43F0040386
:1013E800C2F89030044BD3F89030034A43F001031D
:1013F800C2F8903014E000BF0010024000700040B6
:101408009C4BD3F890309B4A23F00103C2F89030EC
:10141800984BD3F89030974A23F00403C2F89030E1
:101428007B689B68002B16D000F00AFF38610AE041
:1014380000F006FF02463B69D31A41F28832934214
:1014480001D903232AE18B4BD3F8903003F0020330
:10145800002BEDD015E000F0F3FE38610AE000F053
:10146800EFFE02463B69D31A41F28832934201D912
:10147800032313E17F4BD3F8903003F00203002BD2
:10148800EDD1FB7F012B05D17A4B9B6D794A23F077
:10149800805393657B689B6A002B00F0FE807B6815
:1014A8009B6A022B40F0D080724BDB687B617B69C2
:1014B80003F003027B68DB6A9A4230D17B6903F050
:1014C80070027B681B6B013B1B019A4227D17B6929
:1014D80003F4FE427B685B6B1B029A421FD17B6957
:1014E80003F400337A68926B072A14BF01220022A2
:1014F800D2B2934213D17B6903F4C0027B68DB6BE1
:101508005B08013B5B059A4209D17B6903F0C06225
:101518007B681B6C5B08013B5B069A426ED0BB691B
:101528000C2B69D0534B1B6803F08063002B05D14B
:10153800504B1B6803F08053002B01D00123ADE012
:101548004C4B1B684B4A23F08073136000F078FE05
:10155800386108E000F074FE02463B69D31A022B9A
:1015680001D903239AE0434B1B6803F00073002B57
:10157800F0D1404BDA68404B13407A68D16A7A68F8
:10158800126B013A120111437A68526B120211432D
:101598007A68D26B5208013A520511437A68126C84
:1015A8005208013A520611437A68926B12095204A2
:1015B8000A4330491343CB602E4B1B682D4A43F036
:1015C800807313602B4BDB682A4A43F08073D36027
:1015D80000F036FE386108E000F032FE02463B6952
:1015E800D31A022B01D9032358E0224B1B6803F0BE
:1015F8000073002BF0D050E001234FE01D4B1B6817
:1016080003F00073002B48D11A4B1B68194A43F0AA
:1016180080731360174BDB68164A43F08073D360FE
:1016280000F00EFE386108E000F00AFE02463B6951
:10163800D31A022B01D9032330E00E4B1B6803F0A9
:101648000073002BF0D028E0BB690C2B23D0094B8A
:101658001B68084A23F08073136000F0F1FD3861BD
:101668000CE000F0EDFD02463B69D31A022B05D9C8
:10167800032313E0001002408C809DF9094B1B687E
:1016880003F00073002BECD1064BDA680549064BD2
:101698001340CB6001E0012300E000231846203707
:1016A800BD4680BD00100240FCFFEEFE80B584B050
:1016B80000AF786039607B68002B01D10123E7E037
:1016C800754B1B6803F007033A689A4210D9724BAE
:1016D8001B6823F0070270493B6813430B606E4B8D
:1016E8001B6803F007033A689A4201D00123CFE050
:1016F8007B681B6803F00203002B10D07B689A6894
:10170800664B9B6803F0F0039A4208D9634B9B68C9
:1017180023F0F0027B689B68604913438B607B6809
:101728001B6803F00103002B4CD07B685B68032B1C
:1017380007D15A4B1B6803F00073002B21D10123FA
:10174800A6E07B685B68022B07D1544B1B6803F447
:101758000033002B15D101239AE07B685B68002BCE
:1017680007D14E4B1B6803F00203002B09D101235C
:101778008EE04A4B1B6803F48063002B01D10123E0
:1017880086E0464B9B6823F003027B685B6843490D
:1017980013438B6000F054FDF8600AE000F050FD40
:1017A8000246FB68D31A41F28832934201D90323D7
:1017B8006EE03A4B9B6803F00C027B685B689B0009
:1017C8009A42EBD17B681B6803F00203002B10D010
:1017D8007B689A68314B9B6803F0F0039A4208D201
:1017E8002E4B9B6823F0F0027B689B682B491343C0
:1017F8008B60294B1B6803F007033A689A4210D2A2
:10180800254B1B6823F0070223493B6813430B60F1
:10181800214B1B6803F007033A689A4201D0012361
:1018280036E07B681B6803F00403002B08D01B4BD1
:101838009B6823F4E0627B68DB68184913438B607C
:101848007B681B6803F00803002B09D0134B9B68C7
:1018580023F460527B681B69DB00104913438B60DB
:1018680000F024F802460D4B9B681B0903F00F0398
:101878000B49CB5C03F01F0322FA03F3094A1360F8
:10188800094B1B68184600F08BFC0346FB72FB7A79
:1018980018461037BD4680BD0020024000100240A7
:1018A800006A0008000000200400002080B489B00D
:1018B80000AF0023FB610023BB613E4B9B6803F034
:1018C8000C033B613B4BDB6803F00303FB603B69A4
:1018D800002B05D03B690C2B21D1FB68012B1ED1B5
:1018E800344B1B6803F00803002B07D1314BD3F8A6
:1018F80094301B0A03F00F03FB6105E02D4B1B68B6
:101908001B0903F00F03FB612B4AFB6952F82330D4
:10191800FB613B69002B0DD1FB69BB610AE03B69A8
:10192800042B02D1254BBB6104E03B69082B01D194
:10193800234BBB613B690C2B34D11E4BDB6803F096
:101948000303BB60BB68022B03D0BB68032B03D027
:1019580005E01A4B7B6105E0194B7B6102E0FB69EE
:101968007B6100BF134BDB681B0903F007030133DE
:101978007B60104BDB681B0A03F07F037A6903FB6B
:1019880002F27B68B2FBF3F37B610A4BDB685B0E08
:1019980003F0030301335B003B607A693B68B2FBE9
:1019A800F3F3BB61BB6918462437BD465DF8047B79
:1019B800704700BF00100240106A00080024F400BD
:1019C80000127A0080B586B000AF786000233B61D2
:1019D8002A4B9B6D03F08053002B03D0FFF726FAA8
:1019E800786114E0254B9B6D244A43F0805393653E
:1019F800224B9B6D03F08053FB60FB68FFF716FAE0
:101A080078611E4B9B6D1D4A23F0805393657B695B
:101A1800B3F5007F0BD17B68802B19D97B68A02B8D
:101A280002D902233B6113E001233B6110E07B688C
:101A3800802B02D903233B610AE07B68802B02D10B
:101A480002233B6104E07B68702B01D101233B61D9
:101A58000B4B1B6823F0070209493B6913430B60D2
:101A6800074B1B6803F007033A699A4201D0012328
:101A780000E0002318461837BD4680BD001002401C
:101A88000020024080B584B000AF78607B68002BEE
:101A980001D1012395E07B685B6A002B08D17B6844
:101AA8005B68B3F5827F09D07B680022DA6105E0C4
:101AB8007B6800221A617B6800225A617B680022D9
:101AC8009A627B6893F85D30DBB2002B06D17B68A5
:101AD800002283F85C207868FEF714FE7B680222F7
:101AE80083F85D207B681B681A687B681B6822F096
:101AF80040021A607B68DB68B3F5E06F02D9002307
:101B0800FB6002E04FF48053FB607B68DB68B3F551
:101B1800706F07D07B68DB68B3F5E06F02D07B6835
:101B280000229A627B685B6803F482727B689B6818
:101B380003F404431A437B681B6903F002031A4346
:101B48007B685B6903F001031A437B689B6903F4B4
:101B580000731A437B68DB6903F038031A437B6818
:101B68001B6A03F0800342EA03017B689B6A03F463
:101B780000527B681B680A431A607B689B691B0CD0
:101B880003F004027B685B6A03F010031A437B6866
:101B98005B6B03F008031A437B68DB6803F470632C
:101BA80042EA0301FB6803F480527B681B680A431E
:101BB8005A607B6800221A667B68012283F85D20E0
:101BC800002318461037BD4680BD80B588B000AFE9
:101BD800F860B9603B601346FB800023FB77FB6825
:101BE80093F85C30012B01D1022358E1FB680122F4
:101BF80083F85C2000F024FBB861FB88FB82FB685B
:101C080093F85D30DBB2012B02D00223FB773DE174
:101C1800BB68002B02D0FB88002B02D10123FB7785
:101C280034E1FB68032283F85D20FB6800221A6612
:101C3800FB68BA689A63FB68FA889A87FB68FA882F
:101C4800DA87FB6800221A64FB680022A3F84420A4
:101C5800FB680022A3F84620FB6800221A65FB688F
:101C68000022DA64FB689B68B3F5004F0FD1FB686C
:101C78001B681A68FB681B6822F040021A60FB6840
:101C88001B681A68FB681B6842F480421A60FB688C
:101C98001B681B6803F04003402B07D0FB681B68D8
:101CA8001A68FB681B6842F040021A60FB68DB6830
:101CB800B3F5E06F4BD9FB685B68002B02D0FB8A59
:101CC800012B3ED1FB689B6B1A88FB681B68DA60A6
:101CD800FB689B6B9A1CFB689A63FB68DB8F9BB263
:101CE800013B9AB2FB68DA872BE0FB681B689B68AC
:101CF80003F00203022B12D1FB689B6B1A88FB6866
:101D08001B68DA60FB689B6B9A1CFB689A63FB682C
:101D1800DB8F9BB2013B9AB2FB68DA8711E000F0D7
:101D28008FFA0246BB69D31A3A689A4203D83B68CD
:101D3800B3F1FF3F02D13B68002B02D10323FB77AD
:101D4800A4E0FB68DB8F9BB2002BCED17CE0FB6864
:101D58005B68002B02D0FB8A012B70D1FB68DB8FFC
:101D68009BB2012B12D9FB689B6B1A88FB681B6816
:101D7800DA60FB689B6B9A1CFB689A63FB68DB8FD5
:101D88009BB2023B9AB2FB68DA8758E0FB689A6B11
:101D9800FB681B680C3312781A70FB689B6B5A1C23
:101DA800FB689A63FB68DB8F9BB2013B9AB2FB68C6
:101DB800DA8744E0FB681B689B6803F00203022B88
:101DC8002BD1FB68DB8F9BB2012B12D9FB689B6B75
:101DD8001A88FB681B68DA60FB689B6B9A1CFB68B7
:101DE8009A63FB68DB8F9BB2023B9AB2FB68DA8787
:101DF80025E0FB689A6BFB681B680C3312781A7035
:101E0800FB689B6B5A1CFB689A63FB68DB8F9BB271
:101E1800013B9AB2FB68DA8711E000F011FA02463A
:101E2800BB69D31A3A689A4203D83B68B3F1FF3FBB
:101E380002D13B68002B02D10323FB7726E0FB6825
:101E4800DB8F9BB2002BB5D1BA693968F86800F00E
:101E580049F90346002B02D0FB6820221A66FB686A
:101E68009B68002B0AD100233B61FB681B68DB6879
:101E78003B61FB681B689B683B613B69FB681B6EA9
:101E8800002B02D00123FB7700E000BFFB68012292
:101E980083F85D20FB68002283F85C20FB7F1846EE
:101EA8002037BD4680BD000080B588B000AFF8601F
:101EB800B9603B601346FB7100F0C2F90246BB6A89
:101EC8009B1A3A681344FB6100F0BAF9B861394BC0
:101ED8001B685B011B0DFA6902FB03F37B6154E08D
:101EE8003B68B3F1FF3F50D000F0AAF90246BB6946
:101EF800D31AFA699A4202D9FB69002B3DD1FB68D3
:101F08001B685A68FB681B6822F0E0025A60FB688D
:101F18005B68B3F5827F11D1FB689B68B3F5004F0E
:101F280004D0FB689B68B3F5806F07D1FB681B681A
:101F38001A68FB681B6822F040021A60FB689B6AFB
:101F4800B3F5005F0FD1FB681B681A68FB681B6854
:101F580022F400521A60FB681B681A68FB681B6849
:101F680042F400521A60FB68012283F85D20FB6886
:101F7800002283F85C20032317E07B69002B01D142
:101F88000023FB617B69013B7B61FB681B689A68E6
:101F9800BB681340BA689A420CBF01230023DBB226
:101FA8001A46FB799A429BD1002318462037BD4632
:101FB80080BD00BF0000002080B58AB000AFF86087
:101FC800B9607A603B600023FB7500F039F902467E
:101FD8003B6B9B1A3A6813447B6200F031F9386214
:101FE800FB681B680C33FB613D4B1A6813469B006A
:101FF8001344DA00D31A1B0D7A6A02FB03F3BB61A0
:1020080060E0BB68B3F5C06F07D17B68002B04D1D3
:10201800FB691B78DBB2FB75FB7D3B68B3F1FF3FC7
:1020280050D000F00DF902463B6AD31A7A6A9A42F8
:1020380002D97B6A002B3DD1FB681B685A68FB6894
:102048001B6822F0E0025A60FB685B68B3F5827F88
:1020580011D1FB689B68B3F5004F04D0FB689B68FF
:10206800B3F5806F07D1FB681B681A68FB681B68AB
:1020780022F040021A60FB689B6AB3F5005F0FD13B
:10208800FB681B681A68FB681B6822F400521A6018
:10209800FB681B681A68FB681B6842F400521A60E8
:1020A800FB68012283F85D20FB68002283F85C202E
:1020B800032310E0BB69002B01D100237B62BB69BD
:1020C800013BBB61FB681B689A68BB6813407A6870
:1020D8009A4296D1002318462837BD4680BD00BFD6
:1020E8000000002080B586B002AFF860B9607A6061
:1020F8007B680093BB6800224FF4C051F868FFF773
:102108005BFF0346002B07D0FB681B6E43F02002E1
:10211800FB681A66032327E07B680093BB680022EC
:102128008021F868FFF7C0FE0346002B07D0FB6844
:102138001B6E43F02002FB681A66032314E07B68D9
:102148000093BB6800224FF4C061F868FFF734FFC2
:102158000346002B07D0FB681B6E43F02002FB6888
:102168001A66032300E0002318461037BD4680BDD9
:1021780080B582B000AF0023FB710320FEF760FC3E
:102188000F2000F00DF80346002B02D00123FB714D
:1021980001E0FEF719FBFB7918460837BD4680BDFC
:1021A80080B584B000AF78600023FB73174B1B78B1
:1021B800002B23D0164B1A68144B1B7819464FF482
:1021C8007A73B3FBF1F3B2FBF3F31846FEF75FFC47
:1021D8000346002B0FD17B680F2B09D800227968A2
:1021E8004FF0FF30FEF737FC0A4A7B68136007E0C0
:1021F8000123FB7304E00123FB7301E00123FB735C
:10220800FB7B18461037BD4680BD00BF0800002084
:10221800000000200400002080B400AF064B1B78AB
:102228001A46064B1B681344044A136000BFBD4698
:102238005DF8047B704700BF080000208C00002078
:1022480080B400AF034B1B681846BD465DF8047B9D
:10225800704700BF8C00002080B584B000AF786064
:10226800FFF7EEFFB8607B68FB60FB68B3F1FF3FE8
:1022780005D00A4B1B781A46FB681344FB6000BF65
:10228800FFF7DEFF0246BB68D31AFA689A42F7D80E
:1022980000BF00BF1037BD4680BD00BF080000204A
:1022A80070B50D4D0D4C641BA4100026A64209D133
:1022B8000B4D0C4C00F020F8641BA4100026A6421D
:1022C80005D170BD55F8043B98470136EEE755F83F
:1022D800043B98470136F2E7406A0008406A000864
:1022E800406A0008446A000802440346934200D149
:1022F800704703F8011BF9E7F8B500BFF8BC08BC44
:102308009E467047F8B500BFF8BC08BC9E467047AB
:10231800B10101002C002D00B20101002C002D009C
:10232800B30101002C002D0001002C002D00B40188
:102338000700C001A20002008400C101C500C2015B
:102348000A000000C3018A002A00C4018A00EE00C6
:10235800C5010E00E0010F001A000F0018002F0041
:102368002800200022001F001B0023003700000067
:10237800070002001000E1010F001B000F0017000A
:1023880033002C0029002E003000300039003F00B7
:102398000000070003001000F0010100F601000032
:1023A8003A0105003601A0007BCF84109CB2AD3401
:1023B800B574BD74C595CDD6CDD6CDF6CDF6CDF6D2
:1023C800CE17CE17CE18D639D639D618D639D6590B
:1023D800D638D617D617D617D617D637D638DE3802
:1023E800DE39D639D639D639D638DE38D619D6199F
:1023F800D619DE19DE39DE38DE39DE38DE38DE3869
:10240800DE59DE59DE38D618DE59DE59DE39DE39B6
:10241800DE39DE39DE39DE39DE59DE59DE59DE399C
:10242800DE39DE39DE59DE59DE5ADE39E65ADE3962
:10243800DE39E67ADE39DE5ADE5ADE5ADE59DE59F0
:10244800DE59DE79DE79DE79DE9AD69AD69ADE9A78
:10245800D67AD67AD679D659D639C5F7B576738F5E
:1024680039E831A72966298729C8216719462187AC
:10247800738E8C30A4F3B554B574BD95C596C596C6
:10248800C596CDF6CE16CDF6CE17D638CE18CDF8E1
:10249800CE18CE18CDF8CDF7CDF7D638D638CDF73B
:1024A800CDF7D617D618D618D5F8D5F8D5F8D61842
:1024B800D618D618D618D5F8D618DE18DE38DE188D
:1024C800DE17DE17DE18DE18DE38DE38DE38D618FE
:1024D800DE59DE39DE39DE39DE39DE39DE39DE391C
:1024E800D618D618DE18D618D618D618DE39D61843
:1024F800DE39DE38DE39DE39DE39DE5ADE39DE39FC
:10250800DE39DE59DE59D639DE39DE7ADE7ADE5931
:10251800D679D67ADE9ADE9AD679D659D659D65948
:10252800D639CE39C618AD56738F422939C82146D7
:1025380031C829C9216721886B4D8C51AD13AD3342
:10254800AD33B554BD75C596C5B6CDD6C5D6CDF691
:10255800CE17CE17CE17CE18CDF7CE18D638D61838
:10256800D618D618D5F8CDD8D5F8CDF8CDD8CDD839
:10257800D5F8D5F8D5F8D5F8D5F7D5F6D5F7D5D710
:10258800D5F7D5F7D5F7D5D6D5F7DE17DE17DE1789
:10259800D617DE17DE17DE38DE39DE39D619DE3912
:1025A800DE39DE18DE18DE38D618D618DE18D6184A
:1025B800D5F8D5F8D5F8D5F7D5F7D617D617DE1844
:1025C800D618D5F8DE18DE18D618D5F8D5F8D619E5
:1025D800DE39DE39DE39D639DE59D658D658DE59D5
:1025E800DE79DE79DE59D639D618D659CE19C5F92D
:1025F800B597736F31883188298831EA2168216855
:10260800738D8C50A4D2AD13B554BD75BD76C596E7
:10261800C5B7CDF7CE17CE16CE37CE37CE18CE18D3
:10262800CDF7CDF7CDF7CDF8CDF8CDD7CDD7CDF8BF
:10263800CDF8CDF8CDD8CDD8D5F8D5F8D5F8D5D7AB
:10264800CDD7CDD6CDD6D5D6D5F6D5D6D5D6D5D621
:10265800D5F6DDF7D617D5F7D5F7D5F7D617DE387F
:10266800DE18DE19DE19DE39DE39D618D618DE187E
:10267800DE38DE18DE18D618D5F7D5F7D5D7CDB69B
:10268800CDD6D5F6D5F6D5F7CDB6C575D5D7D5F708
:10269800D5D7CDB7D5D8DE18D618D5F8D618DE399F
:1026A800DE38D638D618D618D638DE38D638D638E2
:1026B800DE59D659D659CE19C5F8AD356B4E2967AE
:1026C800214729A929A921687BAE9471A4F2A513F1
:1026D800AD34B555BD76C5D7C5D7D638D678CE581A
:1026E800CE58CE58C618C5F8CE18CE18C5F7C5F7B7
:1026F800CE18CDF7C5D7CDF7CDD7CDF7CDF8CDD7F7
:10270800CDB7CDB7CDB7CDB7CD97CDB7CDB7CDB6C2
:10271800CDB6CDB6D5B6D5B5D5B5D5D6D5D6D5D60B
:10272800D5D6D5D7D5F7DE18D618D618D618D618D0
:10273800D618D618D5F8D5F8D5F8D5F7D5F7D5D70A
:10274800D5D7D5D7D5D7CDB6CDB5CDB5CDD5CDD6B1
:10275800C575BD34CD95C575C555CD96CDB6C5964F
:10276800C596CDB7CDF7CDF7CDD7D5F7CDF7CDD722
:10277800CDF7CDF7CDF7D638CE18CE17C5F7CE386A
:10278800C5F7C617B5955AEB2987194729A8298887
:102798007BCF9CB2AD54B574B575B575B555B53527
:1027A800B555B555AD54B575B595B595BDD7C639BB
:1027B800BDF8C639C618BDB7BDB7BDB7BDB6C5B734
:1027C800C5D7C5D7C5B6C596C596CDB7CDB7CD972C
:1027D800CD97CD97CD96CDB6CD95CD75CD75CD95FB
:1027E800CD95D5B5D5B6D5B6CDB6CDB7D5F7D5F83F
:1027F800D5F8D5F8D5F8D618D5F8D5F8D5D7D5D78A
:10280800D5D7D5D7CDD6CDB6CDB6CDB6CD96C5759F
:10281800C574C574C595CD95C534BD33BD34B4F301
:10282800BD13B4D3ACB2ACB2B4F3B534B534B5342B
:10283800C596C596BD76BD76BD96BD96B576B59658
:10284800BDD7C5F7BDD6BDD7C617BDF6B5B5A575F5
:102858004ACC19671967194752AA5289422839A6DA
:1028680031653145290420C3292420E32103294463
:102878003186318639C84A6C7C1294F5A578ADD971
:10288800BE19BDF9BDD8BDF8BD96BD96BD75BD755F
:10289800C555C575C554BD34C555C555C575C5752A
:1028A800C574C554C555CD55CD95CD95CD95CD9609
:1028B800CD96CDB7CDB7D5D7D5F8D5F8D5F8D5F8C5
:1028C800D5F8D5D7CDD7CDD7D5D7CDD6D5D6CDB6C2
:1028D800CD95CD75C554BD13BD13BCF3C534BD33FB
:1028E800B4B2B4B1ACB1A470AC91940F8BCE9430A7
:1028F80094518C108C1094518C31947294939CB494
:10290800A535A535A515A535A556A556AD769CF4CE
:1029180094D49D1594D49D157C534AEE3A8C324B31
:10292800292531864A285AEA736C7BCE9471A4D340
:10293800A514B575B596AD75AD56A5369CD68C95CE
:102948008455847684567C3584557C147C148C7527
:10295800A517B578BDB8B576ACF4A4D2A4D2ACD2DC
:10296800ACB2ACB2ACD1B4F2BD12BD13BD14C53417
:10297800C534C554CD75CD75CD76CD96CDB7D5D7E3
:10298800D5F7D5F8D5F8D5F8D5F8D5D7CDD7CDD74B
:10299800CDD7CDB6CDB6CDB6CD75C554C513B4D249
:1029A800B4B2B4B2BD14B4B29C2F9C2F9C2F9C2FF0
:1029B800838C838D83AE83AE6B2D5AAB5ACC6B4E12
:1029C80084128C9494B58C94843373B263716BB213
:1029D8006B916350635063706B70634F634F634FC9
:1029E8005B7053505B70530F630C7BF08C71AD348C
:1029F800AD74B574B595C5F7C5F7C618BDF7BDF87C
:102A0800B5B8B598AD59B59BB57DAD3DA4FC9CBC9A
:102A1800947B83F97377631452B25AD16B5284341E
:102A280094D594F4847173AD7BAD8BEE9C4E9C4D24
:102A38009C4EACB1B4B2AC92BCF3C534C534C554E9
:102A4800CD75C575D5B6CDB6CDD7D5D7D5F7D5D72C
:102A5800CDD7D5D7D5D7D5D7D5D7CDB6CD95CD95D3
:102A6800C554C513BCF2BCD2AC71B492B4B2AC912B
:102A780093CE8BCD8BCE838D732C736D630C528B61
:102A880052AC6B70843494B68C957C346BD36BB336
:102A98006B946BB57C1784588CBA94DA9D1AA55B35
:102AA800AD9BB5BAB5B9AD999D177BF35AEF5B0FDE
:102AB80052AB6B4D8C519CF3AD33A513B575BDB5B9
:102AC800BDB6AD75AD55A535A5169CF79CD89CB976
:102AD8009C9C945C8C1C83DB7B9B737B73BB7BDB38
:102AE8007BDB6B99633552D24AB04ACF63917C3312
:102AF800736F732C732A83AC8BED8BCD9C30AC91A8
:102B0800B4B1BCF2BD12C533C534C554CD95CDB5ED
:102B1800CDD7D5D7D5F7D5D7D5D7D5D7D5F7D5F7F5
:102B2800D5D7D5B6CD95C554C533C533BCF2AC7031
:102B3800AC50B491AC719BEF93CE838D8BCE734C1C
:102B480062CB62EC6B6F845494D78CB77C366BD4B1
:102B58006BD474167C37743774187C5A847B8C7BDE
:102B68008C9B94BB9CDB9CFAA51AA519A519A518E2
:102B7800A5188435633052CF528B6B2D94719CF31A
:102B8800A513AD33B575B575A513AD34A5149CD48F
:102B98009CF68C55841584177BB973BB7BBC73BDBD
:102BA8006B7C631B5AFB631C5AFB631B633A6B7A8F
:102BB8006B995AF6423239F06B128BD283AF732B72
:102BC8007B4C838C8BAD9BEFA46FACB0BCF1BD117B
:102BD800BD13C554CD95CD95CDB6CDB7D5D7D5F7C1
:102BE800D5F7D5F7D5F7D5F7CDB6CDB6CDB5C5540C
:102BF800BD12BCF2B4B1AC50A42FAC50A4509C2F61
:102C08008BAE732C83EF62CC736F94D59D1884566A
:102C18006BD56BB56BB66BF86BB874197C5A847A44
:102C2800847A8C9B94BB94BB94DB9CDA9CFAA4FAC0
:102C3800A4FAA4D9A4D99CD99CD994B77BF56332BA
:102C4800526A6B6E94719CF3A4F2B574AD13A4F33D
:102C58009CB2947194928C327BD173917BD37BB666
:102C680073BA739C6B7B6B5C633C631C5AFC5AFCA9
:102C7800631D5AFC529A5ABA62FB62FA5AB962B791
:102C8800521249EF6B0F83D07B4D6AEB7B2C8BADD7
:102C98009C2EA46EB4F0BCF1BD12C554C554CD959C
:102CA800CD96CDB6D5D7D5F7D5F7D5F7D5F7D5F78E
:102CB800CDD6CDB5CD95CD74BD12B4B1AC90AC70B8
:102CC8009BEE9C0EA42F838D838E83CF7BB08C5379
:102CD8008C9673F46BB474177C597C7A7C7B7C5B20
:102CE800849C847C849C8CBC94FC9CFB9D1BA53B95
:102CF800A51AA53BAD3BAD3BAD3BAD3BAD1BA4FA27
:102D080094B89CD88C766B934A6A738E8C719CD2DB
:102D1800A4F3AD1394508C308C3094718C1083D004
:102D280083F183D27BB283F67BBA7BBC7BBC73BD59
:102D380073BD739D6B7C631C5ADB631C62FC5ADB9E
:102D480062DB62DB62BB6AFB733A6AF65A704A0B53
:102D58006AED8BCF838E7B4C9C0D9C2DACAFB4F071
:102D6800BD12BD13C534CD95CDB6D5D6D5D7D5D7DB
:102D7800D5D7D5D7CDD6CDB6D5F7CD95C574C5742D
:102D8800BD33B4D1AC90AC4F93CD93EE93EF8BEFB2
:102D980083D0739073917C1474158CB98CDB84BBCD
:102DA80084DC84DD7CBC84BD94FD94FC94FC9D3C57
:102DB800A57CA55BA55BAD5AAD5AB55AB57AB57B6E
:102DC800BD7BBD7CB53BAD1AA5199CF78C7573927C
:102DD800528A73AE94929CD2A51394717BCF83CF01
:102DE8008C108C30943094718C118C328C338C36DE
:102DF8008C3B8C3E8C3E841D841D83FD7BDD73BC27
:102E0800739C739C6B5C6B3B6B3C6B1C62DB62BAA8
:102E18006AFA7B797B957BB2524B49C8836E8BAE3D
:102E280093ED9C0DAC8FB4D0BCF2BD13BD14C57529
:102E3800CD75CD96CDB6D5D6D5D7D5F7D5D7CDD6F0
:102E4800CDD6CDB5CD95C554BD12B4D1B4B0A44F2F
:102E5800A46F9C0F9C5083CF526B422C73F48C99B7
:102E6800951B8CFC8D1D84FD84DD84FD8D1E8D1EBF
:102E7800951C9D5DA55DA55CAD7CAD9BAD7AB57AD5
:102E8800B59ABD9ABD9ABDBBBDBBBD9BB57AAD39E0
:102E9800AD38A4F6949584134A697BCF94B294B163
:102EA80094717BAE7B6E7BAF8BF08C308C1083EF94
:102EB80083EF8C108C329C96947B947E947E947EC7
:102EC800945D8C5D8C5D843C841B841B7BFB7BDA6E
:102ED8007BBA7B9A739973997359737783F57BB12E
:102EE80083F16ACD39477B0D8BAD940EA44FACB0FE
:102EF800B4D2BCF3C534C534C554C575CD95CDB66B
:102F0800D5F7D5F7D5F7D5F7CDB6CDB5CD95C574E9
:102F1800BD12B4D1B4B0AC709C0E9C70838E39A82D
:102F2800526D94D8951A8CDB8CFD8D1E84FE84FE20
:102F38008D3F851E851E955E9D5DADBEAD9DA57CB4
:102F4800AD9CB59CB59BBDBBBDBBBDBABDBABDDA1A
:102F5800BDDABDDAB5B9B578A516A4F59CB49474F4
:102F68004A6984109CD294927BAE734D7B8E83CF3A
:102F78008C108BF08C108BEF945094719CB39C96B2
:102F88009CDC949E947D947D949D94BC949C949B8D
:102F98008C7A8C598C598C3983F97BB87BB77BB682
:102FA80073967B9573927BB183D194327B7030E5B5
:102FB8007B4D93EE9C2FA470AC91B4D2C533BD1356
:102FC800C554C575CD95CDB6D5D7D5F7D5F7D5F7B1
:102FD800D5F6CD95C554C574C533BCD1AC90A47095
:102FE800A4707B6D290562ED9CB79CD98CBA8CDCEA
:102FF8008CFD8D1E8D3F8D5F8D5F8D5F8D5E955D28
:103008009D9DA59DA57CAD7BB5BCB59BB57ABD9AAC
:10301800BDBABDBABDB9BDB9BDD8BDD8BDD8BDB89A
:10302800BD97B556A4D49C94528B843194927BCF8F
:103038007B8E7B8E7B8D83CE8BEF94109431945155
:103048009C919CB29CD49CD69CFB94BD949D9CBDA9
:10305800A51D9CFC9CDB9CFB9CFA9CD89C989C78AE
:103068008C198C198C577C147B927B917B907B708C
:1030780083B08C128BF27B7031058BAE9C0FA44F02
:10308800AC70B4D1BCF2BCF3C554C575D5B6D5F790
:10309800D5D7DE18DE59CDF7D5F7CD95CD95C554E2
:1030A800BCF2BCD2B4B1ACB183CE21046B0D9C94FC
:1030B8008C1494988C998CDB8CDC8D1D851E853E38
:1030C800857F8D7F8D5E957D9D9D9D9CA57AA5793B
:1030D800B599B578B557B557BD98BD98B598BDB8E9
:1030E800BDD7BDB7BD97C5B7BD97B556ACF59CB3B1
:1030F800528B84118431738E6B4D736D7B8D8BEE87
:10310800942F9C71A472A492A4B2A4D2A4D4A4F7BC
:1031180094DB94DD9CDD9CDDA53CA53BA51AA51997
:103128009CD7A4D6A4D6A4D89C79945894768C53CA
:1031380083F183B0839083907B707B7083D28C12F1
:103148006B0E39459C3093CDA44FAC70B4D2C554A6
:10315800BD33CDB6D5B6D5F8DE19DE39DE79D63829
:10316800D617CDD6D5D6C533BD13BCF2B4B29C5054
:1031780029245ACB9C728C128C1494778C788C9955
:103188008CDB84DB851C855E7D3E7D3E8D5E8D5DA2
:10319800955C955B9D39A558AD57AD16AD16B557DD
:1031A800B557B577AD77AD76B596BDB7BD96BD7653
:1031B800BD96BD76AD35A4F45AEB8C50840F73AE32
:1031C800734D738D83EE942F9C71A492ACB3A4B30A
:1031D800A4B2A4B3A4B4A4D8A4FD9CDEA4BDA4DB6B
:1031E800A4D8ACF7AD17AD16AD15AD15A4B4A4951C
:1031F8009C76943594538C328C128BF183D08390C7
:1032080083B083B17BB17BB183D149E951E79C2F6E
:103218009C0EAC90ACD2B513C5B5CDD6CDD7D618CB
:10322800DE39DE59DE79D658D658CDF6CDD5C574F7
:10323800C554AC91ACD25A69314594728C118BF15A
:103248007B928C1494988C578C9784777C997CDA31
:1032580074BB74BC7CFD84FC8D1B951A94F89CB6D9
:10326800A4F6AD16ACF6ACF6AD16AD37AD57AD77E6
:10327800B576B556B536BD76B576B576B555AD35B0
:10328800630B8C507BEE7BCE738D7BAE8C0F9C706A
:10329800A492A492A492A492A4919C529C54A498FF
:1032A800949C947D947BA4BA9C769C949C939C92C9
:1032B800A4B3A4D39C729C529C5494548C32841111
:1032C80083B08BF28BF183B083B183D17BB17BB1B7
:1032D800736F7B6F39667B4D8BAE940FACF3BD7407
:1032E800C5B5BD54DE79F71CF71CF75DEF1CEF1B65
:1032F800E6B9CE17C5B5C595B513ACF28C3020C369
:103308007B8E8BF083D083B07BB17BD2841483F423
:1033180073926B92637363B56C596C9B647B645A4C
:103328006C1773F573B3739183F294339433945495
:103338009CD6A4F6A516A536AD36AD15AD15B53592
:10334800B535B555B535AD14632B8C307BEE83EFB1
:103358007BAE83CF8C309C719C719C719C30943077
:1033680094108BF093F39437843C841D8C3A9478B2
:10337800943494528C308C0F8C108C107BAF7B6FF4
:103388007B6F7B907BD07BB083D183D183B17B90E3
:103398007B90737073907BB16B4F6B2E41C849E87B
:1033A8009C519C519C718C0F6AEA6B0B9C71B534D3
:1033B800BD55CE18D679E6DAE6FAEEFAEEDADE3858
:1033C800ACD2A4B24A2841E89432839083F07B8F30
:1033D8007BB07B917B9173716B2F62EF424D320D05
:1033E8003A91433543B754185B955B3252CF52AE8E
:1033F8005ACE5AAD62EE737083F394759CD69CD501
:103408009CB49CB4A4D4ACF5AD14AD14AD14ACF319
:103418006B4D8C30840F840F83EF8C1094509C710B
:103428009C30941093EF8BEE8BEF8BD08BD383F87B
:1034380073FD741E7C1A7BD67371732D62EB5A8AE6
:103448004A4A4A4A41E939A8398841C9526B5AACB3
:103458006B2F7350734F734F734F734F6B2F630FF3
:10346800630F6B2F62CD20C4C5978BEF52285A4942
:10347800734C9430A4B2B514BD55BD75BD95BD95BA
:10348800ACF3BD54C595E658FF5DB53529256B0DE0
:103498008BD18BD17B8F7BB0736F73907B906AEEEF
:1034A800524B41EA31AA31ED3A9053D66CFB753B49
:1034B8007CD98CD88CB78475843373B15AEF52AEEB
:1034C80063306B717BF28C53947394739C73A4B4C4
:1034D800ACD3ACF3ACD3ACD3736E8C10840F83EF46
:1034E80083EF8BF094109C309410940F8BEE8BEE3E
:1034F80083CE7BB07B9373975B9C535C4AF64A916F
:10350800526D528B62ED738F73B16B505B0F5ACF54
:103518004A4C39A93188294841CA4A2C62CE6B0ED7
:10352800630E630E630E5AEE62EF528D62CE20E593
:10353800522A734D6ACBA492B514CDB6C575CD96F3
:10354800D618D618D638D617D617C575AC92AC711A
:10355800CDB76ACC20C483D08390732E7BD06B6E9A
:103568006B6E6B4E6B0D5A8C420A526D63105B1179
:103578003A6F2A6F2B323BB432B042F042EF42CE60
:103588005B506BF2741374146351530F52CE632F54
:103598007BB084118C1194119C72A493A4B3A4B32E
:1035A800738F84118C3083EF8BF08C1094109410EF
:1035B8008BCF8BCF83CE7B8D736D630E52B14AB5A3
:1035C80032BA22592A533A4F422C318839E952CD1E
:1035D8004A8D3A2C4A6E63526B91632F62EF5AAE52
:1035E80041EB398A41CA526C5AAD5AAD5AAD5AADFF
:1035F800528D5AAD5A8D316839677B4E8BEF9C518D
:10360800ACB2B4B2BCF4C555CD96CD96CDB6CDD737
:10361800CDB6CD75CD55AC7293F05A6A316683F14B
:103628007B4F83906B2E630D5ACC526B4A0A5AAD6E
:103638006B505ACF3A0C298B196A012901AB124DEC
:103648001A2D11CC09690928114819AA322D4AF0F6
:10365800639363924ACE31EA3A0A630E7BB083D110
:1036680094129C53A473A4937BD08C528C5183EFF7
:103678008C1094108BCF83AE836D7B4D734C630C91
:1036880052CB3A0B29AD32542A9B2ABB11D100A93F
:10369800006610A510C50023088510C708A710A745
:1036A800210831AA526D62EF6B3063104A2C39AA97
:1036B800420B526C5ACE528D5AAE526D5AAD41A938
:1036C80031266ACC7B4D93CFAC71BCD3C535CD7652
:1036D800D5B7D5D7D5F7CDB6CD75CD55C514B472F8
:1036E800A43152094A098C117B6F7B6F630D52AB71
:1036F8005ACC4A4A630E739052CE29891949218AB5
:10370800196A19CB09AA122C228E11EC11AA09697F
:10371800096919CB21EC118B116B2A0D42AF426D4F
:1037280031CA39EA528D737083D18BF29412943373
:103738008C518C3184108C1094318BD07B4D7B2D27
:1037480072EC6B0C5AAB39E82987218A21AE21F437
:1037580011F91A5911D100C908A708650064192779
:103768001107008508C710C810A610A518E631690A
:10377800422C631073916B305AAE526D5AAE630F80
:1037880062EE62CE5AAD41C93126628B7B0C9C1029
:10379800B4B2C515CD76D5B7DDF8DE39DE59DE39D8
:1037A800D5D7C534BCB3AC519C1149C84A2A843119
:1037B80083D07BAF6B2E6B4F6B4E736F6B2F4A6C46
:1037C8003A0B320B21AA114821AA2A0B11AA1A0C6A
:1037D8002A8E222C1A2C09890128094911AB092A99
:1037E800094B092A116A21CC322D31EB31AB4A6DD4
:1037F8006B0F83B18BF28C3384308C718C5083EFD8
:103808007BAE7B6E6B0C5A8A62CC4A2A318818E6EA
:1038180008C508C8090C117211F9123911D100A88C
:1038280000A710E608A529A900A4006308A61108A6
:1038380010C610E621271906294839CA528E633066
:103848006B3062EF5ACE6B0F73506B0E5AAD41E975
:1038580039466A8B7AEB9C10B4D3C555CD97D5F809
:10386800DE59E67AE6BBEEBADE59CD75BCD3A43193
:1038780093F03966528A94938C31841173B07370C3
:10388800739052AC420A3A0A3A2A4AAD322B21A91D
:103898003A6C42AE2A0C19AB222C222C326D220B28
:1038A800118919EB3AAF220E19CD19AD220D19ACB9
:1038B800112A21AB320D29AB422C528D5ACD6B50B7
:1038C8008C508C508C5083EF734D62EC5AAB5A6A13
:1038D8004A4A294718C610E608E708C808CB09511C
:1038E8000996121719F100A80086194810E608C5AC
:1038F8000042008308E629CA214810C531E9422B55
:1039080031A921272128316941EB524D5AAD6B2F3E
:103918007BB0736F6B4F4A4A2905626A7AECAC72C6
:10392800B4B3C555CDB7DE19DE7AE69BE6DBEEDB30
:10393800E69AD5F7BD14A4519C313966528B94B3DD
:103948009CB38C317BD15ACD420A296731A83A0AF7
:10395800428B52ED4ACC322A322A322B322C29CBD6
:103968002A0B324C326C322B21EA2A0C3AAF2A2E1F
:10397800116B092A114A19AB196A1129192A298BBD
:103988002148318939C952AD94708C508C0F738E8F
:103998005ACC526B4A4A4209316818E610C610C719
:1039A80010E708C808CA00ED097322762A31090908
:1039B80008C62168214710E508C4196621883A2BF2
:1039C800320A29884A8C5AED4A4B39EA3189294802
:1039D80031694A2C62CE7B9083F1738F7BD0528BF6
:1039E80029256ACC7AECAC51B4B2C535CDB7DE39ED
:1039F800DE9ADEBBE6DBE6DBE69ADE18C535AC729E
:103A0800AC9341A7526A9CF49CF39CB38C327BB074
:103A18005ACD62ED5AED630D73B073B073D06B8FEE
:103A28005B4E5B2E637152EF52CE530E4A8C428C22
:103A380042AD4AAD4ACF426E322D320D29EC29CA29
:103A4800218A218A298A214931A9424B528C632F24
:103A5800944F94708C1062EC39C82987296719062D
:103A680010A510A610C710C708C608A708C8110BCC
:103A7800199032932A0E218A2988296731A83A0990
:103A88003A4A4AAB52ED5B0E6B8F73D06BB073B092
:103A980073B06B4F6B7073917BB27BB283F29453AC
:103AA8008C326B6E632E39C82925734E834EA45110
:103AB800AC92BD14CD96D5F8DE7ADE9BE6BBE6DB8C
:103AC800E67ADE18CD55B492ACB35208526AB5D72F
:103AD8009CD2A534AD15AD16AD15A4F594739473A9
:103AE800947394538C528C528C938CB494B58433C5
:103AF8007C127C116B6F6B8F73F173F173D26B91C6
:103B08005B305B0F63706BB1636F6B6F6B905B0EB9
:103B18004A6B528C5AAC6B2E9C71943083CF630DD8
:103B280039C918E608C508C508C61908216A2169EF
:103B3800298929A931CB426E42B053125AEF6B2F13
:103B48006B4E62EC6B2D7BAF841184118C52949375
:103B58009CB494938C529CD4A5149CF4A516AD786F
:103B6800AD389CB69CB59CB484317BD0634E3A0882
:103B780039A7736E834E9BF0AC72BCF4C556D5D88A
:103B8800DE5ADE7AE6BBE6BBE67ADE18D576B49274
:103B9800AC72628A5269B5B6A534A514B535AD15AF
:103BA800A4D4A4F4B5569CB4A495A4749453947363
:103BB8008C7294B39D159CF5A515A5159CB39CB363
:103BC8009CD49CD48C738C537BF184117BCF83F071
:103BD80094929CB29CB39CD394738C327BB083F147
:103BE8009C71945183F06B2D4A6B31C92167192759
:103BF80031CA4A6D52AE528D5ACD630E632F73701F
:103C08007BF37BD283F29C739C729431A4B3ACF4A3
:103C1800A4F4ACF59C939C7394729C93A4F4A5159E
:103C2800A4F4A535A536A537A4F69CB594747BB045
:103C3800B5979CF4634D31A739C8734D836E9C10BA
:103C4800AC52BCD4C535CDD8DE3ADE7AE6BBE6BB8D
:103C5800E69ADDF8D576B492A451730C4A078C50D5
:103C6800C617B5759C72B515A4F49C939C93A4D4FF
:103C7800A4949C339C53A4B48C52949394938C52E4
:103C8800945294929CB39CB394929CB39452943162
:103C980083CF8C108C309C71A4B1ACF2B534B514C0
:103CA800B535B536ACF5ACD49CB2947283F06B2DB7
:103CB800526B41C842095ACC738F736F736F736F1D
:103CC800736E736E7B6F7B8F8BF194319C529C511A
:103CD8009C519C519C519C5194319C529C72A4B310
:103CE800ACD4A4D49CB39C939CB494B49CD5A4F5B4
:103CF800A4D5A4D58C32630EB5977BF05B0D3186C5
:103D08005249730C836EA411AC52BCF4C576CDB77E
:103D1800D619DE7AE69BE6BBE67ADE39CD76B4D3F1
:103D2800A4717B4D41C67B6D83CF9C929452B5564E
:103D3800AD15A4F4A4F4A4D4A4D494528BF18BF1BB
:103D48008C118C11943294329431943294319410B1
:103D580094319C519C309C309C309C51A491ACB2C5
:103D6800ACD2B513B534BD34BD55BD55BD55BD55E3
:103D78009CD39CB28C10736E6B0C62EC736E8C10BF
:103D88008C108BD083AF83CF83CF83AF83AF8BEF80
:103D980094109C309C309C309C309C109C30A471BA
:103DA800A472A492A4929C729C528C118C118C3295
:103DB80094949C94A4D5ACF5ACF59C948C3283F186
:103DC80073D05B0D5AEC31875A6A72EC8B8EA43132
:103DD800AC72BCF4C576CDD7D639DE7AE69BE69BC5
:103DE800E67ADE19D5B7BCF4A4927B6D41A6734C74
:103DF80083AE9C71ACD3B556B556B556B536AD1530
:103E0800AD15A4D49CB394528BF183B08BD18BF1B4
:103E180094329C529C729C72A492ACB2A491A491CC
:103E2800A470AC91B4D2B4F3BD13BD34BD34BD3568
:103E3800C575C575C575C575A4D3A4F39CB28C307A
:103E48008C108C109431945194108BCF8BCF94108C
:103E5800943094319C51A491A4B2ACD2ACD2ACD2DF
:103E6800ACB2AC91A471ACB2A471A4729C5194513F
:103E780094318C1194529CB4A515A516A4F5ACF5F3
:103E8800ACF5947383F184126B4E630D5ACC41C820
:103E980062AB7B0D8B8E9BF0B493BCF4C556CDB74B
:103EA800D619E67AE69BE69BE65ADE19D5D7CD7693
:103EB800A4719C305207732CA4B2ACD3B535ACF4C2
:103EC800B536B556B536B577B536AD35AD35ACF48E
:103ED800A4B39C739C73945294329C529C729C51D0
:103EE800A472A492ACB2ACB2ACD2B513BD54C57531
:103EF800C595CDB6CDB6CDD7CDD7CDD7CDB6C5B670
:103F0800AD34AD34ACF39C929C719C929C929C71A4
:103F180094519410941094309C519C519C71A471AC
:103F2800A490ACD1ACB1A470A470A471A4509C307E
:103F38009C309C3094109C51A4B3A4D3AD14B556B6
:103F4800B556B536AD16A4D5A4B49C738C1283F1BE
:103F58007BB0736E5A8A52496AEC836E93AFA43170
:103F6800BCB3C515C556CD97D618DE5AE69AEEBB32
:103F7800E659E639D5D7D5B6B4D3B4D37B4C6AEB7A
:103F8800B534B514B515ACF4BD56BD57B536BD77C7
:103F9800B556B556B556B576BD76BD76B556B51592
:103FA800AD15B515AD15ACF4B4F4B534BD55C5951E
:103FB800CDB6CDD6D5F7D5F7D5F7D5F7D617D618C8
:103FC800D618D618D5F7CDD7B554AD33A4F2A4B2C8
:103FD800A4B2A4D2ACF3ACD2A4B2A4B2ACB2A4B191
:103FE800A491A491A491A4909C4FA4909C4F940E4A
:103FF8009C2FA470A470A450AC91ACB2ACD3B534CF
:10400800BD76BD76BD76BD76B556B536B516ACD59A
:104018009C74945394538BF17B8F83AF62AB6ACBC0
:104028007B4D8BAF93D0AC52BCD4C535CD76D5B7CC
:10403800DE18E67AEE9AEEBBEE7AE619DE18D5B609
:10404800CD75ACB2A4716ACAACD3BD35B515B5157A
:10405800BD57BD77BD57BD77BD97BD77BD96BD76BA
:10406800B556BD76BD97BD97C5B8C5D8C5D8C5D80E
:10407800CDD8CDF7D5F7D618D617D617DE38DE380F
:10408800DE58DE38DE38DE59DE38D638D618D5F7B1
:10409800B533ACF3ACF2ACF2AD13AD13B513B51345
:1040A800B513B533BD53BD33BD33BD53BD53BD3358
:1040B800BD53BD32BD32BD33BD33BD33BD54C574F0
:1040C800C595CD96CDB6CDB7CDD7C5B7BD96C59656
:1040D800C597B516B516ACF6A4949C749C538BF191
:1040E80083AF8BCF7B2C730C8BAE93CF9C11A452D8
:1040F800BCB3C535CD96D5D7DE19E65AEE7AEE9A19
:10410800EE7AE639E618DDF8D5D7B4D2BD13836D5B
:10411800A471C596BD56BD56B536BD77C597C59829
:10412800BD97BD97C5B7C5B7BD76BD76BD97C5B7B1
:10413800C5B8CDD9CDF9CDF8CDF8D5F8D618D6383B
:10414800D617D617DE38DE79E679E699E699E67964
:10415800DE59DE38D618D617B554AD13ACF2B51300
:10416800B513B533BD54BD54C574C595CDB5C59506
:10417800C594CDB5CDB5CDB5D5F5CDD5D5F5D61636
:10418800CDB5CD95D5D6D5D6CDD6D5D7CDD7CDB677
:10419800C596C596C596C596C597BD15B4F5ACF632
:1041A800ACF6ACF5A4B4945294108BEF836D836D88
:1041B8009C10A431A472AC93BCB3C514CD76D5B70A
:1041C800DE18E659E67AEE7AEE7AEE59E5F8E61860
:1041D800DDD7CD75C534A47193EFC575CD96C59659
:1041E800C556C5B8C5B8C5B8C5B8BD97C5B8C5D84A
:1041F800C5D8C5D8C5D8C5B8CDF9CDF9CDF9CDF94B
:10420800D5F9D619DE39DE59DE59DE58DE59E67998
:10421800E699E699E679E679E679DE59DE38D61840
:10422800B513ACF2B533BD54BD53BD54C594C59454
:10423800CDB5CDB5CDB5CDB5CDD5CDD5D5D5D5F5B6
:10424800D5F5D5D5DE16D5D5C554C574D5D6D5B6CC
:10425800CDB6D5D7CDB7CD96CDB7CDB7C596C576A2
:10426800C576C577BD36B516ACF6ACF6A4B4A4933E
:104278009C3193EF836D93EFA451A472A452B4B40C
:10428800BCD4C515CD76D5B7DE18E659EE7AEE7AE8
:10429800EE7AEE5AEE59DDD7DDF7DDF7C534B4D244
:1042A8009BEFC554CDB6CD96C576C597C597CDD8E5
:1042B800CDF9C5B8C5B8C5D8C5B8C5B8CDD8CDF934
:1042C800CDF9D5F9D5F9D619D619DE39DE39DE5941
:1042D800DE59DE39DE59E679E699E699E699E699F6
:1042E800E679E659DE38DE38B533B533BD34BD542A
:1042F800BD54C594CDB5CDD5CDD5CDD6D5D6D5D68D
:10430800D5F6D5F6D5F6DDF6D5F5DE16DDF6D5D536
:10431800D5D6D5D6D5B6D5B6D5B6CD96CD96CD9675
:10432800CDB7CDB7CDB7CDB7C596BD35C577BD56D9
:10433800AD16AD15A4B4A4B39C308BCE93CEA450C7
:10434800AC92ACB2ACB3B4D4BCD4CD35D596DDD731
:10435800DE18E639E659EE7AEE7AEE7AEE5AE61883
:10436800DDF7E618D5B6BCF3A42FAC71DE17D5D6A9
:10437800CDB6CDB7CDB7CDD8CDB8CDD8CDF9D63A05
:10438800CDF9CDF9D619D63AD61AD61AD61ADE3AB2
:10439800DE3ADE5ADE5AE65AE67AE67AE659E6590F
:1043A800E679EE9AEE9AE699E679E679E658DE3805
:1043B800BD34BD54BD74C575C595CDB5CDD6D5D65E
:1043C800D5D6D5D6D5F6D5F6D5F6D5F6DDF6DDF6BD
:1043D800D5D5DDF6DDF6DDD6D5D6D5D6D5B6D5B666
:1043E800D5B7D5B7D5B7D5D8D5D8D5D7CDB7CD9634
:1043F800C576C576BD56BD76B536B515ACF49C51B7
:104408008BAE8BAE9C0FA471AC92AC92B4D4BCF5BD
:10441800C535D576D5B7DDD7E618E639EE5AEE7A42
:10442800F69BEE7AEE7AEE39E618E618DDF7CD75EA
:10443800B4919C0ECD54DE17D5B6D5D7D5F8CDD7C7
:10444800D619D5F9CDF9D5F9CDF9D5F9D61AD63A7F
:10445800D61ADE3ADE3ADE3ADE5AE65AE65AE65A24
:10446800E67AE67AE679E679E679EE9AEE9AEE99D0
:10447800E699E679E659E658BD34BD54C595C59523
:10448800CDB6CDD6D5D6D5D6D5F6D5F6D5F6D5F67C
:10449800DDF6DDF6DDF6DDF6D5D6DDF6DDF7DDD6C3
:1044A800DDD7D5D7D5D7D5D7D5D7D5D8D5D8D5D899
:1044B800D5D8D5D8D5B7CDB7CDB6C575C576C57657
:1044C800BD35B4F4A49293EF836D8BAE9C2FAC9161
:1044D800AC92AC92B4F4C535CD76D5B7DDD7DDD87E
:1044E800E619E639E659EE7AEE9AEE7AEE7AEE7A3F
:1044F800E639E638E618DDD6C513A42FAC4FDDF64D
:10450800DE37D5D6DE17D5F7DE39DE39D619D61916
:10451800D63AD61AD619D5F9DE3ADE3ADE3ADE5A56
:10452800E65AE65AE65AE67AE67AE67AE67AEE7ADB
:10453800EE9AEE9AEEBAEE99EE99E679E679E658B1
:10454800BD54BD74C595C5B5CDB6CDD6D5D6D5D6D1
:10455800D5F6D5F6D5F6D5F6DDF6DDF6DDF6DDF6DB
:10456800DDF6DDF7DDD7D5D7D5D7DDD7DDF8DDF832
:10457800D5F8D5F8D5F8D5F8D5D8D5F8D5F8D5D70C
:10458800CDB6D5F7C575BD55BD14B4F3ACB2834CE3
:10459800838D93CE9C2FA471AC92B4D3BD15CD76E8
:1045A800D597DDB7DDD8DDF8E619E639E639E6391D
:1045B800EE5AEE5AEE9AF69AEE7AE659E638DE1791
:1045C800CD54B4B1A40EBCF2E637E637D5F6DE38E2
:1045D800DE39DE59DE39D619DE5ADE5AD619D5F952
:1045E800DE3ADE3ADE5AE65AE65AE65AE67BEE7BD1
:1045F800EE7BEE9BEE9AEE9AEE9AEE9AEE99EE9993
:10460800EE99E679E679E679BD54C575C595CDB5D7
:10461800CDB6CDD6D5F6D5F6D5F6D5F6D5F6DDF7A1
:10462800DE17DE17DE17DDF7DE17DDF7D5D7D5D7AE
:10463800DDF8DDF8DDF8DE18D5F8DE18DE19DE184D
:10464800DE18D5F8D5F7D5D7D5F7C575CD95BD34CE
:10465800BCF3BCF293CE834C8B8D93EE9C30A4714B
:10466800B4D3BD14C556CD77D597DDD8DDF8E61996
:10467800E639E63AE63AE63AE65AEE7AEEBBF6BBB1
:10468800EE9AEE9AEE59E618DDB6BCD2BCD19BEE96
:10469800CD73E657DE37DE37DE38DE59DE39D61918
:1046A800DE3ADE5ADE3ADE3ADE3ADE3AE65AE65BD1
:1046B800E65BE65AE67BEE9BEE9BEE9BEEBBEEBB23
:1046C800EEBAEE9AEE99EE99EE99EE99E679E679D8
:1046D800BD75C595C595C5B5CDB5CDD6D5F6D5F6B7
:1046E800D5F6D5F6D5F6DDF7DE17DE17DE17DE17B9
:1046F800DE17DDF7D5F7DDF7DE18DE19DE18DE196F
:10470800DE39DE39DE39D618D618D618D5F7D5D71A
:10471800CDD6CDB6C575C533B49193AD832B834C37
:104728008B6C9C0FA471AC92BCF4C535CD56CD569C
:10473800D597DDD8DDF8E619E639EE5AE65AE65A95
:10474800EE7AEE9BEEBBEE9BEEBBF6BBEE7AE6395D
:10475800E5F7CD34B470BCD1A42EDDF5E657DE16EE
:10476800DE17DE38DE38DE39DE39E65ADE59DE5A43
:10477800DE3ADE5AE65AE67BE67BE67BE67BE69B9C
:10478800EE9BEEBBEEBBEEBBEEBAEE9AEE99EE995F
:10479800EE99EE99EE99EE99C575C595C595C595AD
:1047A800CDB5CDD6D5F6D5F6D5F6D5F6D616DE17CF
:1047B800DE17DE17DE17DE17DE17DE17D5F7DE1871
:1047C800DE39DE39DE39DE39DE5ADE59DE39D61811
:1047D800D618D617D5F7CDF6CDB6CDB5C533A42F97
:1047E8009BAD8B4B82CA8B2B93ADA430ACB2B4B3C8
:1047F800BD14C535CD35CD56D597DDD8DDF8E619CC
:10480800E63AE63AE63AE63AE67AEE9BEE9BEE9B25
:10481800EEBBF6BBEE9AEE59EE38DD96BCD2BCD1B3
:10482800B4B0B4B0DE16DE16DE17DE17DE38DE39B9
:10483800DE39DE39E659DE39DE5ADE5AE65AE67BDB
:10484800E67BE67BE67BE69BEEBBEEBBEEBBEEDBF8
:10485800EEBAE69AE699EEB9EE99EE99EE99EE99E6
:10486800BD95C5B5C5B5C5B5C5B5CDD6CDF6D5F6D5
:10487800D616D617DE17DE17DE17DE17DE17DE1799
:10488800DE38DE18D5F7DE18DE39DE39DE39DE7AB5
:10489800DE39DE59DE39D638D638D638D5F7CDB632
:1048A800D5D6BD1393AD938C9BAD82EA82EA938DE6
:1048B800A42FAC92B4B3B4D3BD15C535CD36D576D7
:1048C800D597DDD8E619E63AEE5AE65AE63AE63AD8
:1048D800E67AEE9BEE9BEEBBF6DBF6DBEE9AEE7A23
:1048E800E618EE38D554BC91BCB1BCD1BCF1E63663
:1048F800E637DE17DE17DE38DE18DE38E659E65909
:10490800DE39DE5AE65AE65AE65AE67BE67BE69B4D
:10491800EEBBEEBBEEBBEEDBEEBAEEBAEE99EEBA4C
:10492800EEB9EE99EE99EE99DE99BDB5BDB5C5D64D
:10493800C5B5CDD6CDF6CDF6D617D617DE17DE1708
:10494800DE37DE38DE38DE18DE18DE18DE18DE3830
:10495800DE39DE39DE39DE39D638DE59D638D618B2
:10496800D638D5F7CDD6D5F6B4D1830A8B6CA40E3C
:104978008B6C7AEA93CEA430B4B2B4D3B4D3BCF47B
:10498800C535C555C535CD56D597DDF8E639E65A4E
:10499800E65AE63AE63AE63AE65AEE9BEE9BEE9A95
:1049A800F6DBF6DBEE9AEE79EE38EE38E5F7D574FD
:1049B800BC91BC70BC90BCB0E657EE98D5D6CDF68D
:1049C800D617DE38DE39DE19E639E65AE63AE65A0F
:1049D800E67BE69BE67BE67BE69BEE9BEEBBEEBBCF
:1049E800EEBBEEBAEEBAEEBAEE99EE99EE99EEB9E2
:1049F800CE58EF5CCE58BDB5C5F7C5D6CDF7CDD6E8
:104A0800CDF7D638DE58DE58DE38DE17DE17DE186A
:104A1800E638DE18DE18DE18E639E659E659DE39DA
:104A2800D5F8D618D618D618CDD7D617CDB69C0F28
:104A3800830A9BADAC2F936C7AEA938DAC91AC71E1
:104A4800ACB2B4D3B4D3BCF4BD15C535C535CD5659
:104A5800D597DDD8E639E65AE65AE65AE63AE63A0E
:104A6800E65AEE9BEE9BEE7AEE79EE79EE79EE79E8
:104A7800E658E638E5F7E5D6DD74C4B1B42FB46F6F
:104A8800AC4FDDF5F6D9EED9CDD6CDB6DE18DE18A9
:104A9800DE19E639E639E65AE67AE67BE67BE69BF6
:104AA800E69BE69BEEBBEEBBEEBBF6BBEE9AEE9941
:104AB800EEBAEEBAEEBAEEB984309CB2DEDBE6FBB3
:104AC800C5F7CDF7C5D7CE18CDD7D5F8D618DE1887
:104AD800DE18DE18DE18E618DE18E619E639E639BB
:104AE800DE19DE18DE18DE19DDF8DE18DDF8D5D798
:104AF800D5D7B4D38B6D8B6DAC2FAC2F934C7AA9D3
:104B0800938DB491B4B2A451B4B2B4D3B4D3BCF4B9
:104B1800BD14C515C535CD55D596DDD7E619E65969
:104B2800E659E659E639E639E659EE5AEE7AEE598B
:104B3800E638E638E638E637E617DE17DDF6E5D676
:104B4800EDF7DD95C491ABCDBC70B44FC4F1F698C8
:104B5800FEFAE658D5F7D5D7D5F8DE18DE39E65986
:104B6800E67AE69BE67AE67BE69BE69BE69BEE9A90
:104B7800EEBAEEBAEEBAE69AE699E6BAE699DE99A0
:104B8800BDB69CD383CFAD14DE9ADE9ADE7ACE18FA
:104B9800CDF8D5F8D618D618DE39DE39DE19DE1884
:104BA800DE18DE38DE39DE39DE18DE18DE18DE38CB
:104BB800DE38D5D7CD96C534A3EF8B6DAC51B49103
:104BC800AC2FA3CD7AC97ACAA40FB4B1AC71A43002
:104BD800AC71B4B2B4B3B4D3BCD3BCF4C514CD5522
:104BE800CD75D5B6DDF7E618E618E618E618E61826
:104BF800E618E618E618E618E5F7E5F7DDF6D595C0
:104C0800D5B5D595DDD6DDB6E5F7EE37DD95AC0E35
:104C1800A38CBC2EBC4FBC90DD94F6B9F6DAE679CD
:104C2800D5F7D5F8D5F8D5F8DE39DE5ADE59D65994
:104C3800DE9ADE9AE69ADE9ADE7AE69AE69AE69AAC
:104C4800DE99E6DAEEFBEF1BB555BD97BD76A4B34A
:104C5800A4D3BDB6CE18D659DE79DE9ADE9ADE79AF
:104C6800DE79DE79DE79D679D699D679D679D6996C
:104C7800DE99DE79CDF7C595ACB29C1093CE938EB4
:104C8800AC50BCD2AC30ABEF9BAD8B0A72688B4B8F
:104C9800B491BCB2A4309BCFA410A450AC51AC5179
:104CA800AC71B492BCB2C4F3CD34D575D596DDB62B
:104CB800DDB6DDB7DDB7DDB7DDB7D596DDB6DDB678
:104CC800DDB5DDB5D574CD13CD13C512D595D5B5E4
:104CD800D5D6E617E637D553934B9B6BB3EDBC2E71
:104CE800BC6FBC90CD34EE99F71BF71CEEDBE6BA2F
:104CF800E69ADE9ADE7AD67ACE39D659D67ADE9A0E
:104D0800E6BBE6FBEEFBEEFBF75CEEDADE58CDF732
:104D1800BD55BD35C576C5B7C596B535ACD3A4B3B5
:104D280094509C92ACF3BD75CDF7CE17CDF7C5D690
:104D3800C5F6BDB5B554ACF3A491942F838D7B2BE8
:104D4800834C9BEFAC70BCD2C4B2B42FABEFA3AD15
:104D58009B8D82CA7A88A3EEB491AC50A3EF9BEFE7
:104D680093AE9BCF9BCF9BCFA3EFA40FAC30B49156
:104D7800C4F3CD14CD34D555CD55D555D555D555C8
:104D8800CD55CD54D554D554CD33CD13C4F2C4B17B
:104D9800C490C4D1CD13CD74D5D6DE17E617E61668
:104DA800A3AC92E9A36BAB8BABACB40EB42FAC0F36
:104DB800BCB2CD54DDF7EE99F6FBFF1CFF3CFF3D7E
:104DC800FF5DFF5DFF3CFF3CFF5CF71CEEBAE65859
:104DD800C595BD54BD33C554BD34BD35BD34BD5571
:104DE800BD55C575CD96C555C534B4F3AC91A45021
:104DF800A450A4509C0F9BEF938D936D8B4C8B4CC0
:104E0800936D9BAEAC0FB450C4D2BC91BC90B42F80
:104E1800B40EBC4FB40EA3AD934C82EA7AA9A3CECC
:104E2800AC50AC50A3EF936D936D938D8B6D8B2C21
:104E38008B4C936D9BAEA3EFB471BC92C4D2C4F3F8
:104E4800C4F3CD14CD14CD13C4F3CD13C4F3C4D21D
:104E5800C4D2BC91B470B42FBC2FC490C4B1CD33AC
:104E6800D5B5DDF6DDF6E5F6C4D18AC99AE9AB4BCE
:104E7800AB8BB3ADB3CDB3EEAB8CB3ADABADABAD2C
:104E8800B3EEBC50C4D2D533D554D554D554D5542B
:104E9800D553CD13C4D2BCB1C4F2CD33D595DDD62C
:104EA800BD14BD34C534C534C534C514C513CD547B
:104EB800C513C513C513C4F3BCD2BCD2BCB2BC91D4
:104EC800C4B2C4B2C4B2C4B2C491C471BC70BC5040
:104ED800BC2FBC2FBC2FBC70BC70B42EABEEABED9E
:104EE8009BAD8B2B82CA9BCEA40FA3EE9BCE938D3A
:104EF8008B4C8B4C830B82CA82CA82EB8B2C9B6DAA
:104F0800A3EFAC10BC71BC92C4B2C4B2C4D2C4B2D8
:104F1800C4D2C4D2C4B2BC91BCB1BC70AC0EABCECE
:104F2800B3EEBC2EBC90CD33CD53CD94D5B4DDB506
:104F3800D5329B4B9B0AA32AAB6BB3ACB3ADBBED8D
:104F4800BBEDC3EEBBEEBBEEBC2EC42FBC2FBC4FDB
:104F5800BC70C491C4B1CCD1CCF2D512D533DD53D9
:104F6800DD95DDB5DDD5DDD6BD13BD14C534BD3445
:104F7800BD13BD13C513C513C4F3C4F2C4D2C4D240
:104F8800C4D2C4D2C4D2C4B2C4B2CCD2CCD3CCD290
:104F9800CCD2CCD2CCD2CCD2CCD2C4D1C4B1C4B075
:104FA800BC90B44FAC2EAC0E9BAD934C8B2B936C3A
:104FB8009BAD9BAD936C934C8B0B82EB82CA7AAA08
:104FC8007A897A8982EA8B2B934C9B8DA3CFAC0F7D
:104FD800B450B451B451B450BC71BC71B451B45054
:104FE800B40FABEEA3ADA3ADABCDABEEB44FC4B035
:104FF800CD11CD12CD32D553CCD1ABADA34BA34BF4
:10500800A34BABACBC0DBC0EBC2FC450C491CCB1EF
:10501800CCF2D533D554D595DDB6DDD6DDD6DDF762
:10502800DDF7E5F7E5F7E617E617DE17DE17E6170B
:10503800BD13BD13BD33BD13BD13C514C513C5338F
:10504800C513C533CD13CD13CD13CD33CD34CD34E6
:10505800D554D555D555D554D554D534D513CD13A8
:10506800CD12C4D2C4B1BC90BC90B44FAC2EAC0E1F
:10507800A3EE9B8D8B2B8B2B934C934C8B2B830B01
:105088008B0B82CA7A897268726872897AAA82EBF3
:105098008B0B932C9B6DA3AEABEFABEFABEFB430A8
:1050A800AC0FAC10AC10ABEFABEEABEEA3CEA3AD38
:1050B800ABCDABEDB40EB42EBC6FC4D0CCF1CCF1FB
:1050C800C491B3EEABADA38DA34BAB8CB3EDBC2EAB
:1050D800BC50C491CCD2CCF3CD34D555D595D5B6EA
:1050E800DDD7DDF7DE18E638E638DE38DE18DE18FC
:1050F800DE37DE37DE37E637BD14BD14BD14BD34E8
:10510800BD34C534C534C534C554CD75CD75CD75DC
:10511800CD75CD95D595D5B6D596D5B6D596D59523
:10512800D575CD54CD34CD13CD13CCF2C4B2C491C2
:10513800BC70B450B42FAC0FAC2F9BCD8B4B82EA14
:1051480082EA8B0B8B0B82EA82AA82EA82EA7AA92C
:1051580072897A897AAA7AAA82CA8AEB932C9B6D79
:105168009B8D9B6D9B6DA3AEA3CE9B8EA3AEA3CE52
:10517800A3AE8B0B7A4869E67A688AE9A36BABCC55
:10518800B40DB42DBC4EC490BC70B450B430A3CE92
:105198009B6CA36CB3ACBC0EC450C491CCD3CD13E0
:1051A800D534D575DDB6DDD7DDF7DE18E638E63857
:1051B800E638E638E638DE18E638E638E638E6381F
:1051C800B514B514BD14BD34BD34C555C555C55544
:1051D800C555CD75CD95CD95CD95D596D5B6D5D6A4
:1051E800D5B6D5B6D5B6D596D595D575D534CD34ED
:1051F800CD14CCF3C4B2C491BC71B450B430B42F44
:10520800AC0FA3EE936C82CA7AA982CA82EA82CAD8
:105218007A896A07516440C240C251446A277ACAEF
:1052280082CA82CA8AEB8B0B8B0C8B0C932C934D06
:105238009B8D9B8D9B8D934C82A961C65964598423
:105248005943616471E592C9ABACB3EDB40EB44F88
:10525800BC91BCB1BC91AC2FABCDA38CAB8CBBEEDD
:10526800BC2FC471CCD2CCF3D513D554DD96DDD781
:10527800DDF7DE17E638E638E638E638E638E638A9
:10528800E639E638E638E638B4F3B514BD14BD346B
:10529800BD34C555C555C555CD55CD75D576D596AD
:1052A800D576D596DDB6DDB6DDB6D5B6D596D59626
:1052B800D575D575D555D534CCF3C4D2C4B2BC9107
:1052C800B470B450AC50AC50B450AC2F9BAD830A02
:1052D8007A897A6972687248598540C22820308173
:1052E80040C340E3516561E77AA982EA82EB82CA4A
:1052F80082CA82CA82EB8B2B934C9B6D932C7A8942
:105308007227722772487A687A4871E669C57A47BF
:10531800930AA38CABEDB46FBCF1BCF2BCF2BC91A8
:10532800B42FABADAB6BBBCDBC0EC470C4B1CCD18C
:10533800CCF2CD33D594DDD6DDF6DE17E637E63789
:10534800E637E658E658E658E638E638E638E63806
:10535800B4D3B4F3BD14BD34BD34C534C555CD750F
:10536800CD55CD75D575D576D576D596DD96DDB680
:10537800D596D596D575D575D555D534D534D51397
:10538800CCF3CCD2C4B1BC90B470AC4FAC50B470B8
:10539800AC4FAC2F9BAD82EA6A2761C65985514450
:1053A80040E33881388138C24904492449244944B2
:1053B80061E6726882CA82CA82CA82CA82EA8B0B92
:1053C8008B2B8B0B82CA7AA982C982EA7AA9724787
:1053D80069C669C669A569E682889B6CB44FC4D161
:1053E800BCF2C512C532C4F2BC90ABCDA36BB3AD51
:1053F800B3EEBC4FC490C4B1CCD2CD13D554D5951F
:10540800DDD5DDF6DE17E637E637E637E637E63888
:10541800E638E638E638E638B4B2BCD3BD13C5146E
:10542800C514C534C554CD55C554CD55CD75CD75A8
:10543800CD95CD96D5B6D595D5B5D595D575D57522
:10544800D554D533CD13CCF2CCF2C4D1BC90B46FC3
:10545800B44FB44FB46FB490B490B470A40E934CDE
:105468007AA96A0761A6598551445165516549244D
:105478004924516551A65185516461C66A477A89A4
:105488007AC982EA830A8B0B82CA82CA82CA830AD1
:105498008B0A82C97A887A68724872487248828907
:1054A8009B4CB42FC491C4D1C4F2C512CD32C512DD
:1054B800C4D1B42EA3ACA38CB3CDBC0FC450C4913B
:1054C800CCB2CCF2D533D574D595DDB5DDF6DDF7A4
:1054D800E617E617E617E617E617DE17E637E637A4
:1054E800B4B2BCD3BCF3C514C514C534C554C55532
:1054F800C555CD75CD75CD75CD95CD95CD95CD953C
:10550800D595D574D574D574D554D533CCF2CCD2C1
:10551800CCD1C490B44FB42EAC2EAC4FB46FB49071
:10552800B470AC4FA3EE9B8D8B0B7A896A286A27DF
:10553800620761C659C659C659C659C659C661E7F0
:10554800620661E661C5620672687288728872884E
:1055580072887AA982EA8B2A934B936B8B4B8B0ABE
:10556800936C934C936CA3AEB430C491C4D2CD1356
:10557800CD33CD33CD53CD32C512BCB0ABED9B6C22
:10558800AB8CB3CEBC2FC450CC91CCD2D513D53470
:10559800DD95DD95DDB6DDD6DDD6DDD6E5F7E5F7BB
:1055A800DE17DE17E617E617ACB2B4D2B4F3BCF3D5
:1055B800BD13C534C534C534C554C554CD55CD7592
:1055C800CD75CD75CD75CD75CD74CD74D554CD3320
:1055D800CD33CD12CCD2C4B1BC70BC70B44FAC0EBC
:1055E800AC2EB46FB490B490AC70AC4FA40E938D45
:1055F8008B2B82EA7AA9728972686A686A686A4833
:105608006A486A27622762276A476A476A276A26BA
:105618006A266A266A4772677AA882E98B2A936B98
:10562800938C9BCDA3EEA3EEA40EAC2FB450BC91EB
:10563800C4D2C513CD33CD34CD74CD74CD74CD3330
:10564800CD13C4F2B44FA3ADA36BAB8CB3EDC42F91
:10565800C470CC91CCD2D513D554DD95DDB5D5B574
:10566800DDD6DDF6DDF6DDD6DDF6DDF6DDF7DDF7D8
:10567800A471ACB2B4F2B4F3BD13BD33C534C534B0
:10568800C534C554CD54CD54CD55CD55CD54CD3458
:10569800CD54CD54CD33CD13CCF2C4D2C4B1C490C3
:1056A800BC70B42FAC0EAC0EAC2FB490B490B490C8
:1056B800AC70AC70AC2FA3EE9BAD8B6C832B82EAE5
:1056C8007AC97AC972C972A972A972A972887288CC
:1056D80072887288728872887287728772877287F6
:1056E8007AE98B2A938C9BCDA3EEAC2FAC6FB47068
:1056F800B490BCB1C4F2C533CD54D595D595D5B5C4
:10570800D5B5D5B5D595CD74CD53C513BCB1AC0EB3
:105718009B6BA36BAB8CB3EEC42FC450CC91D4F26B
:10572800D533D574D594D594D5B5DDB5DDD6DDD6CC
:10573800DDF6DDF7DDF7DDF79C50A491ACD2B4F3CC
:10574800B4F3BD13BD13C533C534C534CD54CD54DE
:10575800CD54CD54CD34C534C513CD33CD13CD126E
:10576800C4D2C4B1BC70BC4FB44FAC0EA3CDAC0E08
:10577800B46FB490B4B0B490AC70B470AC70AC4FBB
:10578800A40F9BCE938D8B6C8B4C8B4B832B830BF5
:10579800830A7AEA7AEA7AEA830A7B0A7AE97AE970
:1057A8007B09830983098309834A93AC9C0EA44F20
:1057B800AC70B4B1BCF1BD12BCF2C512C553CD94E6
:1057C800D5B5D5D6D5D6D5D6D5D6D5D6D5B6CD9503
:1057D800CD74CD53BCF2B470A3CDA36BA34BABACCB
:1057E800BC0EC44FC470CCB1CCF2D533D554D594CB
:1057F800D595DDB5DDB5DDD6DDF6DDF6DDF7DDF712
:105808009C30A470AC91B4D2B4F2BCF3BD13BD13F8
:10581800C533C534C534CD34CD34CD34CD34CD3392
:10582800C513CD13CD12C4F2C4D1BC90B44FB42E5D
:10583800ABEEA3CDA3CDAC2EB470B490B490B4911C
:10584800B491B491B491AC70AC4FA40F9BEE9BCDC6
:1058580093AD93AD938D8B6C8B6C8B4C834C834B3E
:105868008B6C8B6B8B6B8B6B8B8B8B8C93AC93ACAC
:1058780093AC9C0EAC6FB4B1B4D1BD12C533C55353
:10588800C573CD74CDB5D5D6D5F6D617D617D617D8
:10589800D617D5F6D5F6D5B5CD95CD74C533BCD1CB
:1058A800AC2FA38C930A9B2BAB8DB3EEBC4FC4706B
:1058B800C4B1CCF2CD33D574DD95DDB5DDB5DDD51C
:1058C800DDD6DDD6DDD6DDD69C509C50A471AC91DA
:1058D800ACB2B4F2BCF2BCF2BD13C513C513C51308
:1058E800C513C513C513C4F3CD12C4F2C4D1BCB1DA
:1058F800BC90B44FAC0EA3EE9BAC9BACA3EDAC4FED
:10590800B490B490AC91B4B1B4D1B4D2B4D2B4B16F
:10591800AC91A470A44F9C2F93EE93EE93CE93CEAC
:1059280093CD93CD93CE93CE93CD93EE9C0E9C2E98
:105938009C0E9C0E9C0E9C0EA42FAC4FB4B1BCF2D6
:10594800BD33C553C574CD94CDB5D5D5D5F6DE17C1
:10595800DE37DE38DE38DE38DE38DE17DE17D5F61D
:10596800D5B6CD95CD74C513BCB1AC0E9B6C932B3D
:105978009B2BA36CB3CDBC4FC490C4B1CCF2CD3338
:10598800D574D574DD94DDB5DDD6DDD6D5B5D5B500
:10599800A471A450A450A471AC91B4B2B4D2B4D23E
:1059A800BCF2BCF2BCF2BCF2BCF2C4F2C4F2C4D287
:1059B800C4D1C4B1BC90BC70B44FAC0EA3CD9BACE9
:1059C8009BCD9BEEA44FAC90B4B1B4D1B4D2B4D2B9
:1059D800B4D2B4F2B4F2B4F2B4D2ACB1A491A4701B
:1059E8009C509C2F9C2F9C2F940F940F9C2F9C2F86
:1059F8009C2FA44FAC70AC90AC70AC70AC70AC7019
:105A0800B490B491BCD2C533CD74CD95CDB5D5D6AF
:105A1800D5F6D5F6D617DE37DE58DE58DE58DE580E
:105A2800DE58DE38DE38DE17D5D6D5B6CD95CD545E
:105A3800C533BCB1AC0F9B6C930A92EA9B4BABADE0
:105A4800BC4FC490C4D1CCF2D533D554DD94DDB568
:105A5800DDD5D5B5D5B5D5B5ACB1A491A470A47133
:105A6800AC91ACB1B4B1B4D2BCD2BCF2BCF2C4F209
:105A7800C4F2C4F2C4D2C4D1BCB0BC90BC70B44FA0
:105A8800AC2EA3ED9BED9BEDAC6FAC90B4B1B4B173
:105A9800B4D1B4F2BCF2BD13B4F2B513BD13B5134F
:105AA800B4F2B4D2ACD2A4B1A491A491A491A4703C
:105AB8009C509C509C50A470AC91ACB1B4B1B4B1A2
:105AC800B4B1B4B1B4B1B4B1BCB2BCD2BCF3C55476
