:020000040800F2
:100000000080012091080008190800081F08000856
:10001000250800082B08000831080008000000002F
:100020000000000000000000000000003708000889
:100030004508000800000000530800086108000897
:10004000E1080008E1080008E1080008E1080008EC
:10005000E1080008E1080008E1080008E1080008DC
:10006000E1080008E1080008E1080008E1080008CC
:10007000E1080008E1080008E1080008E1080008BC
:10008000E1080008E1080008E1080008E1080008AC
:10009000E1080008E1080008E1080008E10800089C
:1000A000E1080008E1080008E1080008E10800088C
:1000B000E1080008E1080008E1080008E10800087C
:1000C000E1080008E1080008E1080008E10800086C
:1000D000E1080008E1080008E1080008E10800085C
:1000E000E1080008E1080008E1080008E10800084C
:1000F000E1080008E1080008E1080008E10800083C
:10010000E1080008E1080008E1080008E10800082B
:10011000E1080008E1080008E1080008E10800081B
:10012000E1080008E1080008E1080008E10800080B
:10013000E1080008E1080008E1080008E1080008FB
:10014000E1080008E1080008E1080008E1080008EB
:10015000E1080008E1080008E1080008E1080008DB
:10016000E1080008E1080008E1080008E1080008CB
:10017000E1080008E1080008E108000800000000AC
:08018000E1080008E108000895
:1001880010B5054C237833B9044B13B10448AFF3C9
:1001980000800123237010BD0C0000200000000027
:1001A8000023000808B5034B1BB103490348AFF30C
:1001B800008008BD00000000100000200023000897
:1001C80080B588B000AF07F10C0300221A605A60AE
:1001D8009A60DA601A611E4BDB6C1D4A43F0040317
:1001E800D3641B4BDB6C03F00403BB60BB68184B88
:1001F800DB6C174A43F00203D364154BDB6C03F046
:1002080002037B607B68124BDB6C114A43F00103ED
:10021800D3640F4BDB6C03F001033B603B680022A7
:1002280041F604010B4800F0E9FD41F60403FB60C8
:1002380001233B6100237B610023BB6107F10C03B1
:100248001946044800F030FC00BF2037BD4680BD89
:10025800001002400004004880B582B000AF034699
:10026800FB7100224FF400610C4800F0C7FD00222A
:100278004FF48051094800F0C1FDF91D4FF0FF33DC
:100288000122074801F0A1FC01224FF480510348E4
:1002980000F0B4FD00BF0837BD4680BD000400482B
:1002A8002800002080B582B000AF0346FB71012210
:1002B8004FF400610C4800F0A1FD00224FF480517A
:1002C800094800F09BFDF91D4FF0FF330122074854
:1002D80001F07BFC01224FF48051034800F08EFDB1
:1002E80000BF0837BD4680BD000400482800002034
:1002F80080B582B000AF0346FB80FB8803F48073AF
:10030800002B05D0FB88DBB21846FFF7A5FF04E0F9
:10031800FB88DBB21846FFF7C5FF00BF0837BD46AC
:1003280080BD000080B582B000AF002204211748CC
:1003380000F064FD642001F08FFF012204211348BE
:1003480000F05CFD642001F087FF00237B6009E07A
:100358000F4A7B6832F813301846FFF7C9FF7B68ED
:1003680001337B607B684B2BF2D9C82001F074FF06
:100378001120FFF771FF782001F06EFF2920FFF7A9
:100388006BFF00BF0837BD4680BD00BF00040048B2
:100398001823000880B582B000AF0346FB80FB88B5
:1003A8001B0A9BB2DBB21846FFF77CFFFB88DBB267
:1003B8001846FFF777FF00BF0837BD4680BD80B5F8
:1003C80084B000AFF860B9607A603B602A20FFF71C
:1003D80043FFFB689BB201339BB21846FFF7DAFF75
:1003E800FB689AB27B689BB213449BB21846FFF72E
:1003F800D1FF2B20FFF730FFBB689BB202339BB2C3
:100408001846FFF7C7FFBB689AB23B689BB2134414
:100418009BB201339BB21846FFF7BCFF00BF1037F1
:10042800BD4680BD80B586B000AFF860B9607A601F
:100438003B603B687A68B968F868FFF7C0FF2C2012
:10044800FFF70AFF00237B6106E03B8C1846FFF7A5
:10045800A1FF7B6901337B617B683A6802FB03F388
:100468007A699A42F1DB00BF00BF1837BD4680BDEC
:1004780080B586B002AFF860B9601346FB80FB8890
:10048800009301230122B968F868FFF7CBFF00BF8A
:100498001037BD4680BD80B586B000AFF860B96042
:1004A8007A603B603B687A68B968F868FFF787FF4D
:1004B8002C20FFF7D1FE00237B6109E07B693A6AB3
:1004C80013441B781846FFF7EDFE7B6901337B6107
:1004D8007B683A6802FB03F35B007A699A42EDDBBA
:1004E80000BF00BF1837BD4680BD000080B584B08E
:1004F80002AF01F03DFE00F06FF8FFF761FE00F07B
:10050800C3F8FFF70FFF4FF4784300931023A0229E
:1005180000210020FFF786FF4FF4FC6300931023AF
:10052800A02210210020FFF77DFF1F230093102336
:10053800A02220210020FFF775FF4FF6E0730093FB
:100548001023A02230210020FFF76CFF4FF61F0375
:1005580000931023A02240210020FFF763FF40F200
:10056800FF7300931023A02250210020FFF75AFFA9
:100578004FF6FF7300931023A02260210020FFF79D
:1005880051FF002300931023A02270210020FFF7C1
:1005980049FF00237B6011E04FF47842796878685E
:1005A800FFF766FF7B68C3F17F034FF478427968F1
:1005B8001846FFF75DFF7B6801337B607B687F2B04
:1005C800EADD044B00935023642214212320FFF713
:1005D80062FFFEE7B023000880B596B000AF07F1D0
:1005E800140344220021184601F07EFE3B460022F7
:1005F8001A605A609A60DA601A614FF4007000F06D
:1006080023FC0346002B01D000F038F810237B614F
:100618000123FB6200233B6360237B630223FB63AC
:1006280001233B6401237B642823BB640723FB6409
:1006380002233B6502237B6507F11403184600F08B
:1006480059FC0346002B01D000F018F80F233B603B
:1006580003237B600023BB600023FB6000233B6116
:100668003B460421184601F021F80346002B01D02F
:1006780000F004F800BF5837BD4680BD80B400AF15
:1006880072B600BFFEE7000080B500AF1B4B1C4AE6
:100698001A601A4B4FF482725A60184B00229A6003
:1006A800164B4FF4E062DA60144B00221A61134BC8
:1006B80000225A61114B4FF400729A610F4B1022BD
:1006C800DA610E4B00221A620C4B00225A620B4B65
:1006D80000229A62094B0722DA62084B00221A6349
:1006E800064B00225A63054801F0CCF90346002B5B
:1006F80001D0FFF7C3FF00BF80BD00BF2800002066
:100708000038004080B58AB000AF786007F1140364
:1007180000221A605A609A60DA601A617B681B6866
:10072800254A934244D1254B9B6D244A43F4804388
:100738009365224B9B6D03F480433B613B691F4BE0
:10074800DB6C1E4A43F00403D3641C4BDB6C03F0E0
:100758000403FB60FB68194BDB6C184A43F0020387
:10076800D364164BDB6C03F00203BB60BB68082341
:100778007B610223BB610023FB6103233B620523EA
:100788007B6207F1140319460D4800F08DF94FF408
:1007980080637B610223BB610023FB6103233B620F
:1007A80005237B6207F114031946064800F07CF91B
:1007B80000BF2837BD4680BD003800400010024009
:1007C800000800480004004880B483B000AF0F4B15
:1007D8001B6E0E4A43F0010313660C4B1B6E03F0AD
:1007E80001037B607B68094B9B6D084A43F080538B
:1007F8009365064B9B6D03F080533B603B6800BFDD
:100808000C37BD465DF8047B704700BF00100240FE
:1008180080B400AFFEE780B400AFFEE780B400AF5D
:10082800FEE780B400AFFEE780B400AFFEE780B417
:1008380000AF00BFBD465DF8047B704780B400AFD1
:1008480000BFBD465DF8047B704780B400AF00BFB1
:10085800BD465DF8047B704780B500AF01F0DCFC55
:1008680000BF80BD80B400AF064BD3F88830054A7E
:1008780043F47003C2F8883000BFBD465DF8047BBE
:10088800704700BF00ED00E0DFF834D0FFF7EAFF63
:100898000C480D490D4A002302E0D458C4500433D3
:1008A800C4188C42F9D30A4A0A4C002301E01360A9
:1008B8000432A242FBD301F0F3FCFFF717FEFEE778
:1008C80000800120000000200C0000207862000851
:1008D8000C00002090000020FEE7000080B485B0E6
:1008E80000AF78607B6803F00703FB600C4BDB68A4
:1008F800BB60BA684FF6FF031340BB60FB681A027F
:10090800BB68134343F0BF6343F40033BB60044A3E
:10091800BB68D36000BF1437BD465DF8047B7047E1
:1009280000ED00E080B400AF044BDB681B0A03F065
:1009380007031846BD465DF8047B704700ED00E0EC
:1009480080B483B000AF03463960FB7197F9073074
:10095800002B0ADB3B68DAB20C4997F90730120121
:10096800D2B20B4483F800230AE03B68DAB20849A4
:10097800FB7903F00F03043B1201D2B20B441A7641
:1009880000BF0C37BD465DF8047B704700E100E00E
:1009980000ED00E080B489B000AFF860B9607A601B
:1009A800FB6803F00703FB61FB69C3F10703042B32
:1009B80028BF0423BB61FB690433062B02D9FB69FA
:1009C800033B00E000237B614FF0FF32BB6902FA72
:1009D80003F3DA43BB681A407B699A404FF0FF3152
:1009E8007B6901FA03F3D9437B680B40134318462C
:1009F8002437BD465DF8047B7047000080B582B09F
:100A080000AF78607B68013BB3F1807F01D301239D
:100A18000FE00A4A7B68013B53600F214FF0FF301B
:100A2800FFF78EFF054B00229A60044B07221A60DD
:100A3800002318460837BD4680BD00BF10E000E01F
:100A480080B582B000AF78607868FFF747FF00BFD5
:100A58000837BD4680BD80B586B000AF0346B96093
:100A68007A60FB7300237B61FFF75CFF78617A682B
:100A7800B9687869FFF78EFF024697F90F3011467B
:100A88001846FFF75DFF00BF1837BD4680BD80B52B
:100A980082B000AF78607868FFF7B0FF0346184669
:100AA8000837BD4680BD000080B487B000AF7860CD
:100AB800396000237B617FE13B681A6801217B690B
:100AC80001FA03F31340FB60FB68002B00F071810F
:100AD8003B685B6803F00303012B05D03B685B6848
:100AE80003F00303022B30D17B689B683B617B6971
:100AF8005B00032202FA03F3DB433A6913403B61CC
:100B08003B68DA687B695B0002FA03F33A691343CE
:100B18003B617B683A699A607B685B683B6101224C
:100B28007B6902FA03F3DB433A6913403B613B6894
:100B38005B681B0903F001027B6902FA03F33A6957
:100B480013433B617B683A695A603B685B6803F012
:100B58000303032B18D17B68DB6A3B6101227B69A5
:100B680002FA03F3DB433A6913403B613B685B6875
:100B7800DB0803F001027B6902FA03F33A691343C5
:100B88003B617B683A69DA623B685B6803F00303A0
:100B9800032B17D07B68DB683B617B695B00032212
:100BA80002FA03F3DB433A6913403B613B689A68F6
:100BB8007B695B0002FA03F33A6913433B617B6884
:100BC8003A69DA603B685B6803F00303022B23D1C0
:100BD8007B69DA087B68083253F822303B617B690D
:100BE80003F007039B000F2202FA03F3DB433A6981
:100BF80013403B613B681A697B6903F007039B005C
:100C080002FA03F33A6913433B617B69DA087B68AC
:100C18000832396943F822107B681B683B617B699D
:100C28005B00032202FA03F3DB433A6913403B619A
:100C38003B685B6803F003027B695B0002FA03F31D
:100C48003A6913433B617B683A691A603B685B68A1
:100C580003F44033002B00F0AC805F4B1B6E5E4A00
:100C680043F0010313665C4B1B6E03F00103BB608A
:100C7800BB685A4A7B699B08023352F823303B61B0
:100C88007B6903F003039B000F2202FA03F3DB43A3
:100C98003A6913403B617B68B3F1904F25D07B687C
:100CA8004F4A93421FD07B684E4A934219D07B68C3
:100CB8004D4A934213D07B684C4A93420DD07B68CF
:100CC8004B4A934207D07B684A4A934201D1062394
:100CD8000CE007230AE0052308E0042306E00323C9
:100CE80004E0022302E0012300E000237A6902F015
:100CF8000302920093403A6913433B6137497B6989
:100D08009B0802333A6941F823203B4B9B683B61BF
:100D1800FB68DB433A6913403B613B685B6803F45B
:100D28008013002B03D03A69FB6813433B61324AB6
:100D38003B699360304BDB683B61FB68DB433A6996
:100D480013403B613B685B6803F40013002B03D03E
:100D58003A69FB6813433B61274A3B69D360264BDA
:100D68005B683B61FB68DB433A6913403B613B6866
:100D78005B6803F40033002B03D03A69FB68134324
:100D88003B611D4A3B6953601B4B1B683B61FB6819
:100D9800DB433A6913403B613B685B6803F480338B
:100DA800002B03D03A69FB6813433B61124A3B6945
:100DB80013607B6901337B613B681A687B6922FA9F
:100DC80003F3002B7FF478AE00BF00BF1C37BD468D
:100DD8005DF8047B704700BF00100240000001402E
:100DE8000004004800080048000C004800100048B3
:100DF80000140048001800480004014080B483B083
:100E080000AF78600B467B8013467B707B78002BA5
:100E180003D07A887B689A6102E07A887B689A6254
:100E280000BF0C37BD465DF8047B704780B400AF47
:100E3800044B1B6803F4C0631846BD465DF8047B89
:100E4800704700BF0070004080B485B000AF786084
:100E58007B68B3F5007F30D1234B1B6803F4C06374
:100E6800B3F5007F38D0204B1B6823F4C0631E4ABB
:100E780043F4007313601D4B1B68322202FB03F31B
:100E88001B4AA2FB03239B0C0133FB6002E0FB68B7
:100E9800013BFB60144B5B6903F48063B3F5806F1F
:100EA80002D1FB68002BF2D10F4B5B6903F480631E
:100EB800B3F5806F10D103230FE00B4B1B6803F4CD
:100EC800C063B3F5806F07D0074B1B6823F4C0637A
:100ED800054A43F480631360002318461437BD465F
:100EE8005DF8047B704700BF0070004000000020E0
:100EF80083DE1B4380B588B000AF78607B68002B29
:100F080001D10123CAE3974B9B6803F00C03BB6133
:100F1800944BDB6803F003037B617B681B6803F079
:100F28001003002B00F0E480BB69002B07D0BB69DD
:100F38000C2B40F08B807B69012B40F08780894B1C
:100F48001B6803F00203002B05D07B689B69002B0C
:100F580001D10123A2E37B681A6A824B1B6803F064
:100F68000803002B04D07F4B1B6803F0F00305E057
:100F78007C4BD3F894301B0903F0F003934223D23F
:100F88007B681B6A184600F01DFD0346002B01D044
:100F9800012383E3734B1B68724A43F00803136011
:100FA800704B1B6823F0F0027B681B6A6D49134382
:100FB8000B606C4B5B6823F47F427B68DB691B0228
:100FC800684913434B6025E0664B1B68654A43F04C
:100FD80008031360634B1B6823F0F0027B681B6AED
:100FE800604913430B605F4B5B6823F47F427B6867
:100FF800DB691B025B4913434B60BB69002B09D1BA
:101008007B681B6A184600F0DDFC0346002B01D004
:10101800012343E300F04AFC0246524B9B681B093C
:1010280003F00F035049CB5C03F01F0322FA03F3CC
:101038004E4A13604E4B1B68184601F0B1F8034640
:10104800FB73FB7B002B52D0FB7B27E37B689B6900
:10105800002B32D0434B1B68424A43F00103136014
:1010680001F0EEF8386108E001F0EAF802463B6961
:10107800D31A022B01D9032310E33A4B1B6803F060
:101088000203002BF0D0374B1B68364A43F00803A5
:101098001360344B1B6823F0F0027B681B6A3149EC
:1010A80013430B602F4B5B6823F47F427B68DB693B
:1010B8001B022C4913434B601AE02A4B1B68294A30
:1010C80023F00103136001F0BBF8386108E001F078
:1010D800B7F802463B69D31A022B01D90323DDE294
:1010E800204B1B6803F00203002BF0D100E000BF87
:1010F8007B681B6803F00103002B74D0BB69082BC5
:1011080005D0BB690C2B0ED17B69032B0BD1154B7A
:101118001B6803F40033002B64D07B685B68002BEA
:1011280060D10123BAE27B685B68B3F5803F06D1E2
:101138000C4B1B680B4A43F48033136026E07B6832
:101148005B68B3F5A02F15D1064B1B68054A43F41D
:1011580080231360034B1B68024A43F480331360F7
:1011680014E000BF001002403062000800000020B8
:1011780004000020A04B1B689F4A23F480331360AF
:101188009D4B1B689C4A23F4802313607B685B6833
:10119800002B13D001F054F8386108E001F050F842
:1011A80002463B69D31A642B01D9032376E2924B9A
:1011B8001B6803F40033002BF0D014E001F040F872
:1011C800386108E001F03CF802463B69D31A642B09
:1011D80001D9032362E2884B1B6803F40033002B18
:1011E800F0D100E000BF7B681B6803F00203002B0E
:1011F80060D0BB69042B05D0BB690C2B19D17B6966
:10120800022B16D17C4B1B6803F48063002B05D09E
:101218007B68DB68002B01D101233FE2764B5B68DA
:1012280023F0F8527B681B691B06734913434B6014
:1012380040E07B68DB68002B23D06F4B1B686E4A4D
:1012480043F48073136000F0FBFF386108E000F09E
:10125800F7FF02463B69D31A022B01D903231DE28B
:10126800654B1B6803F48063002BF0D0624B5B680E
:1012780023F0F8527B681B691B065F4913434B60D8
:1012880018E05D4B1B685C4A23F48073136000F020
:10129800D7FF386108E000F0D3FF02463B69D31A54
:1012A800022B01D90323F9E1534B1B6803F4806334
:1012B800002BF0D17B681B6803F00803002B3CD09F
:1012C8007B685B69002B1CD04B4BD3F894304A4A9F
:1012D80043F00103C2F8943000F0B2FF386108E02F
:1012E80000F0AEFF02463B69D31A022B01D9032353
:1012F800D4E1414BD3F8943003F00203002BEFD034
:101308001BE03D4BD3F894303B4A23F00103C2F86D
:10131800943000F095FF386108E000F091FF024634
:101328003B69D31A022B01D90323B7E1324BD3F817
:10133800943003F00203002BEFD17B681B6803F0A5
:101348000403002B00F0A6800023FB772A4B9B6D3B
:1013580003F08053002B0DD1274B9B6D264A43F099
:1013680080539365244B9B6D03F08053BB60BB682F
:101378000123FB77214B1B6803F48073002B18D1E2
:101388001E4B1B681D4A43F48073136000F058FF1E
:10139800386108E000F054FF02463B69D31A022B7B
:1013A80001D903237AE1154B1B6803F48073002BE2
:1013B800F0D07B689B68012B08D10F4BD3F8903095
:1013C8000D4A43F00103C2F8903029E07B689B681E
:1013D800052B15D1084BD3F89030074A43F0040386
:1013E800C2F89030044BD3F89030034A43F001031D
:1013F800C2F8903014E000BF0010024000700040B6
:101408009C4BD3F890309B4A23F00103C2F89030EC
:10141800984BD3F89030974A23F00403C2F89030E1
:101428007B689B68002B16D000F00AFF38610AE041
:1014380000F006FF02463B69D31A41F28832934214
:1014480001D903232AE18B4BD3F8903003F0020330
:10145800002BEDD015E000F0F3FE38610AE000F053
:10146800EFFE02463B69D31A41F28832934201D912
:10147800032313E17F4BD3F8903003F00203002BD2
:10148800EDD1FB7F012B05D17A4B9B6D794A23F077
:10149800805393657B689B6A002B00F0FE807B6815
:1014A8009B6A022B40F0D080724BDB687B617B69C2
:1014B80003F003027B68DB6A9A4230D17B6903F050
:1014C80070027B681B6B013B1B019A4227D17B6929
:1014D80003F4FE427B685B6B1B029A421FD17B6957
:1014E80003F400337A68926B072A14BF01220022A2
:1014F800D2B2934213D17B6903F4C0027B68DB6BE1
:101508005B08013B5B059A4209D17B6903F0C06225
:101518007B681B6C5B08013B5B069A426ED0BB691B
:101528000C2B69D0534B1B6803F08063002B05D14B
:10153800504B1B6803F08053002B01D00123ADE012
:101548004C4B1B684B4A23F08073136000F078FE05
:10155800386108E000F074FE02463B69D31A022B9A
:1015680001D903239AE0434B1B6803F00073002B57
:10157800F0D1404BDA68404B13407A68D16A7A68F8
:10158800126B013A120111437A68526B120211432D
:101598007A68D26B5208013A520511437A68126C84
:1015A8005208013A520611437A68926B12095204A2
:1015B8000A4330491343CB602E4B1B682D4A43F036
:1015C800807313602B4BDB682A4A43F08073D36027
:1015D80000F036FE386108E000F032FE02463B6952
:1015E800D31A022B01D9032358E0224B1B6803F0BE
:1015F8000073002BF0D050E001234FE01D4B1B6817
:1016080003F00073002B48D11A4B1B68194A43F0AA
:1016180080731360174BDB68164A43F08073D360FE
:1016280000F00EFE386108E000F00AFE02463B6951
:10163800D31A022B01D9032330E00E4B1B6803F0A9
:101648000073002BF0D028E0BB690C2B23D0094B8A
:101658001B68084A23F08073136000F0F1FD3861BD
:101668000CE000F0EDFD02463B69D31A022B05D9C8
:10167800032313E0001002408C809DF9094B1B687E
:1016880003F00073002BECD1064BDA680549064BD2
:101698001340CB6001E0012300E000231846203707
:1016A800BD4680BD00100240FCFFEEFE80B584B050
:1016B80000AF786039607B68002B01D10123E7E037
:1016C800754B1B6803F007033A689A4210D9724BAE
:1016D8001B6823F0070270493B6813430B606E4B8D
:1016E8001B6803F007033A689A4201D00123CFE050
:1016F8007B681B6803F00203002B10D07B689A6894
:10170800664B9B6803F0F0039A4208D9634B9B68C9
:1017180023F0F0027B689B68604913438B607B6809
:101728001B6803F00103002B4CD07B685B68032B1C
:1017380007D15A4B1B6803F00073002B21D10123FA
:10174800A6E07B685B68022B07D1544B1B6803F447
:101758000033002B15D101239AE07B685B68002BCE
:1017680007D14E4B1B6803F00203002B09D101235C
:101778008EE04A4B1B6803F48063002B01D10123E0
:1017880086E0464B9B6823F003027B685B6843490D
:1017980013438B6000F054FDF8600AE000F050FD40
:1017A8000246FB68D31A41F28832934201D90323D7
:1017B8006EE03A4B9B6803F00C027B685B689B0009
:1017C8009A42EBD17B681B6803F00203002B10D010
:1017D8007B689A68314B9B6803F0F0039A4208D201
:1017E8002E4B9B6823F0F0027B689B682B491343C0
:1017F8008B60294B1B6803F007033A689A4210D2A2
:10180800254B1B6823F0070223493B6813430B60F1
:10181800214B1B6803F007033A689A4201D0012361
:1018280036E07B681B6803F00403002B08D01B4BD1
:101838009B6823F4E0627B68DB68184913438B607C
:101848007B681B6803F00803002B09D0134B9B68C7
:1018580023F460527B681B69DB00104913438B60DB
:1018680000F024F802460D4B9B681B0903F00F0398
:101878000B49CB5C03F01F0322FA03F3094A1360F8
:10188800094B1B68184600F08BFC0346FB72FB7A79
:1018980018461037BD4680BD0020024000100240A7
:1018A80030620008000000200400002080B489B0E5
:1018B80000AF0023FB610023BB613E4B9B6803F034
:1018C8000C033B613B4BDB6803F00303FB603B69A4
:1018D800002B05D03B690C2B21D1FB68012B1ED1B5
:1018E800344B1B6803F00803002B07D1314BD3F8A6
:1018F80094301B0A03F00F03FB6105E02D4B1B68B6
:101908001B0903F00F03FB612B4AFB6952F82330D4
:10191800FB613B69002B0DD1FB69BB610AE03B69A8
:10192800042B02D1254BBB6104E03B69082B01D194
:10193800234BBB613B690C2B34D11E4BDB6803F096
:101948000303BB60BB68022B03D0BB68032B03D027
:1019580005E01A4B7B6105E0194B7B6102E0FB69EE
:101968007B6100BF134BDB681B0903F007030133DE
:101978007B60104BDB681B0A03F07F037A6903FB6B
:1019880002F27B68B2FBF3F37B610A4BDB685B0E08
:1019980003F0030301335B003B607A693B68B2FBE9
:1019A800F3F3BB61BB6918462437BD465DF8047B79
:1019B800704700BF00100240406200080024F40095
:1019C80000127A0080B586B000AF786000233B61D2
:1019D8002A4B9B6D03F08053002B03D0FFF726FAA8
:1019E800786114E0254B9B6D244A43F0805393653E
:1019F800224B9B6D03F08053FB60FB68FFF716FAE0
:101A080078611E4B9B6D1D4A23F0805393657B695B
:101A1800B3F5007F0BD17B68802B19D97B68A02B8D
:101A280002D902233B6113E001233B6110E07B688C
:101A3800802B02D903233B610AE07B68802B02D10B
:101A480002233B6104E07B68702B01D101233B61D9
:101A58000B4B1B6823F0070209493B6913430B60D2
:101A6800074B1B6803F007033A699A4201D0012328
:101A780000E0002318461837BD4680BD001002401C
:101A88000020024080B584B000AF78607B68002BEE
:101A980001D1012395E07B685B6A002B08D17B6844
:101AA8005B68B3F5827F09D07B680022DA6105E0C4
:101AB8007B6800221A617B6800225A617B680022D9
:101AC8009A627B6893F85D30DBB2002B06D17B68A5
:101AD800002283F85C207868FEF714FE7B680222F7
:101AE80083F85D207B681B681A687B681B6822F096
:101AF80040021A607B68DB68B3F5E06F02D9002307
:101B0800FB6002E04FF48053FB607B68DB68B3F551
:101B1800706F07D07B68DB68B3F5E06F02D07B6835
:101B280000229A627B685B6803F482727B689B6818
:101B380003F404431A437B681B6903F002031A4346
:101B48007B685B6903F001031A437B689B6903F4B4
:101B580000731A437B68DB6903F038031A437B6818
:101B68001B6A03F0800342EA03017B689B6A03F463
:101B780000527B681B680A431A607B689B691B0CD0
:101B880003F004027B685B6A03F010031A437B6866
:101B98005B6B03F008031A437B68DB6803F470632C
:101BA80042EA0301FB6803F480527B681B680A431E
:101BB8005A607B6800221A667B68012283F85D20E0
:101BC800002318461037BD4680BD80B588B000AFE9
:101BD800F860B9603B601346FB800023FB77FB6825
:101BE80093F85C30012B01D1022358E1FB680122F4
:101BF80083F85C2000F024FBB861FB88FB82FB685B
:101C080093F85D30DBB2012B02D00223FB773DE174
:101C1800BB68002B02D0FB88002B02D10123FB7785
:101C280034E1FB68032283F85D20FB6800221A6612
:101C3800FB68BA689A63FB68FA889A87FB68FA882F
:101C4800DA87FB6800221A64FB680022A3F84420A4
:101C5800FB680022A3F84620FB6800221A65FB688F
:101C68000022DA64FB689B68B3F5004F0FD1FB686C
:101C78001B681A68FB681B6822F040021A60FB6840
:101C88001B681A68FB681B6842F480421A60FB688C
:101C98001B681B6803F04003402B07D0FB681B68D8
:101CA8001A68FB681B6842F040021A60FB68DB6830
:101CB800B3F5E06F4BD9FB685B68002B02D0FB8A59
:101CC800012B3ED1FB689B6B1A88FB681B68DA60A6
:101CD800FB689B6B9A1CFB689A63FB68DB8F9BB263
:101CE800013B9AB2FB68DA872BE0FB681B689B68AC
:101CF80003F00203022B12D1FB689B6B1A88FB6866
:101D08001B68DA60FB689B6B9A1CFB689A63FB682C
:101D1800DB8F9BB2013B9AB2FB68DA8711E000F0D7
:101D28008FFA0246BB69D31A3A689A4203D83B68CD
:101D3800B3F1FF3F02D13B68002B02D10323FB77AD
:101D4800A4E0FB68DB8F9BB2002BCED17CE0FB6864
:101D58005B68002B02D0FB8A012B70D1FB68DB8FFC
:101D68009BB2012B12D9FB689B6B1A88FB681B6816
:101D7800DA60FB689B6B9A1CFB689A63FB68DB8FD5
:101D88009BB2023B9AB2FB68DA8758E0FB689A6B11
:101D9800FB681B680C3312781A70FB689B6B5A1C23
:101DA800FB689A63FB68DB8F9BB2013B9AB2FB68C6
:101DB800DA8744E0FB681B689B6803F00203022B88
:101DC8002BD1FB68DB8F9BB2012B12D9FB689B6B75
:101DD8001A88FB681B68DA60FB689B6B9A1CFB68B7
:101DE8009A63FB68DB8F9BB2023B9AB2FB68DA8787
:101DF80025E0FB689A6BFB681B680C3312781A7035
:101E0800FB689B6B5A1CFB689A63FB68DB8F9BB271
:101E1800013B9AB2FB68DA8711E000F011FA02463A
:101E2800BB69D31A3A689A4203D83B68B3F1FF3FBB
:101E380002D13B68002B02D10323FB7726E0FB6825
:101E4800DB8F9BB2002BB5D1BA693968F86800F00E
:101E580049F90346002B02D0FB6820221A66FB686A
:101E68009B68002B0AD100233B61FB681B68DB6879
:101E78003B61FB681B689B683B613B69FB681B6EA9
:101E8800002B02D00123FB7700E000BFFB68012292
:101E980083F85D20FB68002283F85C20FB7F1846EE
:101EA8002037BD4680BD000080B588B000AFF8601F
:101EB800B9603B601346FB7100F0C2F90246BB6A89
:101EC8009B1A3A681344FB6100F0BAF9B861394BC0
:101ED8001B685B011B0DFA6902FB03F37B6154E08D
:101EE8003B68B3F1FF3F50D000F0AAF90246BB6946
:101EF800D31AFA699A4202D9FB69002B3DD1FB68D3
:101F08001B685A68FB681B6822F0E0025A60FB688D
:101F18005B68B3F5827F11D1FB689B68B3F5004F0E
:101F280004D0FB689B68B3F5806F07D1FB681B681A
:101F38001A68FB681B6822F040021A60FB689B6AFB
:101F4800B3F5005F0FD1FB681B681A68FB681B6854
:101F580022F400521A60FB681B681A68FB681B6849
:101F680042F400521A60FB68012283F85D20FB6886
:101F7800002283F85C20032317E07B69002B01D142
:101F88000023FB617B69013B7B61FB681B689A68E6
:101F9800BB681340BA689A420CBF01230023DBB226
:101FA8001A46FB799A429BD1002318462037BD4632
:101FB80080BD00BF0000002080B58AB000AFF86087
:101FC800B9607A603B600023FB7500F039F902467E
:101FD8003B6B9B1A3A6813447B6200F031F9386214
:101FE800FB681B680C33FB613D4B1A6813469B006A
:101FF8001344DA00D31A1B0D7A6A02FB03F3BB61A0
:1020080060E0BB68B3F5C06F07D17B68002B04D1D3
:10201800FB691B78DBB2FB75FB7D3B68B3F1FF3FC7
:1020280050D000F00DF902463B6AD31A7A6A9A42F8
:1020380002D97B6A002B3DD1FB681B685A68FB6894
:102048001B6822F0E0025A60FB685B68B3F5827F88
:1020580011D1FB689B68B3F5004F04D0FB689B68FF
:10206800B3F5806F07D1FB681B681A68FB681B68AB
:1020780022F040021A60FB689B6AB3F5005F0FD13B
:10208800FB681B681A68FB681B6822F400521A6018
:10209800FB681B681A68FB681B6842F400521A60E8
:1020A800FB68012283F85D20FB68002283F85C202E
:1020B800032310E0BB69002B01D100237B62BB69BD
:1020C800013BBB61FB681B689A68BB6813407A6870
:1020D8009A4296D1002318462837BD4680BD00BFD6
:1020E8000000002080B586B002AFF860B9607A6061
:1020F8007B680093BB6800224FF4C051F868FFF773
:102108005BFF0346002B07D0FB681B6E43F02002E1
:10211800FB681A66032327E07B680093BB680022EC
:102128008021F868FFF7C0FE0346002B07D0FB6844
:102138001B6E43F02002FB681A66032314E07B68D9
:102148000093BB6800224FF4C061F868FFF734FFC2
:102158000346002B07D0FB681B6E43F02002FB6888
:102168001A66032300E0002318461037BD4680BDD9
:1021780080B582B000AF0023FB710320FEF760FC3E
:102188000F2000F00DF80346002B02D00123FB714D
:1021980001E0FEF719FBFB7918460837BD4680BDFC
:1021A80080B584B000AF78600023FB73174B1B78B1
:1021B800002B23D0164B1A68144B1B7819464FF482
:1021C8007A73B3FBF1F3B2FBF3F31846FEF75FFC47
:1021D8000346002B0FD17B680F2B09D800227968A2
:1021E8004FF0FF30FEF737FC0A4A7B68136007E0C0
:1021F8000123FB7304E00123FB7301E00123FB735C
:10220800FB7B18461037BD4680BD00BF0800002084
:10221800000000200400002080B400AF064B1B78AB
:102228001A46064B1B681344044A136000BFBD4698
:102238005DF8047B704700BF080000208C00002078
:1022480080B400AF034B1B681846BD465DF8047B9D
:10225800704700BF8C00002080B584B000AF786064
:10226800FFF7EEFFB8607B68FB60FB68B3F1FF3FE8
:1022780005D00A4B1B781A46FB681344FB6000BF65
:10228800FFF7DEFF0246BB68D31AFA689A42F7D80E
:1022980000BF00BF1037BD4680BD00BF080000204A
:1022A80070B50D4D0D4C641BA4100026A64209D133
:1022B8000B4D0C4C00F020F8641BA4100026A6421D
:1022C80005D170BD55F8043B98470136EEE755F83F
:1022D800043B98470136F2E7706200087062000814
:1022E800706200087462000802440346934200D1F9
:1022F800704703F8011BF9E7F8B500BFF8BC08BC44
:102308009E467047F8B500BFF8BC08BC9E467047AB
:10231800B10101002C002D00B20101002C002D009C
:10232800B30101002C002D0001002C002D00B40188
:102338000700C001A20002008400C101C500C2015B
:102348000A000000C3018A002A00C4018A00EE00C6
:10235800C5010E00E0010F001A000F0018002F0041
:102368002800200022001F001B0023003700000067
:10237800070002001000E1010F001B000F0017000A
:1023880033002C0029002E003000300039003F00B7
:102398000000070003001000F0010100F601000032
:1023A8003A0105003601A000FFFFFFFFFFFFFFFF16
:1023B800FFFFFFFFFFFFFFFFFFFFFFFFFFFFFFFF25
:1023C800FFFFFFFFFFFFFFFFFFFFFFFFFFFFFFFF15
:1023D800FFFFFFFFFFFFFFFFFFFFFFFFFFFFFFFF05
:1023E800FFFFFFFFFFFFFFFFFFFFFFFFFFFFFFFFF5
:10260800FFFFFFFFFFFFFFFFFFFFFFFFF79EDF1D3D
:10261800D6BCD6BBD6BBD6BBD6BBD6BBD6BBD6BB29
:10262800D6BBD6BBD6BBD6BBD6BBD6BBD6BBD6BB1A
:10263800D6BBD6BBD6BBD6BBD6BBD6BBD6BBD6BB0A
:10264800D6BBD6BBD6BBD6BBD6BBD6BBD6BBD6BBFA
:10265800D6BBD6BBD6BBD6BBD6BBD6BBD6BBD6BBEA
:10266800D6BBD6BBD6BBD6BBD6BBD6BBD6BBD6BBDA
:10267800D6BBD6BBD6BBD6BBD6BBD6BBD6BBD6BBCA
:10268800D6BBD6BBD6BBD6BBD6BBD6BBD6BBD6BBBA
:10269800D6BBD6BBD6BBD6BBD6BBD6BBD6BBD6BBAA
:1026A800D6BBD6BBD6BBD6BBD6BBD6BBD6BBD6BB9A
:1026B800D6BBD6BBD6BBD6BCDF1DF79FFFFFFFFF3F
:1026C800FFFFFFFFFFFFFFFFFFFFFFFFFFFFFFFF12
:1026D800FFFFE75DB5D9745543723B523B323B323D
:1026E8003B323B323B323B323B323B323B323B327A
:1026F8003B323B323B323B323B323B323B323B326A
:102708003B323B323B323B323B323B323B323B3259
:102718003B323B323B323B323B323B323B323B3249
:102728003B323B323B323B323B323B323B323B3239
:102738003B323B323B323B323B323B323B323B3229
:102748003B323B323B323B323B323B323B323B3219
:102758003B323B323B323B323B323B323B323B3209
:102768003B323B323B323B323B323B323B323B32F9
:102778003B323B323B323B323B323B323B52437281
:102788007475B5F9EF5EFFFFFFFFFFFFFFFFFFFF67
:10279800FFFFFFFFFFFFFFFFF79EADB94B931B1134
:1027A8001AF11AF11AF11AF11AF11AF11AF11AF1C9
:1027B8001AF11AF11AF11AF11AF11AF11AF11AF1B9
:1027C8001AF11AF11AF11AF11AF11AF11AF11AF1A9
:1027D8001AF11AF11AF11AF11AF11AF11AF11AF199
:1027E8001AF11AF11AF11AF11AF11AF11AF11AF189
:1027F8001AF11AF11AF11AF11AF11AF11AF11AF179
:102808001AF11AF11AF11AF11AF11AF11AF11AF168
:102818001AF11AF11AF11AF11AF11AF11AF11AF158
:102828001AF11AF11AF11AF11AF11AF11AF11AF148
:102838001AF11AF11AF11AF11AF11AF11AF11AF138
:102848001AF11AF11AF11AF123114BB3B5D9F79FFE
:10285800FFFFFFFFFFFFFFFFFFFFFFFFFFFFFFFF80
:10286800D6DC6C341AF11AF11AF11AF11AF11AF1CC
:102878001AF11AF11AF11AF11AF11AF11AF11AF1F8
:102888001AF11AF11AF11AF11AF11AF11AF11AF1E8
:102898001AF11AF11AF11AF11AF11AF11AF11AF1D8
:1028A8001AF11AF11AF11AF11AF11AF11AF11AF1C8
:1028B8001AF11AF11AF11AF11AF11AF11AF11AF1B8
:1028C8001AF11AF11AF11AF11AF11AF11AF11AF1A8
:1028D8001AF11AF11AF11AF11AF11AF11AF11AF198
:1028E8001AF11AF11AF11AF11AF11AF11AF11AF188
:1028F8001AF11AF11AF11AF11AF11AF11AF11AF178
:102908001AF11AF11AF11AF11AF11AF11AF11AF167
:102918001AF11AF17475DEFCFFFFFFFFFFFFFFFFDE
:10292800FFFFFFFFFFFFFFFFCE7B3B521AF11AF1BB
:102938001AF11AF11AF11AF11AF11AF11AF11AF137
:102948001AF11AF11AF11AF11AF11AF11AF11AF127
:102958001AF11AF11AF11AF11AF11AF11AF11AF117
:102968001AF11AF11AF11AF11AF11AF11AF11AF107
:102978001AF11AF11AF11AF11AF11AF11AF11AF1F7
:102988001AF11AF11AF11AF11AF11AF11AF11AF1E7
:102998001AF11AF11AF11AF11AF11AF11AF11AF1D7
:1029A8001AF11AF11AF11AF11AF11AF11AF11AF1C7
:1029B8001AF11AF11AF11AF11AF11AF11AF11AF1B7
:1029C8001AF11AF11AF11AF11AF11AF11AF11AF1A7
:1029D8001AF11AF11AF11AF11AF11AF14B93CE9B66
:1029E800FFFFFFFFFFFFFFFFFFFFFFFFFFFFFFFFEF
:1029F800C65A2B321AF11AF11AF11AF11AF11AF110
:102A08001AF11AF11AF11AF11AF11AF11AF11AF166
:102A18001AF11AF11AF11AF11AF11AF11AF11AF156
:102A28001AF11AF11AF11AF11AF11AF11AF11AF146
:102A38001AF11AF11AF11AF11AF11AF11AF11AF136
:102A48001AF11AF11AF11AF11AF11AF11AF11AF126
:102A58001AF11AF11AF11AF11AF11AF11AF11AF116
:102A68001AF11AF11AF11AF11AF11AF11AF11AF106
:102A78001AF11AF11AF11AF11AF11AF11AF11AF1F6
:102A88001AF11AF11AF11AF11AF11AF11AF11AF1E6
:102A98001AF11AF11AF11AF11AF11AF11AF11AF1D6
:102AA8001AF11AF13352C67BFFFFFFFFFFFFFFFF4A
:102AB800FFFFFFFFFFFFFFFFC65A2B121AF11AF1A3
:102AC8001AF11AF11AF11AF11AF11AF11AF11AF1A6
:102AD8001AF11AF11AF11AF11AF11AF11AF11AF196
:102AE8001AF11AF11AF11AF11AF11AF11AF11AF186
:102AF8001AF11AF11AF11AF11AF11AF11AF11AF176
:102B08001AF11AF11AF11AF11AF11AF11AF11AF165
:102B18001AF11AF11AF11AF11AF11AF11AF11AF155
:102B28001AF11AF11AF11AF11AF11AF11AF11AF145
:102B38001AF11AF11AF11AF11AF11AF11AF11AF135
:102B48001AF11AF11AF11AF11AF11AF11AF11AF125
:102B58001AF11AF11AF11AF11AF11AF11AF11AF115
:102B68001AF11AF11AF11AF11AF11AF13352C67B55
:102B7800FFFFFFFFFFFFFFFFFFFFFFFFFFFFFFFF5D
:102B8800C65A2B121AF11AF11AF11AF11AF11AF19E
:102B98001AF11AF11AF11AF11AF11AF11AF11AF1D5
:102BA8001AF11AF11AF11AF11AF11AF11AF11AF1C5
:102BB8001AF11AF11AF11AF11AF11AF11AF11AF1B5
:102BC8001AF11AF11AF11AF11AF11AF11AF11AF1A5
:102BD8001AF11AF11AF11AF11AF11AF11AF11AF195
:102BE8001AF11AF11AF11AF11AF11AF11AF11AF185
:102BF8001AF11AF11AF11AF11AF11AF11AF11AF175
:102C08001AF11AF11AF11AF11AF11AF11AF11AF164
:102C18001AF11AF11AF11AF11AF11AF11AF11AF154
:102C28001AF11AF11AF11AF11AF11AF11AF11AF144
:102C38001AF11AF13352C67BFFFFFFFFFFFFFFFFB8
:102C4800FFFFFFFFFFFFFFFFC65A2B121AF11AF111
:102C58001AF11AF11AF11AF11AF11AF11AF11AF114
:102C68001AF11AF11AF11AF11AF11AF11AF11AF104
:102C78001AF11AF11AF11AF11AF11AF11AF11AF1F4
:102C88001AF11AF11AF11AF11AF11AF11AF11AF1E4
:102C98001AF11AF11AF11AF11AF11AF11AF11AF1D4
:102CA8001AF11AF11AF11AF11AF11AF11AF11AF1C4
:102CB8001AF11AF11AF11AF11AF11AF11AF11AF1B4
:102CC8001AF11AF11AF11AF11AF11AF11AF11AF1A4
:102CD8001AF11AF11AF11AF11AF11AF11AF11AF194
:102CE8001AF11AF11AF11AF11AF11AF11AF11AF184
:102CF8001AF11AF11AF11AF11AF11AF13352C67BC4
:102D0800FFFFFFFFFFFFFFFFFFFFFFFFFFFFFFFFCB
:102D1800C65A2B121AF11AF11AF11AF11AF11AF10C
:102D28001AF11AF11AF11AF11AF11AF11AF11AF143
:102D38001AF11AF11AF11AF11AF11AF11AF11AF133
:102D48001AF11AF11AF11AF11AF11AF11AF11AF123
:102D58001AF11AF11AF11AF11AF11AF11AF11AF113
:102D68001AF12311231123112311231123112311E4
:102D780023112311231123112311231123112311AB
:102D8800231123112311231123112311231123119B
:102D980023111AF11AF11AF11AF11AF11AF11AF1AA
:102DA8001AF11AF11AF11AF11AF11AF11AF11AF1C3
:102DB8001AF11AF11AF11AF11AF11AF11AF11AF1B3
:102DC8001AF11AF13352C67BFFFFFFFFFFFFFFFF27
:102DD800FFFFFFFFFFFFFFFFC65A2B121AF11AF180
:102DE8001AF11AF11AF11AF11AF11AF11AF11AF183
:102DF8001AF11AF11AF11AF11AF11AF11AF11AF173
:102E08001AF11AF11AF11AF11AF11AF11AF11AF162
:102E18001AF11AF11AF11AF11AF11AF11AF11AF152
:102E280023113B522B121AF164149537A598A598D3
:102E3800A598A598A598A598A598A598A598A598A2
:102E4800A598A598A598A598A598A598A598A59892
:102E5800A598A598A598A5787C953B521AF11AF1E2
:102E68001AF11AF11AF11AF11AF11AF11AF11AF102
:102E78001AF11AF11AF11AF11AF11AF11AF11AF1F2
:102E88001AF11AF11AF11AF11AF11AF13352C67B32
:102E9800FFFFFFFFFFFFFFFFFFFFFFFFFFFFFFFF3A
:102EA800C65A2B121AF11AF11AF11AF11AF11AF17B
:102EB8001AF11AF11AF11AF11AF11AF11AF11AF1B2
:102EC8001AF11AF11AF11AF11AF11AF11AF11AF1A2
:102ED8001AF11AF11AF11AF11AF11AF11AF11AF192
:102EE8001AF11AF11AF133327C95B5D995374B930B
:102EF8007C95D6BCF79FF7BFF7BFF7BFF7BFF7BF03
:102F0800F7BFF7BFF7BFF7BFF7BFF7BFF7BFF7BF09
:102F1800F7BFF7BFF7BFF7BFF7BFF7BFF7BFF7BFF9
:102F2800D6DC747523111AF11AF11AF11AF11AF193
:102F38001AF11AF11AF11AF11AF11AF11AF11AF131
:102F48001AF11AF11AF11AF11AF11AF11AF11AF121
:102F58001AF11AF13352C67BFFFFFFFFFFFFFFFF95
:102F6800FFFFFFFFFFFFFFFFC65A2B121AF11AF1EE
:102F78001AF11AF11AF11AF11AF11AF11AF11AF1F1
:102F88001AF11AF11AF11AF11AF11AF11AF11AF1E1
:102F98001AF11AF11AF11AF11AF11AF11AF11AF1D1
:102FA8001AF11AF11AF11AF11AF11AF11AF153B3C6
:102FB800C65AF7BFE75DADB86C349537DEFCFFDF66
:102FC800FFFFFFFFFFFFFFFFFFFFFFFFFFFFFFFF09
:102FD800FFFFFFFFFFFFFFFFFFFFFFFFFFFFFFFFF9
:102FE800FFFFFFFFFFFFFFFFFFDFBE1A53B31AF11A
:102FF8001AF11AF11AF11AF11AF11AF11AF11AF171
:103008001AF11AF11AF11AF11AF11AF11AF11AF160
:103018001AF11AF11AF11AF11AF11AF13352C67BA0
:10302800FFFFFFFFFFFFFFFFFFFFFFFFFFFFFFFFA8
:10303800C65A2B121AF11AF11AF11AF11AF11AF1E9
:103048001AF11AF11AF11AF11AF11AF11AF11AF120
:103058001AF11AF11AF11AF11AF11AF11AF11AF110
:103068001AF11AF11AF11AF11AF11AF11AF11AF100
:103078001AF11AF123117C95E75DFFFFFFFFEF7E40
:10308800B5F96C548CF6D6DCFFDFFFFFFFFFFFFFBE
:10309800FFFFFFFFFFFFFFFFFFFFFFFFFFFFFFFF38
:1030A800FFFFFFFFFFFFFFFFFFFFFFFFFFFFFFFF28
:1030B800FFFFEF7E953733521AF11AF11AF11AF120
:1030C8001AF11AF11AF11AF11AF11AF11AF11AF1A0
:1030D8001AF11AF11AF11AF11AF11AF11AF11AF190
:1030E8001AF11AF13352C67BFFFFFFFFFFFFFFFF04
:1030F800FFFFFFFFFFFFFFFFC65A2B121AF11AF15D
:103108001AF11AF11AF11AF11AF11AF11AF11AF15F
:103118001AF11AF11AF11AF11AF11AF11AF11AF14F
:103128001AF11AF11AF11AF11AF11AF11AF11AF13F
:103138001AF11AF11AF11AF11AF11AF14372ADD90A
:10314800F7BFFFFFFFFFFFFFF79EC65A74757CB5F8
:10315800CE7BF7BFFFFFFFFFFFFFFFFFFFFFFFFF74
:10316800FFFFFFFFFFFFFFFFFFFFFFFFFFFFFFFF67
:10317800FFFFFFFFFFFFFFFFFFFFFFFFD6DC6C3401
:1031880023111AF11AF11AF11AF11AF11AF11AF1B6
:103198001AF11AF11AF11AF11AF11AF11AF11AF1CF
:1031A8001AF11AF11AF11AF11AF11AF13352C67B0F
:1031B800FFFFFFFFFFFFFFFFFFFFFFFFFFFFFFFF17
:1031C800C65A2B121AF11AF11AF11AF11AF11AF158
:1031D8001AF11AF11AF11AF11AF11AF11AF11AF18F
:1031E8001AF11AF11AF11AF11AF11AF11AF11AF17F
:1031F8001AF11AF11AF11AF11AF11AF11AF11AF16F
:103208001AF11AF163F4D6FCFFFFFFFFFFFFFFFF7F
:10321800FFFFF7BFCE9B84B67475BE3AF79EFFFFDB
:10322800FFFFFFFFFFFFFFFFFFFFFFFFFFFFFFFFA6
:10323800FFFFFFFFFFFFFFFFFFFFFFFFFFFFFFFF96
:10324800FFFFFFFFF79EB5F943721AF11AF11AF161
:103258001AF11AF11AF11AF11AF11AF11AF11AF10E
:103268001AF11AF11AF11AF11AF11AF11AF11AF1FE
:103278001AF11AF13352C67BFFFFFFFFFFFFFFFF72
:10328800FFFFFFFFFFFFFFFFC65A2B121AF11AF1CB
:103298001AF11AF11AF11AF11AF11AF11AF11AF1CE
:1032A8001AF11AF11AF11AF11AF11AF11AF11AF1BE
:1032B8001AF11AF11AF11AF11AF11AF11AF11AF1AE
:1032C8001AF11AF11AF11AF11AF133329517EF9E21
:1032D800FFFFFFFFFFFFFFFFFFFFFFFFFFDFD6FC42
:1032E8008CF66C54B5D9EF7EFFFFFFFFFFFFFFFFA1
:1032F800FFFFFFFFFFFFFFFFFFFFFFFFFFDFF7BF3E
:10330800F79FEF7EE73DD6DCCE9BCEBBE73DD6BC34
:103318006C5423111AF11AF11AF11AF11AF11AF16F
:103328001AF11AF11AF11AF11AF11AF11AF11AF13D
:103338001AF11AF11AF11AF11AF11AF13352C67B7D
:10334800FFFFFFFFFFFFFFFFFFFFFFFFFFFFFFFF85
:10335800C65A2B121AF11AF11AF11AF11AF11AF1C6
:103368001AF11AF11AF11AF11AF11AF11AF11AF1FD
:103378001AF11AF11AF11AF11AF11AF11AF11AF1ED
:103388001AF11AF11AF11AF11AF11AF11AF11AF1DD
:103398001AF14B93C65AFFDFFFFFFFFFFFFFFFFF46
:1033A800FFFFFFFFFFFFFFDFE71D9D576C34A59868
:1033B800E73DF7BFFFDFFFDFFFDFF7BFF79EEF5EF9
:1033C800DF1DD6BCBE3AADB895177C956C345BF35F
:1033D8005BD35BD374757CB54B931AF11AF11AF170
:1033E8001AF11AF11AF11AF11AF11AF11AF11AF17D
:1033F8001AF11AF11AF11AF11AF11AF11AF11AF16D
:103408001AF11AF13352C67BFFFFFFFFFFFFFFFFE0
:10341800FFFFFFFFFFFFFFFFC65A2B121AF11AF139
:103428001AF11AF11AF11AF11AF11AF11AF11AF13C
:103438001AF11AF11AF11AF11AF11AF11AF11AF12C
:103448001AF11AF11AF11AF11AF11AF11AF11AF11C
:103458001AF11AF11AF11AF123117475E73DFFFFF9
:10346800FFFFFFFFFFFFFFFFFFFFFFFFFFFFFFFF64
:10347800FFFFE75D953753B384B6B619CE9BCE9B55
:10348800BE1AA5988CF6747563F453B34B923B52ED
:10349800333223111AF11AF11AF11AF123112B12EE
:1034A80023111AF11AF11AF11AF11AF11AF11AF193
:1034B8001AF11AF11AF11AF11AF11AF11AF11AF1AC
:1034C8001AF11AF11AF11AF11AF11AF13352C67BEC
:1034D800FFFFFFFFFFFFFFFFFFFFFFFFFFFFFFFFF4
:1034E800C65A2B121AF11AF11AF11AF11AF11AF135
:1034F8001AF11AF11AF11AF11AF11AF11AF11AF16C
:103508001AF11AF11AF11AF11AF11AF11AF11AF15B
:103518001AF11AF11AF11AF11AF11AF11AF11AF14B
:103528003352ADB8F79FFFFFFFFFFFFFFFFFF7BF65
:10353800F7BFFFFFFFFFFFFFFFFFFFDFCEBB53D348
:103548002B123B524B924B92435233522B32231144
:103558001AF11AF11AF11AF11AF11AF11AF11AF10B
:103568001AF11AF11AF11AF11AF11AF11AF11AF1FB
:103578001AF11AF11AF11AF11AF11AF11AF11AF1EB
:103588001AF11AF11AF11AF11AF11AF11AF11AF1DB
:103598001AF11AF13352C67BFFFFFFFFFFFFFFFF4F
:1035A800FFFFFFFFFFFFFFFFC65A2B121AF11AF1A8
:1035B8001AF11AF11AF11AF11AF11AF11AF11AF1AB
:1035C8001AF11AF11AF11AF11AF11AF11AF11AF19B
:1035D8001AF11AF11AF11AF11AF11AF11AF11AF18B
:1035E8001AF11AF11AF11AF15BF3D6BCFFFFFFFFCB
:1035F800FFFFFFFFEF7EBE1AB5F9EF5EFFFFFFFF8B
:10360800FFFFFFFFDF1D64141AF11AF11AF11AF116
:103618001AF11AF11AF11AF11AF11AF11AF11AF14A
:103628001AF11AF11AF11AF11AF11AF11AF11AF13A
:103638001AF11AF11AF11AF11AF11AF11AF11AF12A
:103648001AF11AF11AF11AF11AF11AF11AF11AF11A
:103658001AF11AF11AF11AF11AF11AF13352C67B5A
:10366800FFFFFFFFFFFFFFFFFFFFFFFFFFFFFFFF62
:10367800C65A2B121AF11AF11AF11AF11AF11AF1A3
:103688001AF11AF11AF11AF11AF11AF11AF11AF1DA
:103698001AF11AF11AF11AF11AF11AF11AF11AF1CA
:1036A8001AF11AF11AF11AF11AF11AF11AF12B1189
:1036B8009517EF5EFFFFFFFFFFFFFFFFCE9B53D382
:1036C8005BF4CEBBFFFFFFFFFFFFFFFFDEFD5BF3F9
:1036D8001AF11AF11AF11AF11AF11AF11AF11AF18A
:1036E8001AF11AF11AF11AF11AF11AF11AF11AF17A
:1036F8001AF11AF11AF11AF11AF11AF11AF11AF16A
:103708001AF11AF11AF11AF11AF11AF11AF11AF159
:103718001AF11AF11AF11AF11AF11AF11AF11AF149
:103728001AF11AF13352C67BFFFFFFFFFFFFFFFFBD
:10373800FFFFFFFFFFFFFFFFC65A2B121AF11AF116
:103748001AF11AF11AF11AF11AF11AF11AF11AF119
:103758001AF11AF11AF11AF11AF11AF11AF11AF109
:103768001AF11AF11AF11AF11AF11AF11AF11AF1F9
:103778001AF11AF11AF14372BE3AFFDFFFFFFFFF99
:10378800FFFFF7BFADD93B527454DEFCFFFFFFFFCC
:10379800FFFFFFDFCE9B4BB31AF11AF11AF11AF1B2
:1037A8001AF11AF11AF11AF11AF11AF11AF11AF1B9
:1037B8001AF11AF11AF11AF11AF11AF11AF11AF1A9
:1037C8001AF11AF11AF11AF11AF11AF11AF11AF199
:1037D8001AF11AF11AF11AF11AF11AF11AF11AF189
:1037E8001AF11AF11AF11AF11AF11AF13352C67BC9
:1037F800FFFFFFFFFFFFFFFFFFFFFFFFFFFFFFFFD1
:10380800C65A2B121AF11AF11AF11AF11AF11AF111
:103818001AF11AF11AF11AF11AF11AF11AF11AF148
:103828001AF11AF11AF11AF11AF11AF11AF11AF138
:103838001AF11AF11AF11AF11AF11AF12311747521
:10384800DEFDFFFFFFFFFFFFFFFFEF7E84D62B3279
:103858009537EF7EFFFFFFFFFFFFFFDFB5D943720C
:103868001AF11AF11AF11AF11AF11AF11AF11AF1F8
:103878001AF11AF11AF11AF11AF11AF11AF11AF1E8
:103888001AF11AF11AF12311333223111AF11AF12C
:103898001AF11AF11AF11AF11AF11AF11AF11AF1C8
:1038A8001AF11AF11AF11AF11AF11AF11AF11AF1B8
:1038B8001AF11AF13352C67BFFFFFFFFFFFFFFFF2C
:1038C800FFFFFFFFFFFFFFFFC65A2B121AF11AF185
:1038D8001AF11AF11AF11AF11AF11AF11AF11AF188
:1038E8001AF11AF11AF11AF11AF11AF11AF11AF178
:1038F8001AF11AF11AF11AF11AF11AF11AF11AF168
:103908001AF11AF12B32A598F79EFFFFFFFFFFFF70
:10391800FFFFDEFC5BF43352B5D9FFDFFFFFFFFF8B
:10392800FFFFF7BF953733321AF11AF11AF11AF17E
:103938001AF11AF11AF11AF11AF11AF11AF11AF127
:103948001AF11AF11AF11AF11AF11AF12311641481
:103958009D576C3423111AF11AF11AF11AF11AF160
:103968001AF11AF11AF11AF11AF11AF11AF11AF1F7
:103978001AF11AF11AF11AF11AF11AF13352C67B37
:10398800FFFFFFFFFFFFFFFFFFFFFFFFFFFFFFFF3F
:10399800C65A2B121AF11AF11AF11AF11AF11AF180
:1039A8001AF11AF11AF11AF11AF11AF11AF11AF1B7
:1039B8001AF11AF11AF11AF11AF11AF11AF11AF1A7
:1039C8001AF11AF11AF11AF11AF11AF15BD3CE9B16
:1039D800FFFFFFFFFFFFFFFFFFDFBE5A43725BD30E
:1039E800CE7BFFFFFFFFFFFFFFFFEF7E7C952311DC
:1039F8001AF11AF11AF11AF11AF11AF11AF11AF167
:103A08001AF11AF11AF11AF11AF11AF11AF11AF156
:103A18001AF123115BD3B619D6DC84B523111AF138
:103A28001AF11AF11AF11AF11AF11AF11AF11AF136
:103A38001AF11AF11AF11AF11AF11AF11AF11AF126
:103A48001AF11AF13352C67BFFFFFFFFFFFFFFFF9A
:103A5800FFFFFFFFFFFFFFFFC65A2B121AF11AF1F3
:103A68001AF11AF11AF11AF11AF11AF11AF11AF1F6
:103A78001AF11AF11AF11AF11AF11AF11AF11AF1E6
:103A88001AF11AF11AF11AF11AF11AF11AF11AF1D6
:103A98001AF123118CF6E75DFFFFFFFFFFFFFFFF21
:103AA800F79E9D5733327C95DF1DFFFFFFFFFFFF19
:103AB800FFFFE71D6C141B112B1123111AF11AF1CA
:103AC8001AF11AF11AF11AF11AF11AF11AF11AF196
:103AD8001AF11B1133324B9363F47C95ADD9EF7E09
:103AE800DF1D6C3423111AF11AF11AF11AF11AF1C7
:103AF8001AF11AF11AF11AF11AF11AF11AF11AF166
:103B08001AF11AF11AF11AF11AF11AF13352C67BA5
:103B1800FFFFFFFFFFFFFFFFFFFFFFFFFFFFFFFFAD
:103B2800C65A2B121AF11AF11AF11AF11AF11AF1EE
:103B38001AF11AF11AF11AF11AF11AF11AF11AF125
:103B48001AF11AF11AF11AF11AF11AF11AF11AF115
:103B58001AF11AF11AF11AF11AF14372B5F9FFDFE5
:103B6800FFFFFFFFFFFFFFFFEF5E74752B329D57CE
:103B7800F79EFFFFFFFFFFFFFFFFCEBB5BD34B931B
:103B880084B684B55BD333321AF11AF11AF11AF1FB
:103B98001AF11AF12B324B9364147C759537BE1ABF
:103BA800D6DCEF7EF7BFFFFFD6DC53B31AF11AF16C
:103BB8001AF11AF11AF11AF11AF11AF11AF11AF1A5
:103BC8001AF11AF11AF11AF11AF11AF11AF11AF195
:103BD8001AF11AF13352C67BFFFFFFFFFFFFFFFF09
:103BE800FFFFFFFFFFFFFFFFC65A2B121AF11AF162
:103BF8001AF11AF11AF11AF11AF11AF11AF11AF165
:103C08001AF11AF11AF11AF11AF11AF11AF11AF154
:103C18001AF11AF11AF11AF11AF11AF11AF11AF144
:103C28001AF17455D6DCFFFFFFFFFFFFFFFFFFFF10
:103C3800D6BC53D34B92BE1AFFFFFFFFFFFFFFFF17
:103C4800FFDFB61953D39537EF5EEF5EC67B953726
:103C58006C344B933B524B9364147C959537B5F970
:103C6800D6BCEF5EF7BFFFDFFFFFFFFFFFFFFFDF01
:103C7800CE7B43721AF11AF11AF11AF11AF11AF1FC
:103C88001AF11AF11AF11AF11AF11AF11AF11AF1D4
:103C98001AF11AF11AF11AF11AF11AF13352C67B14
:103CA800FFFFFFFFFFFFFFFFFFFFFFFFFFFFFFFF1C
:103CB800C65A2B121AF11AF11AF11AF11AF11AF15D
:103CC8001AF11AF11AF11AF11AF11AF11AF11AF194
:103CD8001AF11AF11AF11AF11AF11AF11AF11AF184
:103CE8001AF11AF11AF11AF12B329D57F79EFFFFBC
:103CF800FFFFFFFFFFFFFFDFB5F943726C34D6BC4F
:103D0800FFFFFFFFFFFFFFFFF7BF9D575BF3BE3AC3
:103D1800FFDFFFFFFFFFEF9ED6BCB619ADD9B5F99F
:103D2800CE9BE73DF7BFFFDFFFFFFFFFFFFFFFFF72
:103D3800FFFFFFFFFFFFF7BFB6193B521AF11AF159
:103D48001AF11AF11AF11AF11AF11AF11AF11AF113
:103D58001AF11AF11AF11AF11AF11AF11AF11AF103
:103D68001AF11AF13352C67BFFFFFFFFFFFFFFFF77
:103D7800FFFFFFFFFFFFFFFFC65A2B121AF11AF1D0
:103D88001AF11AF11AF11AF11AF11AF11AF11AF1D3
:103D98001AF11AF11AF11AF11AF11AF11AF11AF1C3
:103DA8001AF11AF11AF11AF11AF11AF11AF11AF1B3
:103DB80053D3C65AFFFFFFFFFFFFFFFFFFFFFFDFE1
:103DC800B5F95BD39537EF7EFFFFFFFFFFFFFFFFDE
:103DD800F79E84D66414D6BCFFFFFFFFFFFFFFFFEA
:103DE800FFFFFFFFFFDFFFFFFFFFFFFFFFFFFFFFFB
:103DF800FFFFFFFFFFFFFFFFFFFFFFFFFFFFF79E34
:103E0800A57833321AF11AF11AF11AF11AF11AF1E6
:103E18001AF11AF11AF11AF11AF11AF11AF11AF142
:103E28001AF11AF11AF11AF11AF11AF13352C67B82
:103E3800FFFFFFFFFFFFFFFFFFFFFFFFFFFFFFFF8A
:103E4800C65A2B121AF11AF11AF11AF11AF11AF1CB
:103E58001AF11AF11AF11AF11AF11AF11AF11AF102
:103E68001AF11AF11AF11AF11AF11AF11AF11AF1F2
:103E78001AF11AF11AF1231184B6E73DFFFFFFFF8B
:103E8800FFFFFFFFFFFFFFFFE73DC65ADEFCFFFF16
:103E9800FFFFFFFFFFFFFFFFE73D74547454E73D4A
:103EA800FFFFFFFFFFFFFFFFFFFFFFFFFFFFFFFF1A
:103EB800FFFFFFFFFFFFFFFFFFFFFFFFFFFFFFFF0A
:103EC800FFFFFFFFFFFFEF7E8CD62B111AF11AF1CF
:103ED8001AF11AF11AF11AF11AF11AF11AF11AF182
:103EE8001AF11AF11AF11AF11AF11AF11AF11AF172
:103EF8001AF11AF13352C67BFFFFFFFFFFFFFFFFE6
:103F0800FFFFFFFFFFFFFFFFC65A2B121AF11AF13E
:103F18001AF11AF11AF11AF11AF11AF11AF11AF141
:103F28001AF11AF11AF11AF11AF11AF11AF11AF131
:103F38001AF11AF11AF11AF11AF11AF11AF1437277
:103F4800ADB9FFDFFFFFFFFFFFFFFFFFFFFFFFFF31
:103F5800FFFFFFFFFFFFFFFFFFFFFFFFFFFFFFFF69
:103F6800D6BC641484B6EF9EFFFFFFFFFFFFFFFF80
:103F7800FFFFFFFFFFFFFFFFFFFFFFFFFFFFFFFF49
:103F8800FFFFFFFFFFFFFFFFFFFFFFFFFFFFE73D13
:103F98006C5423111AF11AF11AF11AF11AF11AF1E3
:103FA8001AF11AF11AF11AF11AF11AF11AF11AF1B1
:103FB8001AF11AF11AF11AF11AF11AF13352C67BF1
:103FC800FFFFFFFFFFFFFFFFFFFFFFFFFFFFFFFFF9
:103FD800C65A2B121AF11AF11AF11AF11AF11AF13A
:103FE8001AF11AF11AF11AF11AF11AF11AF11AF171
:103FF8001AF11AF11AF11AF11AF11AF11AF11AF161
:104008001AF11AF11AF16C34D6BCFFFFFFFFFFFF5B
:10401800FFFFFFFFFFFFFFFFFFFFFFFFFFFFFFFFA8
:10402800FFFFFFFFFFFFFFFFBE3A5BF39D57F7BFA0
:10403800FFFFFFFFFFFFFFFFFFFFFFFFFFFFFFFF88
:10404800FFFFFFFFFFFFFFFFFFFFFFFFFFFFFFFF78
:10405800FFFFF7BFDEFCADB94B931AF11AF11AF165
:104068001AF11AF11AF11AF11AF11AF11AF11AF1F0
:104078001AF11AF11AF11AF11AF11AF11AF11AF1E0
:104088001AF11AF13352C67BFFFFFFFFFFFFFFFF54
:10409800FFFFFFFFFFFFFFFFC65A2B121AF11AF1AD
:1040A8001AF11AF11AF11AF11AF11AF11AF11AF1B0
:1040B8001AF11AF11AF11AF11AF11AF11AF11AF1A0
:1040C8001AF11AF11AF11AF11AF11AF12B3295179D
:1040D800F79EFFFFFFFFFFFFFFFFFFFFFFFFFFFF51
:1040E800FFFFFFFFFFFFFFFFFFFFFFFFFFFFFFDFF8
:1040F800A5985BD3B5F9FFDFFFFFFFFFFFFFFFFFC9
:10410800FFFFFFFFFFFFFFFFFFFFFFFFFFFFFFFFB7
:10411800FFFFFFFFF7BFE73DC65A9D577C754B93DE
:1041280023111AF11AF11AF11AF11AF11AF11AF106
:104138001AF11AF11AF11AF11AF11AF11AF11AF11F
:104148001AF11AF11AF11AF11AF11AF13352C67B5F
:10415800FFFFFFFFFFFFFFFFFFFFFFFFFFFFFFFF67
:10416800C65A2B121AF11AF11AF11AF11AF11AF1A8
:104178001AF11AF11AF11AF11AF11AF11AF11AF1DF
:104188001AF11AF11AF11AF11AF11AF11AF11AF1CF
:104198001AF11AF153B3BE3AFFDFFFFFFFFFFFFF2B
:1041A800FFFFFFFFFFFFFFFFFFFFFFFFFFFFFFFF17
:1041B800FFFFFFFFFFFFF79F8CF65BD3C67BFFDF98
:1041C800FFFFFFFFFFFFFFFFFFFFFFFFFFFFFFFFF7
:1041D800FFFFFFFFFFFFFFDFEF5ECE9BA5987C95FB
:1041E8005BD333321AF11AF11AF11AF11AF11AF1F2
:1041F8001AF11AF11AF11AF11AF11AF11AF11AF15F
:104208001AF11AF11AF11AF11AF11AF11AF11AF14E
:104218001AF11AF13352C67BFFFFFFFFFFFFFFFFC2
:10422800FFFFFFFFFFFFFFFFC65A2B121AF11AF11B
:104238001AF11AF11AF11AF11AF11AF11AF11AF11E
:104248001AF11AF11AF11AF11AF11AF11AF11AF10E
:104258001AF11AF11AF11AF11AF11AF17454E73D28
:10426800FFFFFFFFFFFFFFFFFFFFFFFFFFFFFFFF56
:10427800FFFFFFFFFFFFFFFFFFFFFFFFFFFFE75D00
:104288007C954B93BE3AF7BFFFFFFFFFFFFFFFFF91
:10429800FFFFFFFFFFFFFFFFFFDFEF7ED6DCADD99B
:1042A80084B55BF33B521B111AF11AF11AF11AF19A
:1042B8001AF11AF11AF11AF11AF11AF11AF11AF19E
:1042C8001AF11AF11AF11AF11AF11AF11AF11AF18E
:1042D8001AF11AF11AF11AF11AF11AF13352C67BCE
:1042E800FFFFFFFFFFFFFFFFFFFFFFFFFFFFFFFFD6
:1042F800C65A2B121AF11AF11AF11AF11AF11AF117
:104308001AF11AF11AF11AF11AF11AF11AF11AF14D
:104318001AF11AF11AF11AF11AF11AF11AF11AF13D
:104328001AF12B128CF6F79EFFFFFFFFFFFFFFFF2E
:10433800FFFFFFFFFFFFFFFFFFFFFFFFFFFFFFFF85
:10434800FFFFFFFFFFFFD6DC6C342B127475BE3AFB
:10435800DEFCE75DEF7EF79EF7BFF7BFF79EDF1D38
:10436800B61A8CD663F4437223111AF11AF11AF1B2
:104378001AF11AF11AF11AF11AF11AF11AF11AF1DD
:104388001AF11AF11AF11AF11AF11AF11AF11AF1CD
:104398001AF11AF11AF11AF11AF11AF11AF11AF1BD
:1043A8001AF11AF13352C67BFFFFFFFFFFFFFFFF31
:1043B800FFFFFFFFFFFFFFFFC65A2B121AF11AF18A
:1043C8001AF11AF11AF11AF11AF11AF11AF11AF18D
:1043D8001AF11AF11AF11AF11AF11AF11AF11AF17D
:1043E8001AF11AF11AF11AF11AF13B52A578FFBF26
:1043F800FFFFFFFFFFFFFFFFFFFFFFFFFFFFFFFFC5
:10440800FFFFFFFFFFFFFFFFFFFFFFFFFFFFC65A92
:104418005BD31AF12B124B925BD36C3484B69D5745
:10442800B5D9B5F99537641443722B321AF11AF1DC
:104438001AF11AF11AF11AF11AF11AF11AF11AF11C
:104448001AF11AF11AF11AF11AF11AF11AF11AF10C
:104458001AF11AF11AF11AF11AF11AF11AF11AF1FC
:104468001AF11AF11AF11AF11AF11AF13352C67B3C
:10447800FFFFFFFFFFFFFFFFFFFFFFFFFFFFFFFF44
:10448800C65A2B121AF11AF11AF11AF11AF11AF185
:104498001AF11AF11AF11AF11AF11AF11AF11AF1BC
:1044A8001AF11AF11AF11AF11AF11AF11AF11AF1AC
:1044B8001AF13B52A598FFDFFFFFFFFFFFFFFFFF49
:1044C800FFFFFFFFFFFFFFFFFFFFFFFFFFFFFFFFF4
:1044D800FFFFFFFFFFDFADD93B721AF11AF11AF1A6
:1044E8001AF123112B1133323B523B523332231131
:1044F8001AF11AF11AF11AF11AF11AF11AF11AF15C
:104508001AF11AF11AF11AF11AF11AF11AF11AF14B
:104518001AF11AF11AF11AF11AF11AF11AF11AF13B
:104528001AF11AF11AF11AF11AF11AF11AF11AF12B
:104538001AF11AF13352C67BFFFFFFFFFFFFFFFF9F
:10454800FFFFFFFFFFFFFFFFC65A2B121AF11AF1F8
:104558001AF11AF11AF11AF11AF11AF11AF11AF1FB
:104568001AF11AF11AF11AF11AF11AF11AF11AF1EB
:104578001AF11AF11AF11AF11AF133329D57F7BFED
:10458800FFFFFFFFFFFFFFFFFFFFFFFFFFFFFFFF33
:10459800FFFFFFFFFFFFFFFFFFFFFFFFFFDF9D574D
:1045A80023111AF11AF11AF11AF11AF11AF11AF182
:1045B8001AF11AF11AF11AF11AF11AF11AF11AF19B
:1045C8001AF11AF11AF11AF11AF11AF11AF11AF18B
:1045D8001AF11AF11AF11AF11AF11AF11AF11AF17B
:1045E8001AF11AF11AF11AF11AF11AF11AF11AF16B
:1045F8001AF11AF11AF11AF11AF11AF13352C67BAB
:10460800FFFFFFFFFFFFFFFFFFFFFFFFFFFFFFFFB2
:10461800C65A2B121AF11AF11AF11AF11AF11AF1F3
:104628001AF11AF11AF11AF11AF11AF11AF11AF12A
:104638001AF11AF11AF11AF11AF11AF11AF11AF11A
:104648001AF12B128CF6F7BFFFFFFFFFFFFFFFFFEA
:10465800FFFFFFFFFFFFFFFFFFFFFFFFFFFFFFFF62
:10466800FFFFFFFFF7BF953723111AF11AF11AF16F
:104678001AF11AF11AF11AF11AF11AF11AF11AF1DA
:104688001AF11AF11AF11AF11AF11AF11AF11AF1CA
:104698001AF11AF11AF11AF11AF11AF11AF11AF1BA
:1046A8001AF11AF11AF11AF11AF11AF11AF11AF1AA
:1046B8001AF11AF11AF11AF11AF11AF11AF11AF19A
:1046C8001AF11AF13352C67BFFFFFFFFFFFFFFFF0E
:1046D800FFFFFFFFFFFFFFFFC65A2B121AF11AF167
:1046E8001AF11AF11AF11AF11AF11AF11AF11AF16A
:1046F8001AF11AF11AF11AF11AF11AF11AF11AF15A
:104708001AF11AF11AF11AF11AF1231184B6F79F66
:10471800FFFFFFFFFFFFFFFFFFFFFFFFFFFFFFFFA1
:10472800FFFFFFFFFFFFFFFFFFFFFFFFF7BF9D3703
:1047380023111AF11AF11AF11AF11AF11AF11AF1F0
:104748001AF11AF11AF11AF11AF11AF11AF11AF109
:104758001AF11AF11AF11AF11AF11AF11AF11AF1F9
:104768001AF11AF11AF11AF11AF11AF11AF11AF1E9
:104778001AF11AF11AF11AF11AF11AF11AF11AF1D9
:104788001AF11AF11AF11AF11AF11AF13352C67B19
:10479800FFFFFFFFFFFFFFFFFFFFFFFFFFFFFFFF21
:1047A800C65A2B121AF11AF11AF11AF11AF11AF162
:1047B8001AF11AF11AF11AF11AF11AF11AF11AF199
:1047C8001AF11AF11AF11AF11AF11AF11AF11AF189
:1047D8001AF11AF17C95EF9EFFFFFFFFFFFFFFFF25
:1047E800FFFFFFFFFFFFFFFFFFFFFFFFFFFFFFFFD1
:1047F800FFFFFFFFFFDFA5782B321AF11AF11AF13C
:104808001AF11AF11AF11AF11AF11AF11AF11AF148
:104818001AF11AF11AF11AF11AF11AF11AF11AF138
:104828001AF11AF11AF11AF11AF11AF11AF11AF128
:104838001AF11AF11AF11AF11AF11AF11AF11AF118
:104848001AF11AF11AF11AF11AF11AF11AF11AF108
:104858001AF11AF13352C67BFFFFFFFFFFFFFFFF7C
:10486800FFFFFFFFFFFFFFFFC65A2B121AF11AF1D5
:104878001AF11AF11AF11AF11AF11AF11AF11AF1D8
:104888001AF11AF11AF11AF11AF11AF11AF11AF1C8
:104898001AF11AF11AF11AF11AF11AF17455E75EC0
:1048A800FFFFFFFFFFFFFFFFFFFFFFFFFFFFFFFF10
:1048B800FFFFFFFFFFFFFFFFFFFFFFFFFFFFB5D970
:1048C80043721AF11AF11AF11AF11AF11AF11AF1DE
:1048D8001AF11AF11AF11AF11AF11AF11AF11AF178
:1048E8001AF11AF11AF11AF11AF11AF11AF11AF168
:1048F8001AF11AF11AF11AF11AF11AF11AF11AF158
:104908001AF11AF11AF11AF11AF11AF11AF11AF147
:104918001AF11AF11AF11AF11AF11AF13352C67B87
:10492800FFFFFFFFFFFFFFFFFFFFFFFFFFFFFFFF8F
:10493800C65A2B121AF11AF11AF11AF11AF11AF1D0
:104948001AF11AF11AF11AF11AF11AF11AF11AF107
:104958001AF11AF11AF11AF11AF11AF11AF11AF1F7
:104968001AF11AF16C34DF1DFFFFFFFFFFFFFFFF95
:10497800FFFFFFFFFFFFFFFFFFFFFFFFFFFFFFFF3F
:10498800FFFFFFFFFFFFC65A53D31AF11AF11AF1BE
:104998001AF11AF11AF11AF11AF11AF11AF11AF1B7
:1049A8001AF11AF11AF11AF11AF11AF11AF11AF1A7
:1049B8001AF11AF11AF11AF11AF11AF11AF11AF197
:1049C8001AF11AF11AF11AF11AF11AF11AF11AF187
:1049D8001AF11AF11AF11AF11AF11AF11AF11AF177
:1049E8001AF11AF13352C67BFFFFFFFFFFFFFFFFEB
:1049F800FFFFFFFFFFFFFFFFC65A2B121AF11AF144
:104A08001AF11AF11AF11AF11AF11AF11AF11AF146
:104A18001AF11AF11AF11AF11AF11AF11AF11AF136
:104A28001AF11AF11AF11AF11AF11AF16C34DEFCC2
:104A3800FFFFFFFFFFFFFFFFFFFFFFFFFFFFFFFF7E
:104A4800FFFFFFFFFFFFFFFFFFFFFFFFFFFFCE9B03
:104A580064141AF11AF11AF11AF11AF11AF11AF189
:104A68001AF11AF11AF11AF11AF11AF11AF11AF1E6
:104A78001AF11AF11AF11AF11AF11AF11AF11AF1D6
:104A88001AF11AF11AF11AF11AF11AF11AF11AF1C6
:104A98001AF11AF11AF11AF11AF11AF11AF11AF1B6
:104AA8001AF11AF11AF11AF11AF11AF13352C67BF6
:104AB800FFFFFFFFFFFFFFFFFFFFFFFFFFFFFFFFFE
:104AC800C65A2B121AF11AF11AF11AF11AF11AF13F
:104AD8001AF11AF11AF11AF11AF11AF11AF11AF176
:104AE8001AF11AF11AF11AF11AF11AF11AF11AF166
:104AF8001AF11AF16414D6DCFFFFFFFFFFFFFFFF76
:104B0800FFFFFFFFFFFFFFFFFFFFFFFFFFFFFFFFAD
:104B1800FFFFFFFFFFFFDEFC74541AF11AF11AF1D0
:104B28001AF11AF11AF11AF11AF11AF11AF11AF125
:104B38001AF11AF11AF11AF11AF11AF11AF11AF115
:104B48001AF11AF11AF11AF11AF11AF11AF11AF105
:104B58001AF11AF11AF11AF11AF11AF11AF11AF1F5
:104B68001AF11AF11AF11AF11AF11AF11AF11AF1E5
:104B78001AF11AF13352C67BFFFFFFFFFFFFFFFF59
:104B8800FFFFFFFFFFFFFFFFC65A2B121AF11AF1B2
:104B98001AF11AF11AF11AF11AF11AF11AF11AF1B5
:104BA8001AF11AF11AF11AF11AF11AF11AF11AF1A5
:104BB8001AF11AF11AF11AF11AF11AF15BF3CE9BF4
:104BC800FFFFFFFFFFFFFFFFFFFFFFFFFFFFFFFFED
:104BD800FFFFFFFFFFFFFFFFFFFFFFFFFFFFE73DB7
:104BE8007C951AF11AF11AF11AF11AF11AF11AF15F
:104BF8001AF11AF11AF11AF11AF11AF11AF11AF155
:104C08001AF11AF11AF11AF11AF11AF11AF11AF144
:104C18001AF11AF11AF11AF11AF11AF11AF11AF134
:104C28001AF11AF11AF11AF11AF11AF11AF11AF124
:104C38001AF11AF11AF11AF11AF11AF13352C67B64
:104C4800FFFFFFFFFFFFFFFFFFFFFFFFFFFFFFFF6C
:104C5800C65A2B121AF11AF11AF11AF11AF11AF1AD
:104C68001AF11AF11AF11AF11AF11AF11AF11AF1E4
:104C78001AF11AF11AF11AF11AF11AF11AF11AF1D4
:104C88001AF11AF153D3C65AFFFFFFFFFFFFFFFFC8
:104C9800FFFFFFFFFFFFFFFFFFFFFFFFFFFFFFFF1C
:104CA800FFFFFFFFFFFFF79E84D61AF11AF11AF1F2
:104CB8001AF11AF11AF11AF11AF11AF11AF11AF194
:104CC8001AF11AF11AF11AF11AF11AF11AF11AF184
:104CD8001AF11AF11AF11AF11AF11AF11AF11AF174
:104CE8001AF11AF11AF11AF11AF11AF11AF11AF164
:104CF8001AF11AF11AF11AF11AF11AF11AF11AF154
:104D08001AF11AF13352C67BFFFFFFFFFFFFFFFFC7
:104D1800FFFFFFFFFFFFFFFFC65A2B121AF11AF120
:104D28001AF11AF11AF11AF11AF11AF11AF11AF123
:104D38001AF11AF11AF11AF11AF11AF11AF11AF113
:104D48001AF11AF11AF11AF11AF11AF153B3BE3A1B
:104D5800FFFFFFFFFFFFFFFFFFFFFFFFFFFFFFFF5B
:104D6800FFFFFFFFFFFFFFFFFFFFFFFFFFFFF7BF93
:104D780095372B121AF11AF11AF11AF11AF11AF1E0
:104D88001AF11AF11AF11AF11AF11AF11AF11AF1C3
:104D98001AF11AF11AF11AF11AF11AF11AF11AF1B3
:104DA8001AF11AF11AF11AF11AF11AF11AF11AF1A3
:104DB8001AF11AF11AF11AF11AF11AF11AF11AF193
:104DC8001AF11AF11AF11AF11AF11AF13352C67BD3
:104DD800FFFFFFFFFFFFFFFFFFFFFFFFFFFFFFFFDB
:104DE800C65A2B121AF11AF11AF11AF11AF11AF11C
:104DF8001AF11AF11AF11AF11AF11AF11AF11AF153
:104E08001AF11AF11AF11AF11AF11AF11AF11AF142
:104E18001AF11AF14B93B5F9FFDFFFFFFFFFFFFF10
:104E2800FFFFFFFFFFFFFFFFFFFFFFFFFFFFFFFF8A
:104E3800FFFFFFFFFFFFFFDFADB83B521AF11AF18A
:104E48001AF11AF11AF11AF11AF11AF11AF11AF102
:104E58001AF11AF11AF11AF11AF11AF11AF11AF1F2
:104E68001AF11AF11AF11AF11AF11AF11AF11AF1E2
:104E78001AF11AF11AF11AF11AF11AF11AF11AF1D2
:104E88001AF11AF11AF11AF11AF11AF11AF11AF1C2
:104E98001AF11AF13352C67BFFFFFFFFFFFFFFFF36
:104EA800FFFFFFFFFFFFFFFFC65A2B121AF11AF18F
:104EB8001AF11AF11AF11AF11AF11AF11AF11AF192
:104EC8001AF11AF11AF11AF11AF11AF11AF11AF182
:104ED8001AF11AF11AF11AF11AF11AF13B72ADB876
:104EE800FFDFFFFFFFFFFFFFFFFFFFFFFFFFFFFFEA
:104EF800FFFFFFFFFFFFFFFFFFFFFFFFFFFFFFDFDA
:104F0800BE1A4B931AF11AF11AF11AF11AF11AF1A1
:104F18001AF11AF11AF11AF11AF11AF11AF11AF131
:104F28001AF11AF11AF11AF11AF11AF11AF11AF121
:104F38001AF11AF11AF11AF11AF11AF11AF11AF111
:104F48001AF11AF11AF11AF11AF11AF11AF11AF101
:104F58001AF11AF11AF11AF11AF11AF13352C67B41
:104F6800FFFFFFFFFFFFFFFFFFFFFFFFFFFFFFFF49
:104F7800C65A2B121AF11AF11AF11AF11AF11AF18A
:104F88001AF11AF11AF11AF11AF11AF11AF11AF1C1
:104F98001AF11AF11AF11AF11AF11AF11AF11AF1B1
:104FA8001AF11AF133329D78FFDFFFFFFFFFFFFF91
:104FB800FFFFFFFFFFFFFFFFFFFFFFFFFFFFFFFFF9
:104FC800FFFFFFFFFFFFFFFFCE7B5BD31AF11AF154
:104FD8001AF11AF11AF11AF11AF11AF11AF11AF171
:104FE8001AF11AF11AF11AF11AF11AF11AF11AF161
:104FF8001AF11AF11AF11AF11AF11AF11AF11AF151
:105008001AF11AF11AF11AF11AF11AF11AF11AF140
:105018001AF11AF11AF11AF11AF11AF11AF11AF130
:105028001AF11AF13352C67BFFFFFFFFFFFFFFFFA4
:10503800FFFFFFFFFFFFFFFFC65A2B121AF11AF1FD
:105048001AF11AF11AF11AF11AF11AF11AF11AF100
:105058001AF11AF11AF11AF11AF11AF11AF11AF1F0
:105068001AF11AF11AF11AF11AF11AF12B329D37C5
:10507800FFDFFFFFFFFFFFFFFFFFFFFFFFFFFFFF58
:10508800FFFFFFFFFFFFFFFFFFFFFFFFFFFFFFFF28
:10509800D6DC64141AF11AF11AF11AF11AF11AF19C
:1050A8001AF11AF11AF11AF11AF11AF11AF11AF1A0
:1050B8001AF11AF11AF11AF11AF11AF11AF11AF190
:1050C8001AF11AF11AF11AF11AF11AF11AF11AF180
:1050D8001AF11AF11AF11AF11AF11AF11AF11AF170
:1050E8001AF11AF11AF11AF11AF11AF13352C67BB0
:1050F800FFFFFFFFFFFFFFFFFFFFFFFFFFFFFFFFB8
:10510800C65A2B121AF11AF11AF11AF11AF11AF1F8
:105118001AF11AF11AF11AF11AF11AF11AF11AF12F
:105128001AF11AF11AF11AF11AF11AF11AF11AF11F
:105138001AF11AF123119516F7BFFFFFFFFFFFFFC2
:10514800FFFFFFFFFFFFFFFFFFFFFFFFFFFFFFFF67
:10515800FFFFFFFFFFFFFFFFE73D6C541AF11AF155
:105168001AF11AF11AF11AF11AF11AF11AF11AF1DF
:105178001AF11AF11AF11AF11AF11AF11AF11AF1CF
:105188001AF11AF11AF11AF11AF11AF11AF11AF1BF
:105198001AF11AF11AF11AF11AF11AF11AF11AF1AF
:1051A8001AF11AF11AF11AF11AF11AF11AF11AF19F
:1051B8001AF11AF13352C67BFFFFFFFFFFFFFFFF13
:1051C800FFFFFFFFFFFFFFFFC65A2B121AF11AF16C
:1051D8001AF11AF11AF11AF11AF11AF11AF11AF16F
:1051E8001AF11AF11AF11AF11AF11AF11AF11AF15F
:1051F8001AF11AF11AF11AF11AF11AF123118CD6CF
:10520800EF9EFFFFFFFFFFFFFFFFFFFFFFFFFFFF17
:10521800FFFFFFFFFFFFFFFFFFFFFFFFFFFFFFFF96
:10522800EF7E7C951AF11AF11AF11AF11AF11AF1B6
:105238001AF11AF11AF11AF11AF11AF11AF11AF10E
:105248001AF11AF11AF11AF11AF11AF11AF11AF1FE
:105258001AF11AF11AF11AF11AF11AF11AF11AF1EE
:105268001AF11AF11AF11AF11AF11AF11AF11AF1DE
:105278001AF11AF11AF11AF11AF11AF13352C67B1E
:10528800FFFFFFFFFFFFFFFFFFFFFFFFFFFFFFFF26
:10529800C65A2B121AF11AF11AF11AF11AF11AF167
:1052A8001AF11AF11AF11AF11AF11AF11AF11AF19E
:1052B8001AF11AF11AF11AF11AF11AF11AF11AF18E
:1052C8001AF11AF11AF184B5EF5EFFFFFFFFFFFF35
:1052D800FFFFFFFFFFFFFFFFFFFFFFFFFFFFFFFFD6
:1052E800FFFFFFFFFFFFFFFFF79E8CF62B121AF15F
:1052F8001AF11AF11AF11AF11AF11AF11AF11AF14E
:105308001AF11AF11AF11AF11AF11AF11AF11AF13D
:105318001AF11AF11AF11AF11AF11AF11AF11AF12D
:105328001AF11AF11AF11AF11AF11AF11AF11AF11D
:105338001AF11AF11AF11AF11AF11AF11AF11AF10D
:105348001AF11AF13352C67BFFFFFFFFFFFFFFFF81
:10535800FFFFFFFFFFFFFFFFC65A2B121AF11AF1DA
:105368001AF11AF11AF11AF11AF11AF11AF11AF1DD
:105378001AF11AF11AF11AF11AF11AF11AF11AF1CD
:105388001AF11AF11AF11AF11AF11AF11AF17C95B7
:10539800E73DFFFFFFFFFFFFFFFFFFFFFFFFFFFFEF
:1053A800FFFFFFFFFFFFFFFFFFFFFFFFFFFFFFFF05
:1053B800FFBF9D5733521AF11AF11AF11AF11AF177
:1053C8001AF11AF11AF11AF11AF11AF11AF11AF17D
:1053D8001AF11AF11AF11AF11AF11AF11AF11AF16D
:1053E8001AF11AF11AF11AF11AF11AF11AF11AF15D
:1053F8001AF11AF11AF11AF11AF11AF11AF11AF14D
:105408001AF11AF11AF11AF11AF11AF13352C67B8C
:10541800FFFFFFFFFFFFFFFFFFFFFFFFFFFFFFFF94
:10542800C65A2B121AF11AF11AF11AF11AF11AF1D5
:105438001AF11AF11AF11AF11AF11AF11AF11AF10C
:105448001AF11AF11AF11AF11AF11AF11AF11AF1FC
:105458001AF11AF11AF17475DF1DFFFFFFFFFFFF44
:10546800FFFFFFFFFFFFFFFFFFFFFFFFFFFFFFFF44
:10547800FFFFFFFFFFFFFFFFFFDFADD943721AF108
:105488001AF11AF11AF11AF11AF11AF11AF11AF1BC
:105498001AF11AF11AF11AF11AF11AF11AF11AF1AC
:1054A8001AF11AF11AF11AF11AF11AF11AF11AF19C
:1054B8001AF11AF11AF11AF11AF11AF11AF11AF18C
:1054C8001AF11AF11AF11AF11AF11AF11AF11AF17C
:1054D8001AF11AF13352C67BFFFFFFFFFFFFFFFFF0
:1054E800FFFFFFFFFFFFFFFFC65A2B121AF11AF149
:1054F8001AF11AF11AF11AF11AF11AF11AF11AF14C
:105508001AF11AF11AF11AF11AF11AF11AF11AF13B
:105518001AF11AF11AF11AF11AF11AF11AF16C3496
:10552800D6DCFFFFFFFFFFFFFFFFFFFFFFFFFFFFCF
:10553800FFFFFFFFFFFFFFFFFFFFFFFFFFFFFFFF73
:10554800FFDFC65A53B31AF11AF11AF11AF11AF118
:105558001AF11AF11AF11AF11AF11AF11AF11AF1EB
:105568001AF11AF11AF11AF11AF11AF11AF11AF1DB
:105578001AF11AF11AF11AF11AF11AF11AF11AF1CB
:105588001AF11AF11AF11AF11AF11AF11AF11AF1BB
:105598001AF11AF11AF11AF11AF11AF13352C67BFB
:1055A800FFFFFFFFFFFFFFFFFFFFFFFFFFFFFFFF03
:1055B800C65A2B121AF11AF11AF11AF11AF11AF144
:1055C8001AF11AF11AF11AF11AF11AF11AF11AF17B
:1055D8001AF11AF11AF11AF11AF11AF11AF11AF16B
:1055E8001AF11AF11AF163F4CE9BFFFFFFFFFFFFD8
:1055F800FFFFFFFFFFFFFFFFFFFFFFFFFFFFFFFFB3
:10560800FFFFFFFFFFFFFFFFFFFFCE9B53D31AF102
:105618001AF11AF11AF11AF11AF11AF11AF11AF12A
:105628001AF11AF11AF11AF11AF11AF11AF11AF11A
:105638001AF11AF11AF11AF11AF11AF11AF11AF10A
:105648001AF11AF11AF11AF11AF11AF11AF11AF1FA
:105658001AF11AF11AF11AF11AF11AF11AF11AF1EA
:105668001AF11AF13352C67BFFFFFFFFFFFFFFFF5E
:10567800FFFFFFFFFFFFFFFFC65A2B121AF11AF1B7
:105688001AF11AF11AF11AF11AF11AF11AF11AF1BA
:105698001AF11AF11AF11AF11AF11AF11AF11AF1AA
:1056A8001AF11AF11AF11AF11AF11AF11AF14372F0
:1056B800A598EF7EFFDFFFFFFFFFFFFFFFFFFFFF64
:1056C800FFFFFFFFFFFFFFFFFFFFFFFFFFFFFFFFE2
:1056D800F79EB5D94B921AF11AF11AF11AF11AF18B
:1056E8001AF11AF11AF11AF11AF11AF11AF11AF15A
:1056F8001AF11AF11AF11AF11AF11AF11AF11AF14A
:105708001AF11AF11AF11AF11AF11AF11AF11AF139
:105718001AF11AF11AF11AF11AF11AF11AF11AF129
:105728001AF11AF11AF11AF11AF11AF13352C67B69
:10573800FFFFFFFFFFFFFFFFFFFFFFFFFFFFFFFF71
:10574800C65A2B121AF11AF11AF11AF11AF11AF1B2
:105758001AF11AF11AF11AF11AF11AF11AF11AF1E9
:105768001AF11AF11AF11AF11AF11AF11AF11AF1D9
:105778001AF11AF11AF123115BD39537ADB8ADD9E7
:10578800ADD9ADD9ADD9ADD9ADD9ADD9ADD9ADD9E1
:10579800ADD9ADD9ADD9ADB89D5764142B111AF157
:1057A8001AF11AF11AF11AF11AF11AF11AF11AF199
:1057B8001AF11AF11AF11AF11AF11AF11AF11AF189
:1057C8001AF11AF11AF11AF11AF11AF11AF11AF179
:1057D8001AF11AF11AF11AF11AF11AF11AF11AF169
:1057E8001AF11AF11AF11AF11AF11AF11AF11AF159
:1057F8001AF11AF13352C67BFFFFFFFFFFFFFFFFCD
:10580800FFFFFFFFFFFFFFFFC65A2B121AF11AF125
:105818001AF11AF11AF11AF11AF11AF11AF11AF128
:105828001AF11AF11AF11AF11AF11AF11AF11AF118
:105838001AF11AF11AF11AF11AF11AF11AF11AF108
:105848001AF123112B122B322B322B322B322B3203
:105858002B322B322B322B322B322B322B322B1278
:1058680023111AF11AF11AF11AF11AF11AF11AF1AF
:105878001AF11AF11AF11AF11AF11AF11AF11AF1C8
:105888001AF11AF11AF11AF11AF11AF11AF11AF1B8
:105898001AF11AF11AF11AF11AF11AF11AF11AF1A8
:1058A8001AF11AF11AF11AF11AF11AF11AF11AF198
:1058B8001AF11AF11AF11AF11AF11AF13352C67BD8
:1058C800FFFFFFFFFFFFFFFFFFFFFFFFFFFFFFFFE0
:1058D800C65A2B121AF11AF11AF11AF11AF11AF121
:1058E8001AF11AF11AF11AF11AF11AF11AF11AF158
:1058F8001AF11AF11AF11AF11AF11AF11AF11AF148
:105908001AF11AF11AF11AF11AF11AF11AF11AF137
:105918001AF11AF11AF11AF11AF11AF11AF11AF127
:105928001AF11AF11AF11AF11AF11AF11AF11AF117
:105938001AF11AF11AF11AF11AF11AF11AF11AF107
:105948001AF11AF11AF11AF11AF11AF11AF11AF1F7
:105958001AF11AF11AF11AF11AF11AF11AF11AF1E7
:105968001AF11AF11AF11AF11AF11AF11AF11AF1D7
:105978001AF11AF11AF11AF11AF11AF11AF11AF1C7
:105988001AF11AF13352C67BFFFFFFFFFFFFFFFF3B
:10599800FFFFFFFFFFFFFFFFC65A2B121AF11AF194
:1059A8001AF11AF11AF11AF11AF11AF11AF11AF197
:1059B8001AF11AF11AF11AF11AF11AF11AF11AF187
:1059C8001AF11AF11AF11AF11AF11AF11AF11AF177
:1059D8001AF11AF11AF11AF11AF11AF11AF11AF167
:1059E8001AF11AF11AF11AF11AF11AF11AF11AF157
:1059F8001AF11AF11AF11AF11AF11AF11AF11AF147
:105A08001AF11AF11AF11AF11AF11AF11AF11AF136
:105A18001AF11AF11AF11AF11AF11AF11AF11AF126
:105A28001AF11AF11AF11AF11AF11AF11AF11AF116
:105A38001AF11AF11AF11AF11AF11AF11AF11AF106
:105A48001AF11AF11AF11AF11AF11AF13352C67B46
:105A5800FFFFFFFFFFFFFFFFFFFFFFFFFFFFFFFF4E
:105A6800C65A2B121AF11AF11AF11AF11AF11AF18F
:105A78001AF11AF11AF11AF11AF11AF11AF11AF1C6
:105A88001AF11AF11AF11AF11AF11AF11AF11AF1B6
:105A98001AF11AF11AF11AF11AF11AF11AF11AF1A6
:105AA8001AF11AF11AF11AF11AF11AF11AF11AF196
:105AB8001AF11AF11AF11AF11AF11AF11AF11AF186
:105AC8001AF11AF11AF11AF11AF11AF11AF11AF176
:105AD8001AF11AF11AF11AF11AF11AF11AF11AF166
:105AE8001AF11AF11AF11AF11AF11AF11AF11AF156
:105AF8001AF11AF11AF11AF11AF11AF11AF11AF146
:105B08001AF11AF11AF11AF11AF11AF11AF11AF135
:105B18001AF11AF13352C67BFFFFFFFFFFFFFFFFA9
:105B2800FFFFFFFFFFFFFFFFC65A2B321AF11AF1E2
:105B38001AF11AF11AF11AF11AF11AF11AF11AF105
:105B48001AF11AF11AF11AF11AF11AF11AF11AF1F5
:105B58001AF11AF11AF11AF11AF11AF11AF11AF1E5
:105B68001AF11AF11AF11AF11AF11AF11AF11AF1D5
:105B78001AF11AF11AF11AF11AF11AF11AF11AF1C5
:105B88001AF11AF11AF11AF11AF11AF11AF11AF1B5
:105B98001AF11AF11AF11AF11AF11AF11AF11AF1A5
:105BA8001AF11AF11AF11AF11AF11AF11AF11AF195
:105BB8001AF11AF11AF11AF11AF11AF11AF11AF185
:105BC8001AF11AF11AF11AF11AF11AF11AF11AF175
:105BD8001AF11AF11AF11AF11AF11AF13352C67BB5
:105BE800FFFFFFFFFFFFFFFFFFFFFFFFFFFFFFFFBD
:105BF800C67B3B521AF11AF11AF11AF11AF11AF18D
:105C08001AF11AF11AF11AF11AF11AF11AF11AF134
:105C18001AF11AF11AF11AF11AF11AF11AF11AF124
:105C28001AF11AF11AF11AF11AF11AF11AF11AF114
:105C38001AF11AF11AF11AF11AF11AF11AF11AF104
:105C48001AF11AF11AF11AF11AF11AF11AF11AF1F4
:105C58001AF11AF11AF11AF11AF11AF11AF11AF1E4
:105C68001AF11AF11AF11AF11AF11AF11AF11AF1D4
:105C78001AF11AF11AF11AF11AF11AF11AF11AF1C4
:105C88001AF11AF11AF11AF11AF11AF11AF11AF1B4
:105C98001AF11AF11AF11AF11AF11AF11AF11AF1A4
:105CA8001AF11AF14393CE9BFFFFFFFFFFFFFFFF9F
:105CB800FFFFFFFFFFFFFFFFD6DC6C341AF11AF17C
:105CC8001AF11AF11AF11AF11AF11AF11AF11AF174
:105CD8001AF11AF11AF11AF11AF11AF11AF11AF164
